:100000000C9475060C94FA080C94D3080C949D0675
:100010000C949D060C949D060C949D060C949D06D4
:100020000C949D060C949D060C949D060C949D06C4
:100030000C949D060C949D060C949D060C949D06B4
:100040000C9442100C949D060C9447090C942109C1
:100050000C949D060C949D060C949D060C949D0694
:100060000C949D060C949D062A081D08BA080008E9
:10007000BA080508BA08BA08BA08BA08BA080F08D0
:100080001808BA084A08010CFC0B020CC20BC40B7E
:10009000DD0BD10BC70B050CBF0BE60B020C020CE2
:1000A000FA0B00F8F62A3F68F57A0006FFFE000317
:1000B000000000650054FFEF0000FA80000B128280
:1000C0000001030C30C30A74562D0D62DBC716F411
:1000D000BA023883F8833000F883258EF883300025
:1000E000F883FFFFFFFF0CBDD811240004001A8223
:1000F00079A10036003C00000000001000003883A9
:100100006FA2003E03304000000002CAE3093E80B7
:10011000000020000000000000004000000060001F
:1001200000001FA4E8E4FFF5DCB9005B79CF1F3FB6
:10013000787600867C5A00862347FAB986310074A7
:10014000878A0000000000004305FFFFE9A80000C7
:100150002182FAB84D46FFFADF3DFFFFB2B300003F
:1001600000003FFFBA98005DAC08000A6378000108
:100170004621FFFF0000000042B500060064006455
:1001800000061406029F0F479132D90E9FC91DCF5A
:100190004C343BB67AE80064000600C8000000005A
:1001A000FFFE100000000000000000000000000042
:1001B000000000070000FFF10000FA460000A2B8AE
:1001C00000001000000004D6000004CC000004CCA5
:1001D000000000000000000000000000000000001F
:1001E0000000000600020005000700000000006497
:1001F0000000000000000000000C0005006400206A
:1002000000000000000000000000000040000000AE
:10021000030000000032F8980000FF650000830F23
:10022000000000060000FFF10000FA460000A2B83E
:1002300000000000000000000000000000000000BE
:10024000000000000032000000000000000000007C
:100250001000000000010000000D0000B26A000262
:1002600000000001FB83007C0000FB15FC001FB4B4
:10027000FF830000000100650007006403E80064DC
:1002800000280000FFFD0000000016A00000000094
:10029000000000001000002F0000000001F400002A
:1002A000100000280000FFFF4581FFFFFA720000E8
:1002B000000000000000004400010005BAC600472D
:1002C00078A200000000000000000000060000000E
:1002D0000014000023BB002EA25B00000568000B89
:1002E000CF490004FFFD00020000000000020000F2
:1002F0000000001B000000000000000000000000E3
:10030000000000640007000800060006FFFE000071
:1003100000000000000000000000000000000000DD
:1003200000000000000000000000000000000000CD
:1003300000000000000000000000000000000000BD
:100340000000002EA25B00000568000BCF490000F2
:10035000000000F8F62A3F68F57A0004FFFD00026D
:100360000000001B00000000000000000000000E64
:10037000000EFFFFFFCF0004000000000032FFFF6F
:10038000FF9C000043050000000000000001000089
:100390000064FFE500000000000000000000000015
:1003A000000000000001000000000001000000004B
:1003B0000000000180000001800000018000002496
:1003C00026D3000100010000000000060010009686
:1003D000003C0000000000000000000000001F9E24
:1003E000655D0C0A4E68CDCF770950166759C6195E
:1003F000CE82000000000000000000000000004766
:10040000711C000000000000000017D784000300EA
:1004100000000011DC4703000000C7938F9D1E1BE6
:100420001C19FFFFFFFF000000000EDFA4381F9E15
:10043000655D000000000047711C02031885000084
:100440004000000000000000000300000000000069
:1004500000003FFFFFFDFFFFF4C9FFFFBCF00001FC
:100460000C0F000000000000000000000000000071
:10047000000000000000000000000000000000007C
:100480000000F5B7BAB3677DDF7E72902E554CF64B
:10049000E6880000000000000000000000000000EE
:1004A0000000D8DCB4B8B0D8B9ABF3F8FAB3B7BB36
:1004B0008E9EAEF132F51BF1B4B8B08097F1A9DF92
:1004C000DFDFAADFDFDFF2AA4CCD6CA90CC92C97C5
:1004D000F1A989264666B28999A92D557DB0B08AC1
:1004E000A896365676F1BAA3B4B280C0B8A89711D0
:1004F000B28398BAA3F0240844106418B2B9B4982F
:1005000083F1A329557DBAB5B1A38393F000285098
:10051000F5B2B6AA839328547CF1B9A3829361BA49
:10052000A2DADEDFDB819AB9AEF5606870F1DABA83
:10053000A2DFD9BAA2FAB9A38292DB31BAA2D9BAA0
:10054000A2F8DF85A4D0C1BBAD83C2C5C7B8A2DF06
:10055000DFDFBAA0DFDFDFD8D8F1B8AAB38DB49857
:100560000D355DB2B6BAAF8C96198F9FA70E161EC9
:10057000B49AB8AA872C547CBAA4B08AB6913256E1
:1005800076B28494A4C808CDD8B8B4B0F19982A842
:100590002D557D98A80E161EA22C547C92A4F02CEA
:1005A0005078F184A898C4CDFCD80DDBA8FC2DF3BD
:1005B000D9BAA6F8DABAA6DED8BAB2B68696A6D066
:1005C000F3C841DAA6C8F8D8B0B4B882A892F52C1E
:1005D000548898F135D9F418D8F1A2D0F8F9A88444
:1005E000D9C7DFF8F883C5DADF69DF83C1D8F40142
:1005F00014F1A8824EA884F311D182F5D9922897DC
:1006000088F109F41C1CD884A8F3C0F9D1D99782C9
:10061000F129F40DD8F3F9F9D1D982F4C203D8DE67
:10062000DF1AD8F1A2FAF9A88498D9C7DFF8F8F848
:1006300083C7DADF69DFF883C3D8F40114F198A81F
:10064000822EA884F311D182F5D992509788F109AE
:10065000F41CD884A8F3C0F8F9D1D99782F149F4F1
:100660000DD8F3F9F9D1D982F4C403D8DEDFD8F17B
:10067000AD8898CCA809F9D98292A8F57CF1883A7E
:10068000CF944A6E98DB6931DAADF2DEF9D88795FE
:10069000A8F221D1DAA5F9F417D9F1AE8ED0C0C3F2
:1006A000AE82C684C3A88595C8A588F2C0F1F401BE
:1006B0000EF18E9EA8C63E56F554F18872F40115CF
:1006C000F19845856EF58E9E0488F142985A8E9E6B
:1006D000068869F4011CF1981E1108D0F504F11E7A
:1006E000970202983625DBF9D985A5F3C1DA85A5ED
:1006F000F3DFD88595A8F309DAA5FAD88292A8F590
:1007000078F1881A849F26889821DAF41DF3D88717
:100710009F39D1AFD9DFDFFBF9F40CF3D8FAD0F869
:10072000DAF9F9D0DFD9F9D8F40BD8F3879F39D1AA
:10073000AFD9DFDFF41DF3D8FAFCA869F9F9AFD01F
:10074000DADEFAD9F88F9FA8F1CCF398DB45D9AF60
:10075000DFD0F8D8F18F9FA8CAF38809DAAF8FCB22
:10076000F8D8F2AD978D0CD9A5DFF9BAA6F3FAF453
:1007700012F2D8950DD1D9BAA6F3FADAA5F2C1BA18
:10078000A6F3DFD8F1BAB2B68696A6D0CAF349DA94
:10079000A6CBF8D8B0B4B8D8AD84F2C0DFF18FCB17
:1007A000C3A8B2B68696C8C1CBC3F3B0B48898A824
:1007B00021DB718D9D71859521D9ADF2FAD8859790
:1007C000A828D9F408D8F28D29DAF405D9F285A43D
:1007D000C2F2D8A88D9401D1D9F411F2D88721D8CA
:1007E000F40AD8F28498A8C801D1D9F411D8F3A496
:1007F000C8BBAFD0F2DEF8F8F8F8F8F8F8F8D8F19E
:10080000B8F6B5B9B08A95A3DE3CA3D9F8D85CA3F5
:10081000D9F8D87CA3D9F8D8F8F9D1A5D9DFDAFA74
:10082000D8B18530F7D9DED8F830ADDADED8F2B4F9
:100830008C99A32D557DA083DFDFDFB591A0F6292C
:10084000D9FBD8A0FC29D9FAD8A0D051D9F8D8FC26
:1008500051D9F9D879D9FBD8A0D0FC79D9FAD8A147
:10086000F9F9F9F9F9A0DADFDFDFD8A1F8F8F8F83B
:10087000F8ACDEF8ADDE8393AC2C547CF1A8DFDF5E
:10088000DFF69D2CDAA0DFD9FADB2DF8D8A850DAF4
:10089000A0D0DED9D0F8F8F8DB55F8D8A878DAA0DF
:1008A000D0DFD9D0FAF8F8F8F8DB7DF8D89CA88C1E
:1008B000F530DB38D9D0DEDFA0D0DEDFD8A848DBCA
:1008C00058D9DFD0DEA0DFD0DED8A868DB70D9DF52
:1008D000DFA0DFDFD8F1A888902C547C98A8D05CEA
:1008E00038D1DAF2AE8CDFF9D8B087A8C1C1B188AF
:1008F000A8C6F9F9DA36D8A8F9DA36D8A8F9DA3676
:10090000D8A8F9DA36D8A8F9DA36D8F78D9DADF837
:1009100018DAF2AEDFD8F7ADFA30D9A4DEF9D8F2A2
:10092000AEDEFAF983A7D9C3C5C7F1889BA77AAD14
:10093000F7DEDFA4F8849408A797F300AEF29819C5
:10094000A488C6A39488F632DFF28393DB09D9F238
:10095000AADFD8D8AEF8F9D1DAF3A4DEA7F1889BE4
:100960007AD8F38494AE19F9DAAAF1DFD8A881C055
:10097000C3C5C7A39283F628ADDED9F8D8A350AD7E
:10098000D9F8D8A378ADD9F8D8F8F9D1A1DADEC36F
:10099000C5C7D8A18194F818F2B089ACC3C5C7F116
:1009A000D8B8B4B09786A8319B069907AB9728882A
:1009B0009BF00C201440B0B4B8F0A88A9A28507864
:1009C000B79BA8295179247059446938644831F19A
:1009D000BBAB88002C547CF0B38BB8A804285078AB
:1009E000F1B088B49726A85998BBABB38B022646C2
:1009F00066B0B8F08A9CA82951798B2951798A244C
:100A000070598B2058718A4469388B3940688A64E0
:100A100048318B30496088F1AC002C547CF08CA8B4
:100A200004285078F1889726A85998AC8C0226465D
:100A300066F0899CA8295179247059446938644822
:100A400031A98809205970AB11384069A81931487B
:100A5000608CA83C415C207C00F187981986A86EC8
:100A6000767EA999882D557DD8B1B5B9A3DFDFDF92
:100A7000AED0DFAAD0DEF2ABF8F9D9B087C4AAF1C4
:100A8000DFDFBBAFDFDFB9D8B1F1A3978E60DFB096
:100A900084F2C8F8F9D9DED89385F14AB183A30866
:100AA000B5839A0810B79F10D8F1B0BAAEB08AC219
:100AB000B2B68E9EF1FBD9F41DD8F9D90CF1D8F855
:100AC000F8AD61D9AEFBD8F40CF1D8F8F8AD19D96E
:100AD000AEFBDFD8F416F1D8F8AD8D61D9F4F4ACE3
:100AE000F59C9C8DDF2BBAB6AEFAF8F40BD8F1AEBC
:100AF000D0F8AD51DAAEFAF8F1D8B9B1B6A3839C0B
:100B000008B9B1839AB5AAC0FD3083B79F10B58BE1
:100B100093F20202D1ABDADED8F1B080BAABC0C337
:100B2000B284C1C3D8B1B9F38BA391B609B4D9AB20
:100B3000DEB0879CB9A3DDF1B38B8B8B8B8BB08739
:100B400020283038B28BB69BF2A3C0C8C2C4CCC632
:100B5000A3A3A3F1B087B59AD8F39BA3A3DCBAAC47
:100B6000DFB9A3FEF2ABC4AAF1DFDFBBAFDFDFA3C7
:100B7000A3A3D8D8D8BBB3B7F1AAF9DAFFD9809A22
:100B8000AA28B48098A720B79787A86688F07951DB
:100B9000F1902C870CA781976293F0717160859416
:100BA0000129517990A5F1284C6C870C951885780E
:100BB000A38390284C6C886CD8F3A28200F210A812
:100BC000921980A2F2D926D8F188A84DD948D89692
:100BD000A83980D93CD89580A839A68698D92CDA2E
:100BE00087A72CD8A8899519A980D938D8A8893978
:100BF000A980DA3CD8A82EA83990D90CD8A895316C
:100C000098D90CD8A809D9FFD801DAFFD89539A905
:100C1000DA26FFD890A80D8999A810809821DA2E9D
:100C2000D88999A83180DA2ED8A886963180DA2E14
:100C3000D8A8873180DA2ED8A88292F34180F1D9E2
:100C40002ED8A882F31980F1D92ED882ACF3C0A295
:100C50008022F1A62EA72EA92298A829DAACDEFFC1
:100C6000D8A2F22AF1A92E8292A8F23180A696F19A
:100C7000D900AC8C9C0C30ACDED0DEFFD88C9CACA8
:100C8000D010ACDE8092A2F24C82A8F1CAF235F10B
:100C90009688A6D900D8F1FF0000000024002700A4
:100CA0002A0000000000250028002B000404040492
:100CB0000404040402020202020203030303030306
:100CC00001020408102040800102040810200102E3
:100CD00004081020000000080002010000030407BF
:100CE0000000000000000000321811241FBECFEFEA
:100CF000D8E0DEBFCDBF11E0A0E0B1E0EAE4F8E368
:100D000002C005900D92AA38B107D9F722E0AAE8EF
:100D1000B1E001C01D92A53CB207E1F716E0C5E7BE
:100D2000D6E004C02197FE010E94F818C437D1070D
:100D3000C9F70E948C100C94231C0C940000089599
:100D4000CF92DF92EF92FF920F931F93CF93DF9397
:100D50006C017A018B01C0E0D0E0CE15DF0581F097
:100D6000D8016D918D01D601ED91FC910190F0813A
:100D7000E02DC6010995892B11F02196EECF7E0159
:100D8000C701DF91CF911F910F91FF90EF90DF90FE
:100D9000CF900895089580E090E00895FC01538D70
:100DA000448D252F30E0842F90E0821B930B541745
:100DB00010F0CF96089501970895FC01918D828DD2
:100DC000981761F0828DDF01A80FB11D5D968C919F
:100DD000928D9F5F9F73928F90E008958FEF9FEFAA
:100DE0000895FC01918D828D981731F0828DE80F66
:100DF000F11D858D90E008958FEF9FEF0895FC0120
:100E0000918D228D892F90E0805C9F4F821B9109EC
:100E10008F739927089581EC91E00E94FF0621E0ED
:100E2000892B09F420E0822F0895FC01848DDF01D5
:100E3000A80FB11DA35ABF4F2C91848D90E001964D
:100E40008F739927848FA689B7892C93A089B1893C
:100E50008C91837080648C93938D848D981306C0DD
:100E60000288F389E02D80818F7D80830895EF9241
:100E7000FF920F931F93CF93DF93EC0181E0888F54
:100E80009B8D8C8D981305C0E889F989808185FD3B
:100E900026C0F62E0B8D10E00F5F1F4F0F7311272A
:100EA000E02E8C8DE8120CC00FB607FCFACFE88953
:100EB000F989808185FFF5CFCE010E941507F1CF1A
:100EC0008B8DFE01E80FF11DE35AFF4FF0829FB7B3
:100ED000F8940B8FEA89FB89808180620AC09FB7F2
:100EE000F894EE89FF896083E889F98980818370AD
:100EF000806480839FBF81E090E0DF91CF911F915C
:100F00000F91FF90EF900895CF93DF93EC01888DC0
:100F10008823C9F0EA89FB89808185FD05C0A889FD
:100F2000B9898C9186FD0FC00FB607FCF5CF808183
:100F300085FFF2CFA889B9898C9185FFEDCFCE01CD
:100F40000E941507E7CFDF91CF91089580E090E0F0
:100F5000892B29F00E940B0781110C940000089541
:100F60002AEF30E08091BC0087FD03C02150310999
:100F7000C8F781E0121613060CF080E0089508957A
:100F8000E0918A01F0918B01828D938DA48DB58DB6
:100F90000196A11DB11D828F938FA48FB58F818182
:100FA0009281019719F481E080938C0108950E9449
:100FB000111C2F923F924F925F926F927F928F926D
:100FC0009F92AF92BF92CF92DF92EF92FF920F93D8
:100FD0001F93CF93DF93CDB7DEB727970FB6F89463
:100FE000DEBF0FBECDBF9A838983DA01FB01319743
:100FF000EF30F10508F0BEC0EC5CFF4F0C94F81820
:101000008C91E981FA818783B5C09C91E981FA814D
:1010100086819111ADC08E7FE981FA81AAC0E981F4
:10102000FA818581982F977C8C918873892B10C0C9
:10103000E981FA81858182600BC09C91E981FA8106
:101040008581992311F0886003C0877FE981FA8147
:10105000858390C06C91E981FA81608380E090E0A3
:1010600027960FB6F894DEBF0FBECDBFDF91CF91AC
:101070001F910F91FF90EF90DF90CF90BF90AF90B6
:101080009F908F907F906F905F904F903F902F90A8
:101090000C94731889819A819F838E83DC90FC0164
:1010A00082A093A0EB5BFF4F20803180FC01868102
:1010B00081708D838D2D90E0A0E0B0E09C01AD01AA
:1010C0002150310941095109ACEEBFEF0E94AE1821
:1010D00024E030E040E050E00E94811880E590E09C
:1010E000A0E0B0E0BC01CD01621B730B840B950B3B
:1010F0000E94CE192AE037ED43E25CE30E94831A96
:101100002B013C012AE939E949E95EE30E94831A8F
:1011100069837A838B839C8320E030E044EB52E444
:10112000C301B2010E94831A5401CD2C7B018C01B2
:1011300029813A814B815C8163E4C1010E94960D53
:1011400020E030E040EA51E4C301B2010E94831A7A
:101150007B018C0129813A814B815C816BE3C10168
:101160000E94960DFD81FF2329F0EE81FF8186818B
:101170008160868327960FB6F894DEBF0FBECDBF81
:10118000DF91CF911F910F91FF90EF90DF90CF9063
:10119000BF90AF909F908F907F906F905F904F9097
:1011A0003F902F9008951F920F920FB60F92112427
:1011B0002F933F934F935F936F937F938F939F935F
:1011C000AF93BF93EF93FF93E0910201F09103017E
:1011D0000995FF91EF91BF91AF919F918F917F9171
:1011E0006F915F914F913F912F910F900FBE0F9094
:1011F0001F9018951F920F920FB60F9211242F93E4
:101200003F934F935F936F937F938F939F93AF938E
:10121000BF93EF93FF93E0910001F09101010995D5
:10122000FF91EF91BF91AF919F918F917F916F91BE
:101230005F914F913F912F910F900FBE0F901F9094
:1012400018951F920F920FB60F9211242F933F9370
:101250004F935F936F937F938F939F93AF93BF93BE
:10126000EF93FF9381EC91E00E941507FF91EF91BE
:10127000BF91AF919F918F917F916F915F914F91AE
:101280003F912F910F900FBE0F901F9018951F92B6
:101290000F920FB60F9211242F938F939F93EF937A
:1012A000FF93E091D101F091D2018081E091D701CB
:1012B000F091D80182FD12C090818091DA018F5F98
:1012C0008F732091DB01821751F0E091DA01F0E099
:1012D000EF53FE4F958F8093DA0101C08081FF911B
:1012E000EF919F918F912F910F900FBE0F901F90B4
:1012F000189584E98093BC000E94B00791E089278B
:101300000895AF92BF92CF92DF92EF92FF920F9328
:101310001F93CF93DF93D82FF62E042FD52EC22FF5
:1013200013E044EBE42E8E7FC82E54E8B52EE092F5
:10133000BC000E94B0078823B9F08091B900887F73
:10134000883011F0803191F4C092BB00B092BC00A3
:101350000E94B007882361F08091B900887F8032B5
:1013600049F4115021F708C080E178C081E176C0CE
:1013700082E174C0883111F083E170C0F092BB004B
:1013800084E88093BC000E94B007882341F18091DB
:10139000B900887F883229F513E024EBF22ED16062
:1013A00034E8E32EF092BC000E94B0078823D9F005
:1013B0008091B900887F883011F08031B1F4D093EA
:1013C000BB00E092BC000E94B007882381F090919E
:1013D000B900987F983479F4115021F70AC084E15C
:1013E0003DC085E13BC086E139C087E137C088E177
:1013F00035C089E133C09034E1F7E02EFD2CD0E018
:1014000000E010E06E01E1E0CE1AD10884ECB82EC5
:1014100094E8A92E0C171D07E1F00C151D0519F411
:10142000A092BC0002C0B092BC000E94B00788230A
:10143000A1F08091B900982F907F903511F0887FAE
:101440000DC08091BB00F70181937F010F5F1F4F9B
:10145000E1CF0E94790980E001C08AE1DF91CF915C
:101460001F910F91FF90EF90DF90CF90BF90AF90C2
:1014700008958093BB0084E88093BC000E94B0076D
:10148000882339F08091B900887F883221F480E088
:10149000089581E0089582E008950F931F93CF93FC
:1014A000DF93D82FDD0FC3E014EB04E81093BC00EA
:1014B0000E94B0078823B9F08091B900887F8830F6
:1014C00011F0803191F4D093BB000093BC000E94D6
:1014D000B007882361F08091B900887F803259F489
:1014E000C15021F706C081E009C082E007C083E057
:1014F00005C084E003C08831E1F780E0DF91CF913F
:101500001F910F910895FF920F931F93CF93DF9335
:10151000C62F142FF22E032F0E944D0A8C2F0E94EB
:10152000390ACF2DD02FCE01810F911D8C01C0170C
:10153000D10721F089910E94390AF9CF0E947909D7
:1015400081E0DF91CF911F910F91FF900895CF938C
:10155000DF931F92CDB7DEB749839E012F5F3F4FC8
:1015600041E00E94830A0F90DF91CF9108959F92EE
:10157000AF92BF92CF92DF92EF92FF920F931F93A1
:10158000CF93DF93D82F962EC42F59010E94370D89
:101590006B017C012C2FA501692D8D2F880F0E94D6
:1015A0008109811102C0DC2F01C0DFEF0115110597
:1015B000C9F00E94370DDC01CB018C199D09AE09E1
:1015C000BF0920E030E080179107A207B30750F071
:1015D0004C2F50E08D2F0D2E000C990B8417950782
:1015E0000CF4DFEF8D2FDF91CF911F910F91FF90C2
:1015F000EF90DF90CF90BF90AF909F900895CF92E3
:10160000DF92EF92FF920F931F93CF93DF931F927E
:10161000CDB7DEB7F82EE62ED42EC22E08EE13E09C
:101620009E012F5F3F4F41E00E94B70A898141E050
:1016300050E001C0440FDA94EAF7CC2011F0482BB7
:1016400002C04095482349836E2D8F2D0E94A70A22
:101650000F90DF91CF911F910F91FF90EF90DF904E
:10166000CF900895BF92CF92DF92EF92FF920F93A7
:101670001F93CF93DF931F92CDB7DEB7F82EE62EE0
:10168000C42EB22ED02E08EE13E09E012F5F3F4FE6
:1016900041E00E94B70A882339F12C2D30E02B1944
:1016A00031092F5F3F4F81E090E002C0880F991F02
:1016B000BA94E2F70197022E01C0880F0A94EAF764
:1016C0004D2D50E0BA0102C0660F771F2A95E2F750
:1016D000482F4095998149238623482B49836E2DB5
:1016E0008F2D0E94A70A01C080E00F90DF91CF915B
:1016F0001F910F91FF90EF90DF90CF90BF900895D2
:10170000BF92CF92DF92EF92FF920F931F93CF93EE
:10171000DF93B62E7A016901FA01E15FFE4FC081C5
:10172000D0E004E010E063E281EC91E00E94370732
:1017300001501109C1F76E2D81EC91E00E9437072D
:101740006B2D81EC91E00E943707AE01B60181EC70
:1017500091E0DF91CF911F910F91FF90EF90DF907B
:10176000CF90BF900C94A006DC01FB013197EE30C6
:10177000F10508F047C0ED5BFF4F0C94F81884E8C2
:1017800091E008950796089585E091E0089581E03D
:1017900090E011962D913C9112972230310551F431
:1017A00012C081E090E011962D913C91129721306A
:1017B000310549F080E090E006C016968C91282F04
:1017C000217030E0C9018C5F9E4F0895FC0125E037
:1017D00031E04BE050E06EE070E082A193A10E9406
:1017E000800B60ED77E080E090E00E94FD0C84E0EB
:1017F00091E008954A96089516968C91887090E02D
:10180000E2CF089580E090E0089586E091E00895A9
:10181000CF93DF931F92CDB7DEB78983CB019E01B3
:101820002F5F3F4F4FE050E06CE070E00E94800B74
:101830000F90DF91CF9108953FB7F8948091BD024A
:101840009091BE02A091BF02B091C00226B5A89BA4
:1018500005C02F3F19F00196A11DB11D3FBFBA2F42
:10186000A92F982F8827820F911DA11DB11DBC01A2
:10187000CD0142E0660F771F881F991F4A95D1F767
:101880000895009769F0FC0101900020E9F7319775
:10189000AF01481B590BBC0181EC91E00C94A006F0
:1018A00080E090E008951F93CF93DF93162FEA0115
:1018B0000E944D0A812F0E94390A89810E94390AAB
:1018C00088810E94390AC82F0E94790981E0C111DC
:1018D00080E0DF91CF911F9108950C94410C8F927D
:1018E0009F92AF92BF920F931F93CF93DF93CDB789
:1018F000DEB7A1970FB6F894DEBF0FBECDBF19A219
:10190000423008F44AE08E010F5D1F4F842E912C67
:10191000A12CB12CA50194010E94B318E62FB901A6
:10192000CA0101501109EA3014F4E05D01C0E95C1C
:10193000D801EC93232B242B252B61F7C8010E949F
:10194000410CA1960FB6F894DEBF0FBECDBFDF915C
:10195000CF911F910F91BF90AF909F908F9008955E
:1019600090E0FC01EC52F34F2491FC01E054F34F62
:101970003491FC01E455F34FE491EE2309F43CC0AB
:10198000222339F1233091F038F42130A9F02230AC
:1019900001F584B58F7D12C0273091F02830A1F079
:1019A0002430B9F4809180008F7D03C08091800045
:1019B0008F77809380000DC084B58F7784BD09C078
:1019C0008091B0008F7703C08091B0008F7D8093AD
:1019D000B000F0E0EE0FFF1FEE55F34FA591B4916C
:1019E0009FB7F894611104C08C913095382302C0E0
:1019F000EC913E2B3C939FBF08958F929F92AF92A4
:101A0000BF92CF92DF92EF92FF926B017C010E9416
:101A10001C0C4B015C01C114D104E104F104F1F090
:101A20000E941C0CDC01CB0188199909AA09BB0989
:101A3000883E9340A105B10570F321E0C21AD10898
:101A4000E108F10888EE880E83E0981EA11CB11C05
:101A5000C114D104E104F10419F7DDCFFF90EF9038
:101A6000DF90CF90BF90AF909F908F9008952FB749
:101A7000F8946091B9027091BA028091BB02909182
:101A8000BC022FBF08958F929F92AF92BF92CF92C8
:101A9000DF92EF92FF920F931F93CF93DF9300D0CB
:101AA000CDB7DEB7D82EC62E8A0179010E94370D38
:101AB0004B015C0122E0AE014F5F5F4F6C2D8D2D1D
:101AC000880F0E94810981110AC089819A81982713
:101AD00089279827F8019183808311E001C01FEFC7
:101AE000E114F10499F00E94370DAB01BC014819D3
:101AF00059096A097B09C701A0E0B0E048175907F6
:101B00006A077B0718F0113009F01FEF812F0F9043
:101B10000F90DF91CF911F910F91FF90EF90DF9089
:101B2000CF90BF90AF909F908F9008952F923F924B
:101B30004F925F926F927F928F929F92AF92BF92DD
:101B4000CF92DF92EF92FF920F931F93CF93DF9389
:101B5000CDB7DEB7E5970FB6F894DEBF0FBECDBFA9
:101B6000988F8F8B6D8F2EA33FA348A759A7EAA606
:101B7000FBA60CA71DA7BBAAAAAA6B3309F080C2BB
:101B800008EE13E09E012F5F3F4F41E065E7DC0167
:101B90008C910E94B70A882369F089818E7790E042
:101BA00095958795EF89F88D8183883318F017E72D
:101BB00003E002C016E002E09E01235F3F4F3E8B30
:101BC0002D8BCE0101967C014901D12E28EE33E008
:101BD000AE014D5E5F4F6D2DEF89F88D80810E94C3
:101BE000430DAB88BC88B5010B2C000C880B990BFE
:101BF0000E94CE19133191F0F1E0AF22BB24D40141
:101C0000AD92BC9220E030E040E051E40E94831AA3
:101C1000F70160837183828393830CC020E030E0FE
:101C200040E850E40E94831AD7016D937D938D9311
:101C30009C931397D00EB2E08B0E911CE4E0EE0E55
:101C4000F11C2D893E89E216F30609F0BFCF3D8DC8
:101C50003B3329F48DEC9CECACE4BDE304C080E0A4
:101C600090E0A0E8BFE38EA79FA7A8ABB9AB1A8E00
:101C7000198EAC2DB0E0BDABACABECA9FDA9298DA4
:101C80003A8D2E173F070CF0D2C11F8E1E8E212CCD
:101C9000312CCE0101969CA38BA3DE011D96BAA325
:101CA000A9A318A3BD8DBDA3412C512C32011C8EBC
:101CB0001B8E28EE33E0AE014D5E5F4F6DA1EF89C4
:101CC000F88D80810E94430D6B897C89072E000C62
:101CD000880B990B0E94CE196B017C01FD8DFB33A3
:101CE00069F42B8D3C8D2230310541F420E030E049
:101CF00040E856E40E9424196B017C01460157011B
:101D0000B7FAB094B7F8B094C301B2010E94CC19ED
:101D10002B013C0120E030E0A901C701B6010E947F
:101D20007E1A18162CF0782D692D9A2D8B2D04C053
:101D30007C2D6D2D9E2D8F2D272F362F492F582F1F
:101D4000C301B2010E9425190E949D192B013C017B
:101D50002EA13FA148A559A5C501B4010E94831A2F
:101D60006B017C012FE632E143E85AE3C501B4017F
:101D70000E94831A2AA53BA54CA55DA50E94831A43
:101D8000ABA1BCA12D913D914D915C910E94251973
:101D90009B01AC01EBA1FCA16193719381939193A1
:101DA000FCA3EBA3C701B601133141F10E94251931
:101DB00020E030E040E05EE30E94831A6B017C018A
:101DC00020E030E0A9010E947E1A20E030E040E0EF
:101DD0005FE387FD05C0C701B6010E94251904C055
:101DE000C701B6010E9424190E9496196E7FA9A10D
:101DF000BAA18D919C91682B792B20C00E94251946
:101E000020E030E040E85EE30E94831A6B017C0131
:101E100020E030E0A9010E947E1A20E030E040E09E
:101E20005FE387FD05C0C701B6010E94251904C004
:101E3000C701B6010E9424190E9496197C8B6B8BF6
:101E4000AE014D5E5F4F68A1EF89F88D80810E94E1
:101E5000530C2B8D3C8D2F5F3F4F3C8F2B8F3DA123
:101E60003E5F3DA388A1800F88A3A9A1BAA11296C5
:101E7000BAA3A9A3EB8DFC8D339709F01ACFF3E633
:101E80002F16310449F429EE421623E0520661046C
:101E9000710410F0212C312CC301B2010E94CC1925
:101EA0002EA53FA548A959A90E94831A20E030E039
:101EB00040EA50E40E94911987FF05C08E8D9F8DE6
:101EC00001969F8F8E8F94E6491651046104710428
:101ED00090F5ABE02A16310474F1EE8DFF8D3A9740
:101EE00054F16AA97BA9898D0E94080C20E030E09A
:101EF00040E45FE36EA17FA188A599A50E94831AA3
:101F00006EA37FA388A799A720E030E040E45FE3B9
:101F10006AA57BA58CA59DA50E94831A6AA77BA7AD
:101F20008CA79DA79E012F5F3F4F7901CE010D9693
:101F30003C01D12E0FC061E070E080E090E00E9493
:101F4000FD0C9FEF291A390AA4E62A16310409F07C
:101F5000A0CEC7CF133151F120E030E040E05EE386
:101F6000F70160817181828193810E94831A4B0104
:101F70005C0120E030E0A9010E947E1A20E030E000
:101F800040E05FE387FD05C0C501B4010E9425194B
:101F900004C0C501B4010E9424190E9496196E7FE5
:101FA000D3018D919C91682B792B23C020E030E0E8
:101FB00040E85EE3F70160817181828193810E9434
:101FC000831A4B015C0120E030E0A9010E947E1AD7
:101FD00020E030E040E05FE387FD05C0C501B401CB
:101FE0000E94251904C0C501B4010E9424190E9451
:101FF00096197C8B6B8BAE014D5E5F4F6D2DAF895B
:10200000B88D8C910E94530CD00EB2E06B0E711CF7
:10201000E4E0EE0EF11C2D893E89E216F30609F08C
:1020200099CF898D9A8D01969A8F898F26CE21E03E
:1020300042E06AE6AF89B88D8C910E94FF0A21E0E8
:1020400043E06AE6EF89F88D80810E94FF0AE596F9
:102050000FB6F894DEBF0FBECDBFDF91CF911F91B9
:102060000F91FF90EF90DF90CF90BF90AF909F9037
:102070008F907F906F905F904F903F902F9008953A
:1020800013E199CD1F920F920FB60F9211242F9347
:102090003F938F939F93AF93BF938091B902909199
:1020A000BA02A091BB02B091BC023091B80223E009
:1020B000230F2D3720F40196A11DB11D05C026E880
:1020C000230F0296A11DB11D2093B8028093B9027F
:1020D0009093BA02A093BB02B093BC028091BD0260
:1020E0009091BE02A091BF02B091C0020196A11DC5
:1020F000B11D8093BD029093BE02A093BF02B09326
:10210000C002BF91AF919F918F913F912F910F90FE
:102110000FBE0F901F901895CF93DF93CDB7DEB70A
:10212000E5970FB6F894DEBF0FBECDBF789484B5A7
:10213000826084BD84B5816084BD85B5826085BDC3
:1021400085B5816085BD80916E00816080936E0051
:102150001092810080918100826080938100809143
:1021600081008160809381008091800081608093F4
:1021700080008091B10084608093B1008091B000B4
:1021800081608093B00080917A00846080937A00AF
:1021900080917A00826080937A0080917A008160D9
:1021A00080937A0080917A00806880937A00109200
:1021B000C10061E08EE00E94B00C61E08DE00E9401
:1021C000B00C64E670E080E090E00E94FD0C60E0FE
:1021D0008DE00E94B00C64E670E080E090E00E9428
:1021E000FD0C61E08DE00E94B00C64E670E080E0E0
:1021F00090E00E94FD0C60E08DE00E94B00C5FE872
:10220000E52E51E0F52E84EB9BE09093B201809394
:10221000B10189ED97E09093B4018093B3018FEB06
:1022200097E09093B6018093B50101E712E0109317
:10223000B8010093B70181EC91E09093B0018093D5
:10224000AF01E091D101F091D20182E08083E09171
:10225000CD01F091CE011082E091CF01F091D0013B
:1022600080E180831092D901E091D501F091D601EF
:1022700086E08083E091D301F091D4018081806178
:102280008083E091D301F091D401808188608083C4
:10229000E091D301F091D401808180688083E09146
:1022A000D301F091D40180818F7D808381E090E023
:1022B0009093BC018093BB011092C0011092BF01AA
:1022C0000E94370D9B01AC0160937B0230937C022E
:1022D00040937D0250937E0210927F021092800202
:1022E00010928102109282020E94370D9B01AC0174
:1022F0006093830230938402409385025093860258
:1023000010928702109288021092890210928A021B
:10231000F0929402E09293028EE592E09093B702DD
:102320008093B602F0928E01E0928D0110938B01A2
:1023300000938A0180E090E00E946B188093710204
:1023400010927302109272021092BC0088B18063E6
:1023500088B91092B9008CE08093B80084E0809333
:10236000BC00E2ECFCE02491EEEAFCE084918823DE
:10237000C9F090E0880F991FFC01E856F34F459192
:102380005491FC01EE55F34FA591B4919FB7F89489
:10239000FA0180812095822380838C91E22FE823AB
:1023A000EC939FBF01E023E042E06BE680915E0288
:1023B0000E94320B00E022E044E06BE180915E027B
:1023C0000E94320B22E044E06CE180915E020E94A8
:1023D000320B20E046E06BE680915E020E94FF0A2D
:1023E00064EF71E080E090E00E94FD0C11E01D8F31
:1023F00021E047E06BE680915E020E94FF0A64E6FE
:1024000070E080E090E00E94FD0C87E08D8F07E097
:1024100023E042E06AE680915E020E94320B64E6AD
:1024200070E080E090E00E94FD0C1D8F9E01235E15
:102430003F4F41E06BE680915E020E94830A1D8E51
:102440009E01235E3F4F41E068E380915E020E945F
:10245000830A1D8E9E01235E3F4F41E063E280911F
:102460005E020E94830A1D8E9E01235E3F4F41E063
:102470006CE180915E020E94830A80E88D8F9E014C
:10248000235E3F4F41E067E380915E020E94830A32
:102490001D8F9E01235E3F4F41E06BE680915E02FF
:1024A0000E94830A84E08D8F9E01235E3F4F41E0AE
:1024B00069E180915E020E94830A1D8F9E01235E66
:1024C0003F4F41E06AE180915E020E94830A40E052
:1024D0006DE680915E020E94A70A40E06EE6809160
:1024E0005E020E94A70A80E190E00E94F01A5C015F
:1024F00080E190E00E94F01A782EC92E212C312C18
:10250000E12CF12C412C55245394682E9E8FC70149
:102510004096873F9B4020F026EFD22EDE1802C067
:1025200090E1D92E8D2D90E09201231931092817C1
:10253000390714F4D32CD194A72DBC2D80E090E062
:102540008D1548F4FC01EE0DFF1DEE55FF4FE49193
:10255000ED930196F5CF272D3C2D4D2D6FE6809103
:102560005E020E94830A8D2C912CA114B10409F4FF
:102570008AC0422D4F716DE680915E020E94A70ACB
:10258000432D6EE680915E020E94A70A08EE13E0DA
:1025900095014D2D6FE680915E020E94B70AA4015D
:1025A000B501872D9C2D0E94161C892B09F46BC048
:1025B00084E391E00E946D0C622D70E080E090E079
:1025C0004AE00E946F0C8AE591E00E946D0C632D39
:1025D00070E080E090E04AE00E946F0C85E691E0B8
:1025E0000E946D0C062D1E8D802F86198D15C0F44E
:1025F00081E791E00E946D0C4801D8018C918031F7
:1026000020F485E791E00E946D0C0F5F1F4FF401ED
:10261000608170E080E090E040E10E946F0CE4CFC8
:1026200087E791E00E946D0CEA0CFB1C912CD914F9
:10263000D1F081E791E00E946D0C8701D7018C9168
:10264000803120F485E791E00E946D0CBFEFEB1A1A
:10265000FB0AF801608170E080E090E040E10E94B8
:102660006F0C9394E4CF82E891E00E946D0CC50159
:102670000E94881B872D9C2D0E94881B109273023C
:10268000109272028CC0E80CF91C3D0CF6EFEF16AC
:10269000FBE0FF0688F4311001C02394422D4F71F6
:1026A0006DE680915E020E94A70A432D6EE680913E
:1026B0005E020E94A70A2BCFC5010E94881B872DAE
:1026C0009C2D0E94881B80E094E09A838983AE0150
:1026D0004F5F5F4F60E780915E020E94530C88E17C
:1026E0008D8F9E01235E3F4F41E06BE180915E0242
:1026F0000E94830A80EC8D8F9E01235E3F4F41E054
:102700006AE680915E020E94830A82E08D8F9E01BC
:10271000235E3F4F41E068E380915E020E94830A9E
:1027200021E042E06AE680915E020E94FF0A20E01A
:1027300047E06AE680915E020E94FF0A8CE190E029
:102740009093700280936F0290937A028093790243
:1027500021E047E067E380915E020E94FF0A20E0EB
:1027600045E067E380915E020E94FF0A21E047E0B6
:102770006AE680915E020E94FF0A80EC97E09093E7
:10278000010180930001809169008360809369005A
:10279000E89A81E090E09093730280937202222481
:1027A0002394312C80918C01882309F49EC01092CF
:1027B0008C01E0908A01F0908B01570125E4A20E74
:1027C000B11CD501CD90DC9096012F5F3F4F08EEF4
:1027D00013E042E062E7F60180810E94B70AD60169
:1027E00011968D919C9112979827892798274C973D
:1027F0000CF47BC061E08DE00E94B00CF701868D87
:10280000978DA0A1B1A10196A11DB11D868F978FB3
:10281000A0A3B1A34085442359F0D501ED91FC91CB
:102820009E012F5F3F4F64E780810E94B70A01C07D
:102830001982AD80BE80BA24AB24BA24C984DA845C
:10284000DC24CD24DC240D851E85102701271027CC
:1028500069817A81762767277627072E000C880BF7
:10286000990B0E94CE1920E030E040E858E30E9426
:10287000831AF70164A375A386A397A3B501BB0CC4
:10288000880B990B0E94CE1920E030E040E858E315
:102890000E94831AD70198966D937D938D939C9394
:1028A0009B97B601DD0C880B990B0E94CE1920E096
:1028B00030E040E858E30E94831AF70164A775A747
:1028C00086A797A7B801110F880B990B0E94CE1904
:1028D00020E030E040E858E30E94831AD701D09608
:1028E0006D937D938D939C93D39780917202909179
:1028F0007302019709F0B5C28091770280FFB1C2DF
:102900000E94370D4B015C019B01A50160E070E066
:1029100080E090E0A0908302B0908402C090850295
:10292000D0908602E0908702F090880200918902A0
:1029300010918A020E94FE18E52EF62E072FF82F1E
:10294000E92F6091780270E088EE93E00E94E4182D
:102950005B011B2D110F110B5E2D6F2D702F8F2F13
:102960009E2FC12ED12EE12EF12E012F0E9407198C
:1029700009F008F476C20E94370D8B019C01609328
:102980008302109384022093850230938602109272
:102990008702109288021092890210928A02809116
:1029A000760281FF56C04091A1025091A20260912F
:1029B000A3027091A402705800919D0210919E0292
:1029C00020919F023091A0023058C0909902D0907F
:1029D0009A02E0909B02F0909C02F7FAF094F7F8CC
:1029E000F0948090950290909602A0909702B090FB
:1029F00098028092A5029092A602A092A702B0929D
:102A0000A802C092A902D092AA02E092AB02F09270
:102A1000AC020093AD021093AE022093AF0230934C
:102A2000B0024093B1025093B2026093B30270932C
:102A3000B4028D7F84608093760224E031E04DE023
:102A400050E06DE070E080919302909194020E94BA
:102A5000800B1091760212FF68C18091A5029091BF
:102A6000A602A091A702B091A8028E8F9F8FA8A363
:102A7000B9A38091A9029091AA02A091AB02B09152
:102A8000AC028AA39BA3ACA3BDA38091AD0290919D
:102A9000AE02A091AF02B091B0028EA39FA3A8A7EF
:102AA000B9A7C090B102D090B202E090B302F0900A
:102AB000B4028090950290909602A0909702B090F8
:102AC00098028091990290919A02A0919B02B091F4
:102AD0009C028AA79BA7ACA7BDA780919D0290915D
:102AE0009E02A0919F02B091A0028EA79FA7A8ABC3
:102AF000B9AB8091A1029091A202A091A302B091E2
:102B0000A4028AAB9BABACABBDABA50194016E8DAF
:102B10007F8D88A199A10E94831A2B013C012AA5CF
:102B20003BA54CA55DA56AA17BA18CA19DA10E949E
:102B3000831A9B01AC01C301B2010E9424192B012D
:102B40003C012EA53FA548A959A96EA17FA188A542
:102B500099A50E94831A9B01AC01C301B2010E9496
:102B600024192B013C012AA93BA94CA95DA9C70145
:102B7000B6010E94831A9B01AC01C301B2010E94FD
:102B80002419609395027093960280939702909314
:102B90009802A50194016AA17BA18CA19DA10E942C
:102BA000831A2B013C012AA53BA54CA55DA56E8D82
:102BB0007F8D88A199A10E94831A9B01AC01C3015A
:102BC000B2010E9425192B013C012EA53FA548A961
:102BD00059A9C701B6010E94831A9B01AC01C30128
:102BE000B2010E9425192B013C012AA93BA94CA93D
:102BF0005DA96EA17FA188A599A50E94831A9B015A
:102C0000AC01C301B2010E94241960939902709330
:102C10009A0280939B0290939C02A50194016EA15D
:102C20007FA188A599A50E94831A2B013C012AA5A2
:102C30003BA54CA55DA5C701B6010E94831A9B0167
:102C4000AC01C301B2010E9424192B013C012EA545
:102C50003FA548A959A96E8D7F8D88A199A10E9491
:102C6000831A9B01AC01C301B2010E9425192B01FB
:102C70003C012AA93BA94CA95DA96AA17BA18CA111
:102C80009DA10E94831A9B01AC01C301B2010E9465
:102C9000251960939D0270939E0280939F029093EA
:102CA000A002A5019401C701B6010E94831A6B011D
:102CB0007C012AA53BA54CA55DA56EA17FA188A599
:102CC00099A50E94831A9B01AC01C701B6010E941D
:102CD00025196B017C012EA53FA548A959A96AA118
:102CE0007BA18CA19DA10E94831A9B01AC01C7010D
:102CF000B6010E9424196B017C012AA93BA94CA9A9
:102D00005DA96E8D7F8D88A199A10E94831A9B0178
:102D1000AC01C701B6010E9425196093A10270930E
:102D2000A2028093A3029093A40213FF11C080918A
:102D3000990290919A02A0919B02B0919C02B05886
:102D40008093990290939A02A0939B02B0939C0265
:102D500014FF11C080919D0290919E02A0919F024C
:102D6000B091A002B05880939D0290939E02A093D0
:102D70009F02B093A00215FF11C08091A102909113
:102D8000A202A091A302B091A402B0588093A10224
:102D90009093A202A093A302B093A4028091770221
:102DA00000918D0110918E0181FF09C020918A014F
:102DB00030918B012C5D3F4F42E050E04DC020E050
:102DC00030E040E856E4609195027091960280915F
:102DD0009702909198020E94831A0E9496197A8312
:102DE000698320E030E040E856E4609199027091F8
:102DF0009A0280919B0290919C020E94831A0E94E9
:102E000096197C836B8320E030E040E856E46091C3
:102E10009D0270919E0280919F029091A0020E945B
:102E2000831A0E9496197E836D8320E030E040E88B
:102E300056E46091A1027091A2028091A302909148
:102E4000A4020E94831A0E94961978876F839E01BC
:102E50002F5F3F4F43E050E06CE070E0C8010E94FC
:102E6000800B8091AF019091B001DC01ED91FC915C
:102E70000084F185E02D09957C01892B09F4EFC0D0
:102E800000E010E00E151F050CF0E9C08091AF01C5
:102E90009091B001DC01ED91FC910284F385E02D6D
:102EA00009958F3F09F4DBC02091BB013091BC0133
:102EB00023303105A1F138F42130310561F02230A1
:102EC000310599F0C9C024303105E1F125303105D3
:102ED00009F44BC0C1C0833209F0BEC0E2E0F0E0AB
:102EE000F093BC01E093BB010CC02091BF01309175
:102EF000C0012330310554F4833209F0A5C02F5F9F
:102F00003F4F3093C0012093BF01A6C0233031054D
:102F100009F09AC03093BC012093BB0199C09FEF88
:102F2000980F9F3008F090C0082E000C990B9093DA
:102F3000BE018093BD0184E090E09093BC0180933A
:102F4000BB018AC095EF980F953008F07DC0082E20
:102F5000000C990B9093BA018093B901A5E0B0E001
:102F6000B093BC01A093BB0177C02091BF01309109
:102F7000C0016091BD017091BE01FB01E15FFE4F98
:102F8000408150E041505109F901E157FE4F2417AB
:102F9000350744F42F5F3F4F3093C0012093BF01AA
:102FA00080835AC080838091B9019091BA018C309E
:102FB000910599F18D309105D1F00B9709F044C03E
:102FC000E091B101F091B2014FE851E08091B70179
:102FD0009091B80109954091BD015091BE019C01AD
:102FE0006EE070E08FE891E00E94800B2DC02FE82A
:102FF00031E0AB016FE070E0C9010E94800B60918D
:10300000BD017091BE01E091B501F091B6018091D2
:10301000B7019091B801099517C02FE831E0AB01D5
:103020006FE070E0C9010E94800B6091BD0170915A
:10303000BE01E091B301F091B4014FE851E08091FD
:10304000B7019091B80109953092BC012092BB0163
:103050001092C0011092BF010F5F1F4F13CF0E944B
:10306000A607A0CBE1ECF1E01382128288EE93E098
:10307000A0E0B0E084839583A683B78386E291E0E5
:103080009183808385EC90E09587848784EC90E041
:103090009787868780EC90E0918B808B81EC90E025
:1030A000938B828B82EC90E0958B848B86EC90E006
:1030B000978B868B118E128E138E148EE1E7F2E0C1
:1030C000108280E190E0918780871092B50288E6B7
:1030D00080935E020895F999FECF92BD81BDF89A62
:1030E000992780B50895262FF999FECF1FBA92BD72
:1030F00081BD20BD0FB6F894FA9AF99A0FBE0196D9
:103100000895052E97FB1EF400940E94981857FD11
:1031100007D00E94B31807FC03D04EF40C94981803
:1031200050954095309521953F4F4F4F5F4F0895F3
:1031300090958095709561957F4F8F4F9F4F089523
:103140000E94D518A59F900DB49F900DA49F800D4F
:10315000911D11240895B7FF0C94A0180E94A01887
:10316000821B930B0895A1E21A2EAA1BBB1BFD0123
:103170000DC0AA1FBB1FEE1FFF1FA217B307E40756
:10318000F50720F0A21BB30BE40BF50B661F771FAE
:10319000881F991F1A9469F760957095809590958E
:1031A0009B01AC01BD01CF010895A29FB001B39F67
:1031B000C001A39F700D811D1124911DB29F700D40
:1031C000811D1124911D089597FB072E16F400947C
:1031D00007D077FD09D00E94101907FC05D03EF4F6
:1031E000909581959F4F0895709561957F4F0895B3
:1031F000EE0FFF1F0590F491E02D09942A193B0969
:103200004C095D096E097F09800B910B08952A1501
:103210003B054C055D056E057F0580079107089508
:10322000AA1BBB1B51E107C0AA1FBB1FA617B707EC
:1032300010F0A61BB70B881F991F5A95A9F7809508
:103240009095BC01CD0108955058BB27AA270E9434
:103250003C190C94441A0E94361A38F00E943D1A08
:1032600020F039F49F3F19F426F40C94331A0EF42D
:10327000E095E7FB0C942D1AE92F0E94551A58F39C
:10328000BA17620773078407950720F079F4A6F54B
:103290000C94771A0EF4E0950B2EBA2FA02D0B018B
:1032A000B90190010C01CA01A0011124FF27591B8B
:1032B00099F0593F50F4503E68F11A16F040A22F91
:1032C000232F342F4427585FF3CF46953795279502
:1032D000A795F0405395C9F77EF41F16BA0B620B01
:1032E000730B840BBAF09150A1F0FF0FBB1F661F48
:1032F000771F881FC2F70EC0BA0F621F731F841F8B
:1033000048F4879577956795B795F7959E3F08F0B0
:10331000B0CF9395880F08F09927EE0F9795879572
:1033200008950E94091A08F481E008950E949D19E9
:103330006894B1110C94781A08950E945D1A88F06F
:103340009F5798F0B92F9927B751B0F0E1F0660F69
:10335000771F881F991F1AF0BA95C9F714C0B130AA
:1033600091F00E94771AB1E008950C94771A672FB4
:10337000782F8827B85F39F0B93FCCF386957795D9
:103380006795B395D9F73EF49095809570956195C2
:103390007F4F8F4F9F4F0895E89409C097FB3EF4ED
:1033A00090958095709561957F4F8F4F9F4F992392
:1033B000A9F0F92F96E9BB279395F6958795779510
:1033C0006795B795F111F8CFFAF4BB0F11F460FFD0
:1033D0001BC06F5F7F4F8F4F9F4F16C0882311F028
:1033E00096E911C0772321F09EE8872F762F05C03C
:1033F000662371F096E8862F70E060E02AF09A95D7
:10340000660F771F881FDAF7880F9695879597F9CB
:103410000895990F0008550FAA0BE0E8FEEF161665
:103420001706E807F907C0F012161306E407F507B8
:1034300098F0621B730B840B950B39F40A2661F02C
:10344000232B242B252B21F408950A2609F4A140CF
:10345000A6958FEF811D811D089597F99F6780E8DC
:1034600070E060E008959FEF80EC089500240A94D6
:103470001616170618060906089500240A9412164F
:103480001306140605060895092E0394000C11F482
:10349000882352F0BB0F40F4BF2B11F460FF04C02F
:1034A0006F5F7F4F8F4F9F4F089557FD9058440F88
:1034B000551F59F05F3F71F04795880F97FB991F93
:1034C00061F09F3F79F08795089512161306140650
:1034D000551FF2CF4695F1DF08C0161617061806DD
:1034E000991FF1CF86957105610508940895E894B8
:1034F000BB2766277727CB0197F908950E94091A01
:1035000008F48FEF08950E94961A0C94441A0E94B2
:10351000361A38F00E943D1A20F0952311F00C94D1
:103520002D1A0C94331A11240C94781A0E94551AEF
:1035300070F3959FC1F3950F50E0551F629FF00106
:10354000729FBB27F00DB11D639FAA27F00DB11D1F
:10355000AA1F649F6627B00DA11D661F829F2227A8
:10356000B00DA11D621F739FB00DA11D621F839F2F
:10357000A00D611D221F749F3327A00D611D231F05
:10358000849F600D211D822F762F6A2F11249F5753
:1035900050409AF0F1F088234AF0EE0FFF1FBB1F56
:1035A000661F771F881F91505040A9F79E3F510515
:1035B00080F00C942D1A0C94781A5F3FE4F3983E37
:1035C000D4F3869577956795B795F795E7959F5FBF
:1035D000C1F7FE2B880F911D9695879597F9089551
:1035E0000F931F93CF93DF938230910510F482E005
:1035F00090E0E091C302F091C40220E030E0A0E04E
:10360000B0E0309719F14081518102811381481750
:103610005907C8F08417950769F4109731F012968E
:103620000C93129713961C9327C00093C302109318
:10363000C40222C02115310519F04217530718F4AE
:103640009A01BD01EF01DF01F801DBCF2115310542
:10365000F9F0281B390B2430310580F48A819B81D5
:103660006115710521F0FB019383828304C090935F
:10367000C4028093C302FE01329644C0FE01E20FF1
:10368000F31F8193919322503109398328833AC0E3
:103690002091C1023091C202232B41F420910B01F1
:1036A00030910C013093C2022093C1022091090194
:1036B00030910A012115310541F42DB73EB74091F3
:1036C0000D0150910E01241B350BE091C102F091C8
:1036D000C202E217F307A0F42E1B3F0B281739078D
:1036E00078F0AC014E5F5F4F2417350748F04E0F5E
:1036F0005F1F5093C2024093C1028193919302C015
:10370000E0E0F0E0CF01DF91CF911F910F9108959C
:10371000CF93DF93009709F481C0FC0132971382A5
:103720001282A091C302B091C402109781F420814B
:103730003181820F931F2091C1023091C20228175C
:10374000390751F5F093C202E093C10267C0ED0161
:1037500020E030E0CE17DF0740F44A815B819E0114
:1037600041155105F1F0EA01F5CFD383C2834081C1
:103770005181840F951FC817D90759F48881998101
:10378000840F951F0296918380838A819B81938306
:1037900082832115310529F4F093C402E093C3021A
:1037A0003DC0E901FB83EA8349915991C40FD51FBC
:1037B000EC17FD0761F480819181840F951F0296BB
:1037C000E90199838883828193819B838A83E0E0E6
:1037D000F0E012968D919C911397009719F0FD01DE
:1037E000DC01F7CF8D919C9111979D012E5F3F4F8A
:1037F000820F931F2091C1023091C202281739070E
:1038000069F4309729F41092C4021092C30202C0E6
:1038100013821282B093C202A093C102DF91CF91B2
:10382000089581E090E0F8940C94231CFB01DC01E6
:1038300004C08D910190801921F441505040C8F787
:0A384000881B990B0895F894FFCF40
:10384A009F069F0600010002010000C50220000039
:10385A00011008010101010103050101010801002C
:10386A00E803000000003707A006CE068407FF061B
:10387A00DD06F106426C6F636B207772697465200E
:10388A00766572696669636174696F6E20657272C2
:10389A006F722C2062616E6B20002C20616464724E
:1038AA006573732000210A45787065637465643A0C
:1038BA00002030780030000A5265636569766564D5
:0A38CA003A000A0068656C6C6F009C
:00000001FF
