:100000000C9442040C947D070C9456070C946A04DB
:100010000C946A040C946A040C946A040C946A04A8
:100020000C946A040C946A040C946A040C946A0498
:100030000C946A040C946A040C946A040C946A0488
:100040000C9419160C946A040C94CA070C94A40717
:100050000C946A040C946A040C946A040C946A0468
:100060000C946A040C946A041F061406AD06CC05B1
:10007000AD06D005AD06AD06AD06AD06AD06D8059C
:10008000E005AD063E06FC0E7A0A310E3E0A400A35
:10009000590A4E0A430A340E3B0A630A310E310EE6
:1000A000780A310E820AEA0AFB00003E000B003695
:1000B000000100020003000000650054FFEF000093
:1000C000FA80000B12820001000200000000000014
:1000D000000000000000000000280000FFFF458134
:1000E000FFFFFA7200000000000003E800000001BA
:1000F00000017FFFFFFE8001001B000000000000E8
:10010000000000000000000000400000400000006F
:1001100002CB47A2200000002000000000000000E9
:10012000400000006000000041FF000000000B2ABA
:100130000000165500002182FD872650FD8000003A
:10014000001F00000005800000000000000100000A
:100150000002000000030000400000000000046FE7
:100160000002653200005EC0400000000000000098
:100170000000000000000000FB8C6F5DFD5D08D9F1
:10018000007C733B006C12CC3200139D3200D0D641
:1001900032000800400001F4FFE680790200000010
:1001A0000000D0D600002710FB0000004000000037
:1001B000000000000000000000000001000000003E
:1001C00000000100010000000000FA36FFBC308E84
:1001D0000005FBF0FFD95BC8FFD09ABE000010A954
:1001E000FFF41EB200CEBBF70000000100000004C7
:1001F000000200020200000CFFC28000000180002B
:1002000000CF80004000000000000000000000005F
:1002100000000600000000140000000000000000C4
:1002200000000000000000000000000000000000CE
:1002300000000000000000000923A13500000000BC
:10024000000000000000000000000000033F68B64E
:10025000793528BCC67ED16C8000FFFF40000000CD
:100260000000B26A00000000000000000000000072
:1002700000003FF00000003000000000000000001F
:10028000000000000000000000000000000000006E
:1002900000000000000040000000254D002F706DA0
:1002A000000005AE000C02D0000000000065005404
:1002B000FFEF00000000000000000100004400010A
:1002C00000058BC100000100000000000065000077
:1002D00000540000FFEF00000000000000000000DC
:1002E000000000000000000000000000000000000E
:1002F00000000000000000000000000000000000FE
:1003000000000000000000000000000100000002EA
:1003100000000000000000000000000000000000DD
:1003200000000000000000000000000000000000CD
:100330000000000000000000001B000000000000A2
:1003400000000000000000000000000000000000AD
:10035000000000000000000000000000000000009D
:100360000000000000000000001B00000000000072
:10037000000000000000000000000000000000007D
:10038000000000000000000000000000000000006D
:10039000000000000000000000000000000000005D
:1003A0000000000000000000D8DCBAA2F1DEB2B804
:1003B000B4A88191F74A907F916AF3F9DBA8F9B06C
:1003C000BAA080F2CE81F3C2F1C1F2C3F3CCA2B2E3
:1003D00080F1C6D880BAA7DFDFDFF2A7C3CBC5B6EE
:1003E000F087A2942448703C95406834589B78A2CA
:1003F000F183922D557DD8B1B4B8A1D09180F2701F
:10040000F370F27C80A8F101B09887D943D886C9EF
:1004100088BAA1F20EB89780F1A9DFDFDFAADFDF8B
:10042000DFF2AA4CCD6CA90CC92C97979797F1A92C
:1004300089264666B0B4BA80ACDEF2CAF1B28C024C
:10044000A9B69800890E161EB8A9B4992C547CB090
:100450008AA896365676F1B9AFB4B083C0B8A897DB
:1004600011B18F98B9AFF0240844106418F1A32992
:10047000557DAF83B593AFF0002850F1A3869F61FF
:10048000A6DADEDFD9FAA38696DB31A6D9F8DFBA81
:10049000A68FC2C5C7B28CC1B8A2DFDFDFA3DFDF82
:1004A000DFD8D8F1B8A8B286B4980D355DB8AA984F
:1004B000B0872D353DB2B6BAAF8C96198F9FA70E77
:1004C000161EB49AB8AA872C547CB9A3DEDFDFA32A
:1004D000B180F2C4CDC9F1B8A9B499830D355D8955
:1004E000B9A32D557DB593A30E161EA92C547CB827
:1004F000B4B0F19783A81184A50998A383F0DA24F6
:100500000844106418D8F1A529557DA58595021ACF
:100510002E3A565A4048F9F3A3D9F8F098832408A4
:10052000441064189782A8F111F098A2240844108E
:100530006418DAF3DED883A59401D9A302F1A2C32B
:10054000C5C7D8F18492A24DDA2AD84869D92AD8E9
:100550006855DA32D85071D932D8705DDA3AD85845
:1005600079D93AD87893A34DDA2AD84869D92AD8C4
:100570006855DA32D85071D932D8705DDA3AD85825
:1005800079D93AD878A88A9AF02850789EF38818B2
:10059000F19F1D98A8D908D8C89F129EF315A8DA14
:1005A0001210D8F1AFC8978734B5B994A421F3D904
:1005B00022D8F22DF3D92AD8F235F3D932D881A432
:1005C000606061D961D86C6869D969D8747071D973
:1005D00071D8B1A384193D5DA3831A3E5E93103098
:1005E000811011B8B0AF8F94F2DA3ED8B49AA887D0
:1005F00029DAF8D8879A35DAF8D8879A3DDAF8D820
:10060000B1B9A49885022E56A581000C14A397B009
:100610008AF12DD928D84DD948D86DD968D8B18458
:100620000DDA0ED8A32983DA2C0ED8A3844983DAF5
:100630002C4C0ED8B8B0A88A9AF520AADADFD8A830
:1006400040AAD0DADED8A860AADAD0DFD8F197863F
:10065000A8319B069907AB9728889BF00C20144083
:10066000B8B0B4A88C9CF0042851791D301438B26D
:1006700082ABD0982C505078789BF11AB0F08A9CBD
:10068000A82951798B2951798A2470598B20587166
:100690008A4469388B3940688A6448318B304960B4
:1006A000A588200971584468113964493019F1ACA2
:1006B000002C547CF08CA804285078F1889726A848
:1006C0005998AC8C02264666F0899CA82951792459
:1006D0007059446938644831A98809205970AB11B0
:1006E000384069A8193148608CA83C415C207C00E6
:1006F000F187981986A86E767EA999882D557D9EDA
:10070000B9A38A228A6E8A568A5E9FB183062646DC
:10071000660E2E4E6E9DB8AD002C547CF2B18CB49A
:1007200099B9A32D557D8191AC38AD3AB58391AC83
:100730002DD928D84DD948D86DD968D88C9DAE29E7
:10074000D904AED851D904AED879D904D881F39D53
:10075000AD008DAE1981ADD901D8F2AEDA26D88EB2
:10076000912983A7D9ADADADADF32AD8D8F1B0ACFE
:1007700089913E5E76F3AC2E2EF1B18C5A9CAC2C56
:100780002828289CAC3018A8988128343C9724A7A6
:1007900028343C9C24F2B089AC912C4C6C8A9B2D63
:1007A000D9D8D851D9D8D879D9D8D8F19E88A331F9
:1007B000DAD8D8912DD928D84DD948D86DD968D84C
:1007C000B18393353D8025DAD8D88569DAD8D8B495
:1007D0009381A328343CF3AB8BF8A391B609B4D929
:1007E000ABDEFAB0879CB9A3DDF1202830389AF14E
:1007F0002830389DF1A3A3A3A3F2A3B49080F2A361
:10080000A3A3A3A3A3A3A3A3A3B2A3A3A3A3A3A3A9
:10081000B087B599F128303898F1A3A3A3A397A383
:10082000A3A3A3F39BA330DCB9A7F1262626FED809
:10083000FF00000000240027002A0000000000251F
:100840000028002B0004040404040404040202022F
:100850000202020303030303030102040810204001
:10086000800102040810200102040810200000008A
:10087000080002010000030407000000000000005F
:100880000000FC1B11241FBECFEFD8E0DEBFCDBFA0
:1008900011E0A0E0B1E0E8E7F1E402C005900D92BC
:1008A000AC38B107D9F723E0ACE8B1E001C01D9244
:1008B000A333B207E1F714E0C2E4D4E004C0219707
:1008C000FE010E94C21CC134D107C9F70E94631601
:1008D0000C94BA200C9400000895CF92DF92EF920E
:1008E000FF920F931F93CF93DF936C017A018B01DB
:1008F000C0E0D0E0CE15DF0581F0D8016D918D010B
:10090000D601ED91FC910190F081E02DC601099591
:10091000892B11F02196EECF7E01C701DF91CF9197
:100920001F910F91FF90EF90DF90CF900895089561
:1009300080E090E00895FC01538D448D252F30E038
:10094000842F90E0821B930B541710F0CF960895DC
:1009500001970895FC01918D828D981761F0828D29
:10096000DF01A80FB11D5D968C91928D9F5F9F73E3
:10097000928F90E008958FEF9FEF0895FC01918D85
:10098000828D981731F0828DE80FF11D858D90E0F2
:1009900008958FEF9FEF0895FC01918D228D892F8F
:1009A00090E0805C9F4F821B91098F739927089577
:1009B00081EC91E00E94CC0421E0892B09F420E035
:1009C000822F0895FC01848DDF01A80FB11DA35A69
:1009D000BF4F2C91848D90E001968F739927848F5F
:1009E000A689B7892C93A089B1898C918370806482
:1009F0008C93938D848D981306C00288F389E02D23
:100A000080818F7D80830895EF92FF920F931F93D3
:100A1000CF93DF93EC0181E0888F9B8D8C8D9813B1
:100A200005C0E889F989808185FD26C0F62E0B8DE9
:100A300010E00F5F1F4F0F731127E02E8C8DE8120F
:100A40000CC00FB607FCFACFE889F989808185FFD1
:100A5000F5CFCE010E94E204F1CF8B8DFE01E80FAD
:100A6000F11DE35AFF4FF0829FB7F8940B8FEA898C
:100A7000FB89808180620AC09FB7F894EE89FF8964
:100A80006083E889F98980818370806480839FBF57
:100A900081E090E0DF91CF911F910F91FF90EF9057
:100AA0000895CF93DF93EC01888D8823C9F0EA89FC
:100AB000FB89808185FD05C0A889B9898C9186FD57
:100AC0000FC00FB607FCF5CF808185FFF2CFA88954
:100AD000B9898C9185FFEDCFCE010E94E204E7CF6A
:100AE000DF91CF91089580E090E0892B29F00E945A
:100AF000D80481110C94000008952AEF30E0809111
:100B0000BC0087FD03C021503109C8F781E01216EF
:100B100013060CF080E008950895E0918C01F091A7
:100B20008D01828D938DA48DB58D0196A11DB11D72
:100B3000828F938FA48FB58F81819281019719F451
:100B400081E080938E0108950E94A8202F923F9209
:100B50004F925F926F927F928F929F92AF92BF92CD
:100B6000CF92DF92EF92FF920F931F93CF93DF9379
:100B7000CDB7DEB727970FB6F894DEBF0FBECDBF57
:100B80004C01DA01FB013197EF30F10508F0E5C0C7
:100B9000EC5CFF4F0C94C21C8C91F4018783DDC088
:100BA0009C91F40186819111D6C08E7FF401D4C04E
:100BB000FC018581982F977C8C918873892B3DC08F
:100BC000FC0140A951A962A973A9705884A595A5F3
:100BD000A6A5B7A5B05840A451A462A473A477FAFF
:100BE000709477F870941401F4E82F0E311CF4011E
:100BF00004A115A126A137A1F1010083118322834D
:100C00003383349640825182628273823496808329
:100C10009183A283B383C40180579F4FFC0140831B
:100C200051836283738399C09C91F40185819923D8
:100C300011F0886002C0877FF40185838EC06C91BB
:100C4000FC01608380E090E027960FB6F894DEBF49
:100C50000FBECDBFDF91CF911F910F91FF90EF900D
:100C6000DF90CF90BF90AF909F908F907F906F90CC
:100C70005F904F903F902F900C943D1C9F838E83EC
:100C8000DC90FC0182A093A0ED54FF4F20803180C6
:100C9000EE81FF81868181708D838D2D90E0A0E0B3
:100CA000B0E09C01AD012150310941095109ACEE80
:100CB000BFEF0E94781C24E030E040E050E00E944A
:100CC0004B1C80E590E0A0E0B0E0BC01CD01621BD0
:100CD000730B840B950B0E940A1E2AE037ED43E24A
:100CE0005CE30E94BF1E2B013C012AE939E949E976
:100CF0005EE30E94BF1E69837A838B839C8320E01E
:100D000030E044EB52E4C301B2010E94BF1E540123
:100D1000CD2C7B018C0129813A814B815C8163E47C
:100D2000C1010E94611320E030E040EA51E4C301B8
:100D3000B2010E94BF1E7B018C0129813A814B8147
:100D40005C816BE3C1010E946113FD81FF2329F0E7
:100D5000EE81FF8186818160868327960FB6F894A5
:100D6000DEBF0FBECDBFDF91CF911F910F91FF90DE
:100D7000EF90DF90CF90BF90AF909F908F907F903B
:100D80006F905F904F903F902F9008954F925F9299
:100D90006F927F928F929F92AF92BF92CF92DF928B
:100DA000EF92FF92CF93DF9300D000D000D0CDB769
:100DB000DEB79E838D83DC014D905D906D907C90BD
:100DC000139714968D909D90AD90BC9017971896A0
:100DD0008D919D910D90BC91A02D89839A83AB83B9
:100DE000BC83A3019201C301B2010E94BF1E6B012B
:100DF0007C01A5019401C501B4010E94BF1E9B01A5
:100E0000AC01C701B6010E94EF1C6B017C01298176
:100E10003A814B815C81CA01B9010E94BF1E9B01CE
:100E2000AC01C701B6010E94EF1C0E94321F6B018A
:100E30007C019B01AC01C301B2010E94601DED81E8
:100E4000FE816083718382839383A7019601C5012C
:100E5000B4010E94601DAD81BE8114966D937D9397
:100E60008D939C931797A701960169817A818B8155
:100E70009C810E94601DED81FE8160877187828761
:100E8000938726960FB6F894DEBF0FBECDBFDF91D5
:100E9000CF91FF90EF90DF90CF90BF90AF909F9059
:100EA0008F907F906F905F904F9008951F920F9258
:100EB0000FB60F9211242F933F934F935F936F932D
:100EC0007F938F939F93AF93BF93EF93FF93E091A3
:100ED0000701F09108010995FF91EF91BF91AF9142
:100EE0009F918F917F916F915F914F913F912F9142
:100EF0000F900FBE0F901F9018951F920F920FB674
:100F00000F9211242F933F934F935F936F937F938F
:100F10008F939F93AF93BF93EF93FF93E09105015E
:100F2000F09106010995FF91EF91BF91AF919F91CB
:100F30008F917F916F915F914F913F912F910F9082
:100F40000FBE0F901F9018951F920F920FB60F9221
:100F500011242F933F934F935F936F937F938F93BE
:100F60009F93AF93BF93EF93FF9381EC91E00E9427
:100F7000E204FF91EF91BF91AF919F918F917F918B
:100F80006F915F914F913F912F910F900FBE0F90F6
:100F90001F9018951F920F920FB60F9211242F9346
:100FA0008F939F93EF93FF93E091D101F091D20142
:100FB0008081E091D701F091D80182FD12C090812B
:100FC0008091DA018F5F8F732091DB01821751F0DE
:100FD000E091DA01F0E0EF53FE4F958F8093DA0154
:100FE00001C08081FF91EF919F918F912F910F9080
:100FF0000FBE0F901F90189584E98093BC000E944B
:101000007D0591E089270895AF92BF92CF92DF923C
:10101000EF92FF920F931F93CF93DF93D82FF62E6B
:10102000042FD52EC22F13E044EBE42E8E7FC82E62
:1010300054E8B52EE092BC000E947D058823B9F0EB
:101040008091B900887F883011F0803191F4C0928E
:10105000BB00B092BC000E947D05882361F08091A6
:10106000B900887F803249F4115021F708C080E12F
:1010700078C081E176C082E174C0883111F083E1EB
:1010800070C0F092BB0084E88093BC000E947D0594
:10109000882341F18091B900887F883229F513E0D7
:1010A00024EBF22ED16034E8E32EF092BC000E94D3
:1010B0007D058823D9F08091B900887F883011F0B0
:1010C0008031B1F4D093BB00E092BC000E947D055A
:1010D000882381F09091B900987F983479F4115069
:1010E00021F70AC084E13DC085E13BC086E139C0FB
:1010F00087E137C088E135C089E133C09034E1F73A
:10110000E02EFD2CD0E000E010E06E01E1E0CE1A10
:10111000D10884ECB82E94E8A92E0C171D07E1F035
:101120000C151D0519F4A092BC0002C0B092BC00C1
:101130000E947D058823A1F08091B900982F907FAF
:10114000903511F0887F0DC08091BB00F70181932D
:101150007F010F5F1F4FE1CF0E94FC0780E001C0BD
:101160008AE1DF91CF911F910F91FF90EF90DF9077
:10117000CF90BF90AF9008958093BB0084E8809398
:10118000BC000E947D05882339F08091B900887FDA
:10119000883221F480E0089581E0089582E0089586
:1011A0000F931F93CF93DF93D82FDD0FC3E014EB82
:1011B00004E81093BC000E947D058823B9F080915B
:1011C000B900887F883011F0803191F4D093BB0052
:1011D0000093BC000E947D05882361F08091B900D6
:1011E000887F803259F4C15021F706C081E009C0E0
:1011F00082E007C083E005C084E003C08831E1F7E6
:1012000080E0DF91CF911F910F910895CF93DF93ED
:10121000D62FC42F0E94D0088D2F0E94BC088C2F7F
:101220000E94BC080E94FC0781E0DF91CF910895E5
:101230009F92AF92BF92CF92DF92EF92FF920F9365
:101240001F93CF93DF93D82F962EC42F59010E945E
:101250000D166B017C012C2FA501692D8D2F880F98
:101260000E940408811102C0DC2F01C0DFEF0115CC
:101270001105C9F00E940D16DC01CB018C199D09E6
:10128000AE09BF0920E030E080179107A207B3073D
:1012900050F04C2F50E08D2F0D2E000C990B841721
:1012A00095070CF4DFEF8D2FDF91CF911F910F91F8
:1012B000FF90EF90DF90CF90BF90AF909F900895F8
:1012C000CF92DF92EF92FF920F931F93CF93DF9312
:1012D0001F92CDB7DEB7F82EE62ED42EC22E08EE22
:1012E00013E09E012F5F3F4F41E00E941809898162
:1012F00041E050E001C0440FDA94EAF7CC2011F04D
:10130000482B02C04095482349836E2D8F2D0E94A3
:1013100006090F90DF91CF911F910F91FF90EF90F1
:10132000DF90CF900895BF92CF92DF92EF92FF921D
:101330000F931F93CF93DF931F92CDB7DEB7F82E95
:10134000E62EC42EB22ED02E08EE13E09E012F5FA3
:101350003F4F41E00E941809882339F12C2D30E0DD
:101360002B1931092F5F3F4F81E090E002C0880FB9
:10137000991FBA94E2F70197022E01C0880F0A94D0
:10138000EAF74D2D50E0BA0102C0660F771F2A958B
:10139000E2F7482F4095998149238623482B4983BA
:1013A0006E2D8F2D0E94060901C080E00F90DF9105
:1013B000CF911F910F91FF90EF90DF90CF90BF9052
:1013C0000895BF92CF92DF92EF92FF920F931F93F7
:1013D000CF93DF93B62E7A016901FA01E15FFE4FE8
:1013E000C081D0E004E010E063E281EC91E00E9473
:1013F000040501501109C1F76E2D81EC91E00E94A6
:1014000004056B2D81EC91E00E940405AE01B6014C
:1014100081EC91E0DF91CF911F910F91FF90EF90C0
:10142000DF90CF90BF900C946D042F923F924F921B
:101430005F926F927F928F929F92AF92BF92CF9264
:10144000DF92EF92FF920F931F93CF93DF93CDB76D
:10145000DEB7C057D1090FB6F894DEBF0FBECDBFBF
:10146000FB013197E131F10508F0FBC38C01ED5B25
:10147000FF4F0C94C21C86E391E0BEC40796BCC427
:1014800084E091E0B9C481E090E0D80111962D91FB
:101490003C9112972230310549F412C081E090E06E
:1014A000F801218132812130310551F080E090E056
:1014B00007C0DC0116968C91282F217030E0C901FD
:1014C0008D5F9E4F99C424E031E04BE050E06EE028
:1014D00070E0FC0182A193A10E94E10960ED77E038
:1014E00080E090E00E942713E0E0F0E00995B6C3A9
:1014F0004A9682C4DC0116968C918870082F10E001
:10150000C801DECFFC0180A991A9A2A9B3A9B05856
:1015100044A555A566A577A57058C0A4D1A4E2A49A
:10152000F3A4F7FAF094F7F8F09498012C573F4F92
:1015300084A095A0A6A0B7A0F90180829182A28282
:10154000B3823496C082D182E282F38234964083A1
:10155000518362837383349680839183A283B383A0
:10156000389660817181072E000C880B990B0E94C0
:101570000A1E6B017C01F801EA56FF4F6081718100
:10158000072E000C880B990B0E940A1E2B013C01B0
:101590005801FAE9AF0EB11CF801EC56FF4F60811B
:1015A0007181072E000C880B990B0E940A1ED50131
:1015B0006D937D938D939C931397F801E256FF4FA3
:1015C00040825182628273823496C082D182E282EA
:1015D000F38244C321961CAE1DAE1EAE1FAE2197F2
:1015E00025961CAE1DAE1EAE1FAE259729961CAECD
:1015F0001DAE1EAE1FAE299719AA1AAA1BAA1CAAB5
:101600001DAA1EAA1FAA18AE19AE1AAE1BAE1CAE9A
:10161000FC01E856FF4F60817181072E000C880B9A
:10162000990B0E940A1E2B013C01F801EA56FF4F5C
:1016300060817181072E000C880B990B0E940A1E95
:101640004B015C017801B6EAEB0EF11CF801EC5697
:10165000FF4F60817181072E000C880B990B0E944F
:101660000A1EF70160837183828393836801FAEA1B
:10167000CF0ED11CD6018D929D92AD92BC92139744
:101680005801BEEAAB0EB11CF50140825182628264
:1016900073828CE07497DE01A75BBF4F01900D92BF
:1016A0008A95E1F78CE0FE01E75BFF4FDE0195963E
:1016B00001900D928A95E1F7CE0185960E94C606AB
:1016C000D5018D909D90AD90BC90F60140805180E9
:1016D00062807380D7012D913D914D915C91699607
:1016E0002CAF3DAF4EAF5FAF69972D962CAD3DADA2
:1016F0004EAD5FAD2D976D962CAF3DAF4EAF5FAF4A
:101700006D9761968CAD9DADAEADBFAD6197A19665
:101710008CAF9DAFAEAFBFAFA1976596CCACDDAC43
:10172000EEACFFAC6597A7019601C301B2010E9420
:10173000BF1EA5966CAF7DAF8EAF9FAFA597A1964C
:101740002CAD3DAD4EAD5FADA197C501B4010E947A
:10175000BF1E9B01AC01A5966CAD7DAD8EAD9FAD5E
:10176000A5970E94EE1C69AB7AAB8BAB9CAB6D96D8
:101770002CAD3DAD4EAD5FAD6D97C501B4010E947E
:10178000BF1E4B015C01A701960169966CAD7DAD52
:101790008EAD9FAD69970E94BF1E9B01AC01C50134
:1017A000B4010E94EE1C6DAB7EAB8FAB98AFA196DF
:1017B0002CAD3DAD4EAD5FADA19769966CAD7DADE5
:1017C0008EAD9FAD69970E94BF1E6B017C016D9627
:1017D0002CAD3DAD4EAD5FAD6D97C301B2010E9422
:1017E000BF1E9B01AC01C701B6010E94EE1C69AF90
:1017F0007AAF8BAF9CAFCE01C1960E94C60629A9D5
:101800003AA94BA95CA9A1962CAF3DAF4EAF5FAFF3
:10181000A1978DA99EA9AFA9B8AD6D968CAF9DAFCC
:10182000AEAFBFAF6D9789AC9AACABACBCAC4DA0C2
:101830005EA06FA078A429A53AA54BA55CA56996E2
:101840002CAF3DAF4EAF5FAF6997CDA4DEA4EFA440
:10185000F8A89C01AD01C701B6010E94BF1EA59664
:101860006CAF7DAF8EAF9FAFA597A5019401699630
:101870006CAD7DAD8EAD9FAD69970E94BF1E9B0183
:10188000AC01A5966CAD7DAD8EAD9FADA5970E94C8
:10189000EE1C21966CAF7DAF8EAF9FAF2197A50157
:1018A0009401C301B2010E94BF1E4B015C01A196CD
:1018B0002CAD3DAD4EAD5FADA197C701B6010E9405
:1018C000BF1E9B01AC01C501B4010E94EE1C259610
:1018D0006CAF7DAF8EAF9FAF2597A1962CAD3DAD80
:1018E0004EAD5FADA19769966CAD7DAD8EAD9FADF0
:1018F00069970E94BF1E6B017C016D962CAD3DADBA
:101900004EAD5FAD6D97C301B2010E94BF1E9B013A
:10191000AC01C701B6010E94EE1C29966CAF7DAFE9
:101920008EAF9FAF2997CE01CD960E94C606FE01CD
:10193000319684E2DF011D928A95E9F721964CAC3D
:101940005DAC6EAC7FAC219749825A826B827C82FF
:1019500025962CAD3DAD4EAD5FAD259769962CAF6C
:101960003DAF4EAF5FAF69972D873E874F87588B4E
:1019700029968CAD9DADAEADBFAD29976D968CAF60
:101980009DAFAEAFBFAF6D97898F9A8FAB8FBC8F76
:1019900029A93AA94BA95CA9A1962CAF3DAF4EAF9E
:1019A0005FAFA1972D833E834F8358878DA89EA854
:1019B000AFA8B8AC898A9A8AAB8ABC8A89AD9AAD3D
:1019C000ABADBCADA5968CAF9DAFAEAFBFAFA5978D
:1019D0008D8F9E8FAF8FB8A32DA13EA14FA158A58B
:1019E000AD962CAF3DAF4EAF5FAFAD9729873A872D
:1019F0004B875C8789A59AA5ABA5BCA5E1968CAF62
:101A00009DAFAEAFBFAFE1978D8B9E8BAF8BB88F85
:101A1000CDA4DEA4EFA4F8A8C9A2DAA2EBA2FCA28E
:101A2000180194E3290E311C20E030E0A901C30124
:101A3000B2010E94EF1CA50194010E94EF1C9B01C2
:101A4000AC01C701B6010E94EF1CA9966CAF7DAF37
:101A50008EAF9FAFA99720E030E0A9010E94BA1E87
:101A600018160CF057C020E030E040E85FE3A9967C
:101A70006CAD7DAD8EAD9FADA9970E94EF1C0E940D
:101A8000321F9B01AC010E94EF1C2B013C0120E0A6
:101A900030E040E85EE30E94BF1EA9966CAF7DAFC8
:101AA0008EAF9FAFA997E1962CAD3DAD4EAD5FAD2A
:101AB000E197A5966CAD7DAD8EAD9FADA5970E94CB
:101AC000EE1CA30192010E94601D4B015C016D960A
:101AD0002CAD3DAD4EAD5FAD6D97AD966CAD7DADB2
:101AE0008EAD9FADAD970E94EE1CA30192010E94A6
:101AF000601D6B017C01A1962CAD3DAD4EAD5FAD7F
:101B0000A19769966CAD7DAD8EAD9FAD69970E9432
:101B1000EE1C6DC1A5019401C301B2010E94BA1E61
:101B200018160CF0A4C0A7019601C301B2010E94CF
:101B3000BA1E18160CF4FFC09AC020E030E040E84E
:101B40005FE3C701B6010E94EF1CA30192010E944E
:101B5000EE1CA50194010E94EE1C0E94321F9B0105
:101B6000AC010E94EF1C2B013C01A1962CAD3DADB8
:101B70004EAD5FADA19769966CAD7DAD8EAD9FAD5D
:101B800069970E94EE1CA30192010E94601DA99614
:101B90006CAF7DAF8EAF9FAFA997AD962CAD3DAD2D
:101BA0004EAD5FADAD976D966CAD7DAD8EAD9FAD1D
:101BB0006D970E94EF1CA30192010E94601D4B01D2
:101BC0005C01E1962CAD3DAD4EAD5FADE197A596C4
:101BD0006CAD7DAD8EAD9FADA5970E94EF1CA301AE
:101BE00092010E94601D6B017C0120E030E040E822
:101BF0005EE3C301B2010E94BF1EA9962CAD3DADAC
:101C00004EAD5FADA997D801D4962D933D934D93DA
:101C10005C93D797F80180AE91AEA2AEB3AEDC96DE
:101C2000CD92DD92ED92FC92DF97E05CFF4F6083F6
:101C300071838283938300E110E0F101F1901F0131
:101C4000C8010E94351CF81621F06F2DC8010E94B2
:101C50003D1C0F5F1F4F0032110579F783E091E0C3
:101C6000CBC080E090E0C8C080E091E0C5C0A70193
:101C70009601C501B4010E94BA1E18160CF05DCF82
:101C800020E030E040E85FE3C501B4010E94EF1CB2
:101C9000A30192010E94EE1CA70196010E94EE1C76
:101CA0000E94321F9B01AC010E94EF1C2B013C01E2
:101CB0006D962CAD3DAD4EAD5FAD6D97AD966CADF7
:101CC0007DAD8EAD9FADAD970E94EE1CA30192013C
:101CD0000E94601DA9966CAF7DAF8EAF9FAFA99794
:101CE000A1962CAD3DAD4EAD5FADA19769966CADA3
:101CF0007DAD8EAD9FAD69970E94EF1CA30192014F
:101D00000E94601D4B015C0120E030E040E85EE392
:101D1000C301B2010E94BF1E6B017C01E1962CAD94
:101D20003DAD4EAD5FADE197A5966CAD7DAD8EAD91
:101D30009FADA5975AC020E030E040E85FE3C301C3
:101D4000B2010E94EF1CA50194010E94EE1CA701A4
:101D500096010E94EE1C0E94321F9B01AC010E9462
:101D6000EF1C2B013C01E1962CAD3DAD4EAD5FADBE
:101D7000E197A5966CAD7DAD8EAD9FADA5970E9408
:101D8000EE1CA30192010E94601DA9966CAF7DAF6D
:101D90008EAF9FAFA99720E030E040E85EE3C3013B
:101DA000B2010E94BF1E4B015C01A1962CAD3DAD5E
:101DB0004EAD5FADA19769966CAD7DAD8EAD9FAD1B
:101DC00069970E94EF1CA30192010E94601D6B01A4
:101DD0007C01AD962CAD3DAD4EAD5FADAD976D9632
:101DE0006CAD7DAD8EAD9FAD6D970E94EF1CA301D4
:101DF00092010E94601D01CFC059DF4F0FB6F894C9
:101E0000DEBF0FBECDBFDF91CF911F910F91FF902D
:101E1000EF90DF90CF90BF90AF909F908F907F908A
:101E20006F905F904F903F902F900895CF93DF93E6
:101E30001F92CDB7DEB78983CB019E012F5F3F4F45
:101E40004FE050E06CE070E00E94E1090F90DF91FC
:101E5000CF9108954F925F926F927F928F929F924F
:101E6000AF92BF92CF92DF92EF92FF920F931F93A8
:101E7000CF93DF93CDB7DEB768970FB6F894DEBF88
:101E80000FBECDBF8C01FB018BA59CA5ADA5BEA54A
:101E90008D879E87AF87B88B8FA598A9A9A9BAA966
:101EA000898B9A8BAB8BBC8B8BA99CA9ADA9BEA946
:101EB0008D8B9E8BAF8BB88F8FA898ACA9ACBAAC2A
:101EC000C080D180E280F38084819581A681B78132
:101ED00089839A83AB83BC8380859185A285B385F2
:101EE0008D839E83AF83B88784859585A685B785C6
:101EF00089879A87AB87BC872D853E854F85588912
:101F0000C701B6010E94BF1E2B013C0129893A89F5
:101F10004B895C8969817A818B819C810E94BF1E7B
:101F20009B01AC01C301B2010E94EE1C2B013C01DC
:101F30002D893E894F89588D6D817E818F8198854D
:101F40000E94BF1E9B01AC01C301B2010E94EE1CA6
:101F50002B013C01A501940169857A858B859C85BF
:101F60000E94BF1E9B01AC01C301B2010E94EE1C86
:101F7000D8016D937D938D939C93139729893A890A
:101F80004B895C89C701B6010E94BF1E2B013C0131
:101F90002D853E854F85588969817A818B819C8109
:101FA0000E94BF1E9B01AC01C301B2010E94EF1C45
:101FB0002B013C01A50194016D817E818F81988563
:101FC0000E94BF1E9B01AC01C301B2010E94EF1C25
:101FD0002B013C012D893E894F89588D69857A8571
:101FE0008B859C850E94BF1E9B01AC01C301B20181
:101FF0000E94EE1CF80164837583868397832D8984
:102000003E894F89588DC701B6010E94BF1E2B0122
:102010003C01A501940169817A818B819C810E9498
:10202000BF1E9B01AC01C301B2010E94EE1C2B013B
:102030003C012D853E854F8558896D817E818F813C
:1020400098850E94BF1E9B01AC01C301B2010E9492
:10205000EF1C2B013C0129893A894B895C896985F0
:102060007A858B859C850E94BF1E9B01AC01C301B4
:10207000B2010E94EF1CD80118966D937D938D9349
:102080009C931B97A5019401C701B6010E94BF1E36
:102090006B017C012D893E894F89588D69817A8138
:1020A0008B819C810E94BF1E9B01AC01C701B601C0
:1020B0000E94EF1C6B017C0129893A894B895C895C
:1020C0006D817E818F8198850E94BF1E9B01AC012E
:1020D000C701B6010E94EE1C6B017C012D853E8577
:1020E0004F85588969857A858B859C850E94BF1E9E
:1020F0009B01AC01C701B6010E94EF1CF801648787
:10210000758786879787C80168960FB6F894DEBFF3
:102110000FBECDBFDF91CF911F910F91FF90EF9038
:10212000DF90CF90BF90AF909F908F907F906F90F7
:102130005F904F900895009769F0FC010190002096
:10214000E9F73197AF01481B590BBC0181EC91E0D5
:102150000C946D0480E090E008950C949B108F9295
:102160009F92AF92BF920F931F93CF93DF93CDB700
:10217000DEB7A1970FB6F894DEBF0FBECDBF19A290
:10218000423008F44AE08E010F5D1F4F842E912CDF
:10219000A12CB12CA50194010E947D1CE62FB90150
:1021A000CA0101501109EA3014F4E05D01C0E95C94
:1021B000D801EC93232B242B252B61F7C8010E9417
:1021C0009B10A1960FB6F894DEBF0FBECDBFDF9176
:1021D000CF911F910F91BF90AF909F908F900895D6
:1021E0002F923F924F925F926F927F928F929F9227
:1021F000AF92BF92CF92DF92EF92FF920F931F9315
:10220000CF93DF9300D000D01F92CDB7DEB79A8373
:1022100089833B01342E522E202E4F716DE6809122
:102220005E020E940609452D6EE680915E020E94C4
:10223000060980E190E00E94871F6C01002331F0C5
:1022400080E190E00E94871F7C0102C0E12CF12C0C
:102250001D821C822C813D812615370508F0F4C0B3
:10226000C90140966816790618F4462C421A02C035
:1022700080E1482E842D90E020E031E025193109DD
:102280002817390714F4452C4194222089F0D701EE
:1022900080E090E0841590F4EC81FD81E80FF91F57
:1022A00029813A81E20FF31FE491ED930196F2CF79
:1022B000E980FA808C819D81E80EF91E80915E0292
:1022C0000E94D0088FE60E94BC0857014701EB82AC
:1022D000882D8E19841530F4F40181914F010E94EC
:1022E000BC08F6CF0E94FC07842C912CC114D104A9
:1022F00009F48EC0432D4F716DE680915E020E94FD
:102300000609452D6EE680915E020E94060908EEE0
:1023100013E09601442D6FE680915E020E94180939
:10232000A401B601C7010E94AD20892B09F470C039
:102330008CE391E00E94AD10632D70E080E090E0AE
:102340004AE00E94AF1082E691E00E94AD10652D38
:1023500070E080E090E04AE00E94AF108DE691E0EE
:102360000E94AD108A2DFB818F1B8415C8F489E76C
:1023700091E00E94AD104501F5018081803120F48B
:102380008DE791E00E94AD10FFEFAF1ABF0AF40194
:10239000608170E080E090E040E10E94AF10E2CF09
:1023A0008FE791E00E94AD102C813D812C0D3D1DE9
:1023B0003A832983912C4914F1F089E791E00E9436
:1023C000AD10A980BA80F5018081803120F48DE7BD
:1023D00091E00E94AD1029813A812F5F3F4F3A83EF
:1023E0002983F501608170E080E090E040E10E9487
:1023F000AF109394E0CF8AE891E00E94AD10C6013F
:102400000E941F20222049F1C7010E941F2025C0E1
:102410002C813D81280D391D3D832C83540C2615BC
:10242000370508F017CF511001C03394432D4F7179
:102430006DE680915E020E940609452D6EE6809150
:102440005E020E94060906CFC6010E941F202220BC
:1024500031F0C7010E941F2002C080E001C081E06E
:102460000F900F900F900F900F90DF91CF911F91D1
:102470000F91FF90EF90DF90CF90BF90AF909F9023
:102480008F907F906F905F904F903F902F90089526
:102490001F93CF93DF93162FEA010E94D008812F5C
:1024A0000E94BC0889810E94BC0888810E94BC08E7
:1024B000C82F0E94FC0781E0C11180E0DF91CF911D
:1024C0001F9108958F929F92AF92BF92CF92DF9209
:1024D000EF92FF920F931F93CF93DF9300D0CDB76E
:1024E000DEB7D82EC62E8A0179010E940D164B0147
:1024F0005C0122E0AE014F5F5F4F6C2D8D2D880F88
:102500000E94040881110AC089819A81982789272D
:102510009827F8019183808311E001C01FEFE11437
:10252000F10499F00E940D16AB01BC01481959093C
:102530006A097B09C701A0E0B0E0481759076A079C
:102540007B0718F0113009F01FEF812F0F900F90CB
:10255000DF91CF911F910F91FF90EF90DF90CF907F
:10256000BF90AF909F908F9008953FB7F89480915F
:102570002B0390912C03A0912D03B0912E0326B52F
:10258000A89B05C02F3F19F00196A11DB11D3FBFAB
:10259000BA2FA92F982F8827820F911DA11DB11D39
:1025A000BC01CD0142E0660F771F881F991F4A9535
:1025B000D1F7089590E0FC01E359F74F2491FC0115
:1025C000E75AF74F3491FC01EB5BF74FE491EE23B0
:1025D00009F43CC0222339F1233091F038F4213042
:1025E000A9F0223001F584B58F7D12C0273091F01B
:1025F0002830A1F02430B9F4809180008F7D03C091
:10260000809180008F77809380000DC084B58F7794
:1026100084BD09C08091B0008F7703C08091B00065
:102620008F7D8093B000F0E0EE0FFF1FE55CF74F69
:10263000A591B4919FB7F894611104C08C91309525
:10264000382302C0EC913E2B3C939FBF08958F929C
:102650009F92AF92BF92CF92DF92EF92FF926B0167
:102660007C010E94B5124B015C01C114D104E1044C
:10267000F104F1F00E94B512DC01CB01881999092F
:10268000AA09BB09883E9340A105B10570F321E07A
:10269000C21AD108E108F10888EE880E83E0981E7E
:1026A000A11CB11CC114D104E104F10419F7DDCF60
:1026B000FF90EF90DF90CF90BF90AF909F908F9062
:1026C00008952F923F924F925F926F927F928F92D6
:1026D0009F92AF92BF92CF92DF92EF92FF920F93B1
:1026E0001F93CF93DF93CDB7DEB7E5970FB6F8947E
:1026F000DEBF0FBECDBF988F8F8B6D8F2EA33FA3F4
:1027000048A759A7EAA6FBA60CA71DA7BBAAAAAA79
:102710006B3309F080C208EE13E09E012F5F3F4F3C
:1027200041E065E7DC018C910E941809882369F07B
:1027300089818E7790E095958795EF89F88D8183D3
:10274000883318F017E703E002C016E002E09E01AC
:10275000235F3F4F3E8B2D8BCE0101967C014901BB
:10276000D12E28EE33E0AE014D5E5F4F6D2DEF8927
:10277000F88D80810E946212AB88BC88B5010B2C59
:10278000000C880B990B0E940A1E133191F0F1E0A6
:10279000AF22BB24D401AD92BC9220E030E040E0F7
:1027A00051E40E94BF1EF70160837183828393838B
:1027B0000CC020E030E040E850E40E94BF1ED7018A
:1027C0006D937D938D939C931397D00EB2E08B0EF7
:1027D000911CE4E0EE0EF11C2D893E89E216F30611
:1027E00009F0BFCF3D8D3B3329F48DEC9CECACE47C
:1027F000BDE304C080E090E0A0E8BFE38EA79FA700
:10280000A8ABB9AB1A8E198EAC2DB0E0BDABACAB9A
:10281000ECA9FDA9298D3A8D2E173F070CF0D2C1E6
:102820001F8E1E8E212C312CCE0101969CA38BA3D2
:10283000DE011D96BAA3A9A318A3BD8DBDA3412C8B
:10284000512C32011C8E1B8E28EE33E0AE014D5E02
:102850005F4F6DA1EF89F88D80810E9462126B89B4
:102860007C89072E000C880B990B0E940A1E6B01B5
:102870007C01FD8DFB3369F42B8D3C8D22303105BD
:1028800041F420E030E040E856E40E94EE1C6B0189
:102890007C0146015701B7FAB094B7F8B094C30170
:1028A000B2010E94081E2B013C0120E030E0A9018A
:1028B000C701B6010E94BA1E18162CF0782D692D9A
:1028C0009A2D8B2D04C07C2D6D2D9E2D8F2D272FA5
:1028D000362F492F582FC301B2010E94EF1C0E94CE
:1028E000D91D2B013C012EA13FA148A559A5C50129
:1028F000B4010E94BF1E6B017C012FE632E143E868
:102900005AE3C501B4010E94BF1E2AA53BA54CA5F0
:102910005DA50E94BF1EABA1BCA12D913D914D9123
:102920005C910E94EF1C9B01AC01EBA1FCA16193A7
:10293000719381939193FCA3EBA3C701B60113316B
:1029400041F10E94EF1C20E030E040E05EE30E9495
:10295000BF1E6B017C0120E030E0A9010E94BA1E7D
:1029600020E030E040E05FE387FD05C0C701B6012D
:102970000E94EF1C04C0C701B6010E94EE1C0E9419
:10298000D21D6E7FA9A1BAA18D919C91682B792B44
:1029900020C00E94EF1C20E030E040E85EE30E948F
:1029A000BF1E6B017C0120E030E0A9010E94BA1E2D
:1029B00020E030E040E05FE387FD05C0C701B601DD
:1029C0000E94EF1C04C0C701B6010E94EE1C0E94C9
:1029D000D21D7C8B6B8BAE014D5E5F4F68A1EF8982
:1029E000F88D80810E9448122B8D3C8D2F5F3F4FC8
:1029F0003C8F2B8F3DA13E5F3DA388A1800F88A314
:102A0000A9A1BAA11296BAA3A9A3EB8DFC8D339705
:102A100009F01ACFF3E62F16310449F429EE4216D5
:102A200023E052066104710410F0212C312CC30103
:102A3000B2010E94081E2EA53FA548A959A90E94CF
:102A4000BF1E20E030E040EA50E40E945B1D87FF9B
:102A500005C08E8D9F8D01969F8F8E8F94E64916AF
:102A600051046104710490F5ABE02A16310474F14D
:102A7000EE8DFF8D3A9754F16AA97BA9898D0E944A
:102A8000160F20E030E040E45FE36EA17FA188A54F
:102A900099A50E94BF1E6EA37FA388A799A720E0D7
:102AA00030E040E45FE36AA57BA58CA59DA50E946C
:102AB000BF1E6AA77BA78CA79DA79E012F5F3F4FD4
:102AC0007901CE010D963C01D12E0FC061E070E07E
:102AD00080E090E00E9427139FEF291A390AA4E6AC
:102AE0002A16310409F0A0CEC7CF133151F120E0EE
:102AF00030E040E05EE3F701608171818281938183
:102B00000E94BF1E4B015C0120E030E0A9010E9441
:102B1000BA1E20E030E040E05FE387FD05C0C5015C
:102B2000B4010E94EF1C04C0C501B4010E94EE1C58
:102B30000E94D21D6E7FD3018D919C91682B792BC1
:102B400023C020E030E040E85EE3F701608171815E
:102B5000828193810E94BF1E4B015C0120E030E026
:102B6000A9010E94BA1E20E030E040E05FE387FD4B
:102B700005C0C501B4010E94EF1C04C0C501B40129
:102B80000E94EE1C0E94D21D7C8B6B8BAE014D5EB1
:102B90005F4F6D2DAF89B88D8C910E944812D00E79
:102BA000B2E06B0E711CE4E0EE0EF11C2D893E8943
:102BB000E216F30609F099CF898D9A8D01969A8FC6
:102BC000898F26CE21E042E06AE6AF89B88D8C91EC
:102BD0000E94600921E043E06AE6EF89F88D808178
:102BE0000E946009E5960FB6F894DEBF0FBECDBF18
:102BF000DF91CF911F910F91FF90EF90DF90CF90D9
:102C0000BF90AF909F908F907F906F905F904F900C
:102C10003F902F90089513E199CD2FB7F8946091CC
:102C20002703709128038091290390912A032FBFD5
:102C300008951F920F920FB60F9211242F933F9376
:102C40008F939F93AF93BF93809127039091280315
:102C5000A0912903B0912A033091260323E0230F8A
:102C60002D3720F40196A11DB11D05C026E8230FC4
:102C70000296A11DB11D20932603809327039093F4
:102C80002803A0932903B0932A0380912B039091EA
:102C90002C03A0912D03B0912E030196A11DB11D0F
:102CA00080932B0390932C03A0932D03B0932E03BA
:102CB000BF91AF919F918F913F912F910F900FBE38
:102CC0000F901F901895CF93DF93CDB7DEB7EC9799
:102CD0000FB6F894DEBF0FBECDBF789484B5826086
:102CE00084BD84B5816084BD85B5826085BD85B5B0
:102CF000816085BD80916E00816080936E0010922E
:102D000081008091810082608093810080918100A8
:102D10008160809381008091800081608093800039
:102D20008091B10084608093B1008091B000816097
:102D30008093B00080917A00846080937A008091C3
:102D40007A00826080937A0080917A00816080931B
:102D50007A0080917A00806880937A001092C10096
:102D600061E08EE00E94DA1261E08DE00E94DA12EA
:102D700064E670E080E090E00E94271360E08DE060
:102D80000E94DA1264E670E080E090E00E9427136F
:102D900061E08DE00E94DA1264E670E080E090E08D
:102DA0000E94271360E08DE00E94DA1285E19AE02C
:102DB0009093B2018093B10186EA95E09093B401BB
:102DC0008093B3018CE895E09093B6018093B501B0
:102DD00001E712E01093B8010093B70181EC91E094
:102DE0009093B0018093AF01E091D101F091D201B5
:102DF00082E08083E091CD01F091CE011082E091DC
:102E0000CF01F091D00180E180831092D901E0914F
:102E1000D501F091D60186E08083E091D301F09155
:102E2000D401808180618083E091D301F091D4014D
:102E3000808188608083E091D301F091D40180810A
:102E400080688083E091D301F091D40180818F7DEF
:102E5000808381E090E09093BC018093BB0110924D
:102E6000C0011092BF010E940D164B015C016093DE
:102E70007B0290927C02A0927D02B0927E02109220
:102E80007F021092800210928102109282020E94B0
:102E90000D164B015C016093830290928402A09214
:102EA0008502B092860210928702109288021092D8
:102EB000890210928A028FE891E0909394028093A5
:102EC00093028EE592E09093250380932403109360
:102ED0008D0100938C0180E090E00E94351C80936E
:102EE000710210927302109272021092BC0088B1AB
:102EF000806388B91092B9008CE08093B80084E0B8
:102F00008093BC0045EAE42E42E0F42E00E110E09C
:102F1000C8010E94351CD7018D937D010F5F1F4FA3
:102F200000321105A9F78091B1029091B202A091EF
:102F3000B302B091B402B0584091AD025091AE02CC
:102F40006091AF027091B00270580091A902109187
:102F5000AA022091AB023091AC023058C090A50279
:102F6000D090A602E090A702F090A802C092B5020D
:102F7000D092B602E092B702F092B8020093B90282
:102F80001093BA022093BB023093BC024093BD025F
:102F90005093BE026093BF027093C0028093C1023F
:102FA0009093C202A093C302B093C40280E1E5EA09
:102FB000F2E0A5ECB2E001900D928A95E1F7EBE525
:102FC000F8E02491E7E4F8E084918823C9F090E0E8
:102FD000880F991FFC01EF5CF74F45915491FC015C
:102FE000E55CF74FA591B4919FB7F894FA01808101
:102FF0002095822380838C91E22FE823EC939FBF5E
:1030000001E023E042E06BE680915E020E949309BA
:1030100000E022E044E06BE180915E020E949309AF
:1030200022E044E06CE180915E020E94930920E07E
:1030300046E06BE680915E020E94600964EF71E0F9
:1030400080E090E00E94271321E047E06BE680914A
:103050005E020E9460096EE170E080E090E00E94F4
:10306000271320E046E06BE680915E020E94600933
:1030700040E76DE680915E020E94060946E06EE63A
:1030800080915E020E94060940E06DE680915E023A
:103090000E9406094FE765E280915E020E940609E0
:1030A00020E045E06AE680915E020E94600948E601
:1030B00065E280915E020E94060921E041E06AE635
:1030C00080915E020E94600964E170E080E090E01F
:1030D0000E94271303E023E042E06BE680915E024A
:1030E0000E94930942E168E380915E020E94060912
:1030F00044E069E180915E020E94060901E023E05C
:1031000045E06AE180915E020E94930903E023E0BA
:1031100042E06AE180915E020E94930922E044E06D
:103120006BE180915E020E94930901E020E040E0A3
:1031300069E877E088EA90E00E94F010882309F4BB
:1031400093C0198281E08A8300E026E142E062E0D8
:1031500070E0CE0101960E94F01043E060E780919C
:103160005E020E94060940E061E780915E020E94D3
:10317000060920E040E060E080915E020E94600964
:1031800042E06FE180915E020E9406094CE961E233
:1031900080915E020E94060940E560E280915E0235
:1031A0000E94060940E062E280915E020E940609E8
:1031B00021E046E06AE680915E020E94600921E01B
:1031C00043E06AE680915E020E94600920E047E0E9
:1031D0006AE680915E020E9460098AE290E0909324
:1031E000700280936F0221E042E06AE680915E0205
:1031F0000E94600908EE13E02FE532E041E06AE347
:1032000080915E020E94180980916F029091700275
:1032100090937A028093790221E047E067E38091FE
:103220005E020E94600920E045E067E380915E0253
:103230000E94600921E047E06AE680915E020E94F8
:1032400060098DE895E090930601809305018091D7
:103250006900836080936900E89A81E090E0909330
:1032600073028093720204C0109273021092720271
:10327000412C512C80E8682E8FE3782E882483948B
:10328000912C22E0222E312C80918E01882309F48A
:10329000B6C010928E01E0908C01F0908D01570124
:1032A000F3EBAF0EB11CD501CD90DC9096012F5FF2
:1032B0003F4F08EE13E042E062E7F60180810E9492
:1032C0001809D60111968D919C91129798278927FC
:1032D00098274C970CF493C061E08DE00E94DA12BD
:1032E000F701868D978DA0A1B1A10196A11DB11DF9
:1032F000868F978FA0A3B1A34085442359F0D501B1
:10330000ED91FC919E012F5F3F4F64E780810E9409
:10331000180901C01982AD80BE80BA24AB24BA243A
:10332000C984DA84DC24CD24DC240D851E85102795
:103330000127102769817A81762767277627072E4C
:10334000000C880B990B0E940A1E20E030E040E838
:1033500058E30E94BF1EF70164A375A386A397A339
:10336000B501BB0C880B990B0E940A1E20E030E0CF
:1033700040E858E30E94BF1ED70198966D937D9355
:103380008D939C939B97B601DD0C880B990B0E9443
:103390000A1E20E030E040E858E30E94BF1EF7011B
:1033A00064A775A786A797A7B801110F880B990B7B
:1033B0000E940A1E20E030E040E858E30E94BF1E51
:1033C000D701D0966D937D938D939C93D397F701FE
:1033D000EC56FF4F8D8D9E8D9827892798279183D6
:1033E000808389A19AA1982789279827938382832C
:1033F0008DA19EA198278927982795838483809102
:10340000720290917302019709F0F7C080917702E0
:1034100080FFF3C00E940D165B016C019B01A601A9
:1034200060E070E080E090E0A0908302B0908402C1
:10343000C0908502D0908602E0908702F0908802CA
:103440000091890210918A020E94C81CE52EF62E76
:10345000072FF82FE92F6091780270E088EE93E053
:103460000E94AE1C5B011B2D110F110B5E2D6F2DE9
:10347000702F8F2F9E2FC12ED12EE12EF12E012FD6
:103480000E94D11C09F008F4B8C00E940D168B01EF
:103490009C016093830210938402209385023093F1
:1034A000860210928702109288021092890210926E
:1034B0008A024D8E5E8E6F8E78A219A21AA21BA26E
:1034C0001CA21DA21EA21FA218A619A61AA61BA600
:1034D0001CA6EDB7FEB770970FB6F894FEBF0FBEEF
:1034E000EDBFADB7BEB7119680E1E5E9F2E001901E
:1034F0000D928A95E1F765EF72E0CE0101960E9488
:103500002A0F2DB73EB7205131090FB6F8943EBFB0
:103510000FBE2DBFADB7BEB7119680E1FE0131964B
:1035200001900D928A95E1F765EB72E0CE018D96E0
:103530000E942A0F80E1FE01BD96DE015D9601909A
:103540000D928A95E1F70FB6F894DEBF0FBECDBF9E
:10355000ADB7BEB750970FB6F894BEBF0FBEADBFA4
:10356000119680E1E5ECF2E001900D928A95E1F789
:10357000BE01635E7F4FCE018D960E942A0F80E1CF
:10358000FE01BD96DE015D9601900D928A95E1F7F0
:10359000809176020FB6F894DEBF0FBECDBF83FFD9
:1035A00009C049A15AA16BA17CA1705849A35AA393
:1035B0006BA37CA384FF09C04DA15EA16FA178A578
:1035C00070584DA35EA36FA378A785FF09C089A596
:1035D0009AA5ABA5BCA5B05889A79AA7ABA7BCA7CD
:1035E0009E01235E3F4F42E050E06CE070E080912E
:1035F0009302909194020E94E1098091AF01909111
:10360000B001DC01ED91FC910084F185E02D09957C
:103610007C01892B09F4EDC000E010E00E151F05B8
:103620000CF0E7C08091AF019091B001DC01ED9109
:10363000FC910284F385E02D09958F3F09F4D9C0F0
:103640002091BB013091BC012330310591F138F458
:103650002130310561F02230310589F0C7C02430B6
:103660003105D1F12530310509F449C0BFC083329D
:1036700009F0BCC03092BC012092BB010CC020916B
:10368000BF013091C0012330310554F4833209F079
:10369000A5C02F5F3F4F3093C0012093BF01A6C04C
:1036A0002330310509F09AC03093BC012093BB014F
:1036B00099C09FEF980F913108F090C0082E000C30
:1036C000990B9093BE018093BD01E4E0F0E0F0938C
:1036D000BC01E093BB018AC095EF980F953008F0CC
:1036E0007DC0082E000C990B9093BA018093B9010C
:1036F00025E030E03093BC012093BB0177C02091DE
:10370000BF013091C0016091BD017091BE01FB010C
:10371000E15FFE4F408150E041505109F901E1570E
:10372000FE4F2417350744F42F5F3F4F3093C001FD
:103730002093BF0180835AC080838091B90190910A
:10374000BA018C30910599F18D309105D1F00B972C
:1037500009F044C0E091B101F091B2014FE851E0AD
:103760008091B7019091B80109954091BD015091A8
:10377000BE019C016EE070E08FE891E00E94E109DB
:103780002DC02FE831E0AB016FE070E0C9010E946D
:10379000E1096091BD017091BE01E091B501F09128
:1037A000B6018091B7019091B801099517C02FE833
:1037B00031E0AB016FE070E0C9010E94E109609166
:1037C000BD017091BE01E091B301F091B4014FE8E9
:1037D00051E08091B7019091B80109959092BC0198
:1037E0008092BB011092C0011092BF010F5F1F4F6A
:1037F00015CF0E94730548CDE1ECF1E013821282EF
:1038000088EE93E0A0E0B0E084839583A683B7833D
:1038100088E291E09183808385EC90E095878487AE
:1038200084EC90E09787868780EC90E0918B808B8A
:1038300081EC90E0938B828B82EC90E0958B848B73
:1038400086EC90E0978B868B118E128E138E148EE1
:10385000E1E7F2E0108280E190E0918780871092AA
:10386000230388E680935E020895F999FECF92BD06
:1038700081BDF89A992780B50895262FF999FECF32
:103880001FBA92BD81BD20BD0FB6F894FA9AF99A7D
:103890000FBE01960895052E97FB1EF400940E941A
:1038A000621C57FD07D00E947D1C07FC03D04EF41C
:1038B0000C94621C50954095309521953F4F4F4F89
:1038C0005F4F089590958095709561957F4F8F4FCC
:1038D0009F4F08950E949F1CA59F900DB49F900D2F
:1038E000A49F800D911D11240895B7FF0C946A1CAC
:1038F0000E946A1C821B930B0895A1E21A2EAA1B38
:10390000BB1BFD010DC0AA1FBB1FEE1FFF1FA2178F
:10391000B307E407F50720F0A21BB30BE40BF50B8C
:10392000661F771F881F991F1A9469F76095709515
:10393000809590959B01AC01BD01CF010895A29F98
:10394000B001B39FC001A39F700D811D1124911D73
:10395000B29F700D811D1124911D089597FB072EB4
:1039600016F4009407D077FD09D00E94DA1C07FCFA
:1039700005D03EF4909581959F4F0895709561957F
:103980007F4F0895EE0FFF1F0590F491E02D0994ED
:103990002A193B094C095D096E097F09800B910BBF
:1039A00008952A153B054C055D056E057F058007CA
:1039B00091070895AA1BBB1B51E107C0AA1FBB1F9B
:1039C000A617B70710F0A61BB70B881F991F5A95AB
:1039D000A9F780959095BC01CD0108955058BB275B
:1039E000AA270E94061D0C94801E0E94721E38F0A9
:1039F0000E94791E20F039F49F3F19F426F40C94AC
:103A00006F1E0EF4E095E7FB0C94691EE92F0E94EF
:103A1000911E58F3BA17620773078407950720F0C1
:103A200079F4A6F50C94B31E0EF4E0950B2EBA2F84
:103A3000A02D0B01B90190010C01CA01A0011124B4
:103A4000FF27591B99F0593F50F4503E68F11A1660
:103A5000F040A22F232F342F4427585FF3CF4695F1
:103A600037952795A795F0405395C9F77EF41F1613
:103A7000BA0B620B730B840BBAF09150A1F0FF0FDD
:103A8000BB1F661F771F881FC2F70EC0BA0F621FC9
:103A9000731F841F48F4879577956795B795F795B9
:103AA0009E3F08F0B0CF9395880F08F09927EE0F4E
:103AB0009795879508950E94451E08F481E0089522
:103AC0000E94741D0C94801E0E94791E58F00E9462
:103AD000721E40F029F45F3F29F00C94691E5111C9
:103AE0000C94B41E0C946F1E0E94911E68F39923CF
:103AF000B1F3552391F3951B550BBB27AA276217EA
:103B00007307840738F09F5F5F4F220F331F441FF6
:103B1000AA1FA9F335D00E2E3AF0E0E832D091502A
:103B20005040E695001CCAF72BD0FE2F29D0660F17
:103B3000771F881FBB1F261737074807AB07B0E85A
:103B400009F0BB0B802DBF01FF2793585F4F3AF060
:103B50009E3F510578F00C94691E0C94B41E5F3F93
:103B6000E4F3983ED4F3869577956795B795F795E6
:103B70009F5FC9F7880F911D9695879597F90895CE
:103B8000E1E0660F771F881FBB1F6217730784076A
:103B9000BA0720F0621B730B840BBA0BEE1F88F779
:103BA000E09508950E94D91D6894B1110C94B41E3B
:103BB00008950E94991E88F09F5798F0B92F992771
:103BC000B751B0F0E1F0660F771F881F991F1AF008
:103BD000BA95C9F714C0B13091F00E94B31EB1E09C
:103BE00008950C94B31E672F782F8827B85F39F09B
:103BF000B93FCCF3869577956795B395D9F73EF4A1
:103C000090958095709561957F4F8F4F9F4F089548
:103C1000E89409C097FB3EF4909580957095619566
:103C20007F4F8F4F9F4F9923A9F0F92F96E9BB271C
:103C30009395F695879577956795B795F111F8CF98
:103C4000FAF4BB0F11F460FF1BC06F5F7F4F8F4F03
:103C50009F4F16C0882311F096E911C0772321F0F9
:103C60009EE8872F762F05C0662371F096E8862F91
:103C700070E060E02AF09A95660F771F881FDAF7E8
:103C8000880F9695879597F90895990F0008550F15
:103C9000AA0BE0E8FEEF16161706E807F907C0F0D2
:103CA00012161306E407F50798F0621B730B840BDA
:103CB000950B39F40A2661F0232B242B252B21F4B4
:103CC00008950A2609F4A140A6958FEF811D811D54
:103CD000089597F99F6780E870E060E008959FEF8E
:103CE00080EC089500240A94161617061806090693
:103CF000089500240A941216130614060506089562
:103D0000092E0394000C11F4882352F0BB0F40F4E9
:103D1000BF2B11F460FF04C06F5F7F4F8F4F9F4F29
:103D2000089557FD9058440F551F59F05F3F71F0AB
:103D30004795880F97FB991F61F09F3F79F0879512
:103D40000895121613061406551FF2CF4695F1DF9B
:103D500008C0161617061806991FF1CF869571052B
:103D6000610508940895E894BB2766277727CB015F
:103D700097F908950E94451E08F48FEF08950E9458
:103D8000D21E0C94801E0E94721E38F00E94791E72
:103D900020F0952311F00C94691E0C946F1E1124D1
:103DA0000C94B41E0E94911E70F3959FC1F3950F61
:103DB00050E0551F629FF001729FBB27F00DB11DAF
:103DC000639FAA27F00DB11DAA1F649F6627B00D3F
:103DD000A11D661F829F2227B00DA11D621F739F28
:103DE000B00DA11D621F839FA00D611D221F749F36
:103DF0003327A00D611D231F849F600D211D822F7D
:103E0000762F6A2F11249F5750409AF0F1F08823A3
:103E10004AF0EE0FFF1FBB1F661F771F881F9150D0
:103E20005040A9F79E3F510580F00C94691E0C94F8
:103E3000B41E5F3FE4F3983ED4F38695779567957B
:103E4000B795F795E7959F5FC1F7FE2B880F911DFA
:103E50009695879597F9089519F416F40C946F1EAA
:103E60000C94721F0E94991EB8F39923C9F3B6F3FC
:103E70009F57550B87FF0E94801F0024A0E640EA51
:103E8000900180585695979528F4805C660F771FAF
:103E9000881F20F026173707480730F4621B730B82
:103EA000840B202931294A2BA695179407942025A5
:103EB00031254A2758F7660F771F881F20F02617ED
:103EC0003707480730F4620B730B840B200D311D4C
:103ED000411DA09581F7B901842F9158880F9695BF
:103EE000879508959F3F31F0915020F487957795FD
:103EF0006795B795880F911D9695879597F90895C1
:103F000091505040660F771F881FD2F708950F9386
:103F10001F93CF93DF938230910510F482E090E0FD
:103F2000E0913103F091320320E030E0A0E0B0E016
:103F3000309719F140815181028113814817590747
:103F4000C8F08417950769F4109731F012960C9316
:103F5000129713961C9327C00093310310933203DA
:103F600022C02115310519F04217530718F49A01A0
:103F7000BD01EF01DF01F801DBCF21153105F9F0BB
:103F8000281B390B2430310580F48A819B8161150F
:103F9000710521F0FB019383828304C09093320367
:103FA00080933103FE01329644C0FE01E20FF31FFD
:103FB0008193919322503109398328833AC020910B
:103FC0002F0330913003232B41F420910B013091CA
:103FD0000C013093300320932F032091090130917D
:103FE0000A012115310541F42DB73EB740910D016D
:103FF00050910E01241B350BE0912F03F0913003FB
:10400000E217F307A0F42E1B3F0B2817390778F0AF
:10401000AC014E5F5F4F2417350748F04E0F5F1F0E
:104020005093300340932F038193919302C0E0E0BB
:10403000F0E0CF01DF91CF911F910F910895CF93C1
:10404000DF93009709F481C0FC013297138212823A
:10405000A0913103B0913203109781F42081318116
:10406000820F931F20912F033091300328173907B7
:1040700051F5F0933003E0932F0367C0ED0120E08A
:1040800030E0CE17DF0740F44A815B819E01411585
:104090005105F1F0EA01F5CFD383C283408151810C
:1040A000840F951FC817D90759F488819981840F07
:1040B000951F0296918380838A819B81938382835B
:1040C0002115310529F4F0933203E09331033DC00B
:1040D000E901FB83EA8349915991C40FD51FEC177D
:1040E000FD0761F480819181840F951F0296E9019B
:1040F00099838883828193819B838A83E0E0F0E0C7
:1041000012968D919C911397009719F0FD01DC0197
:10411000F7CF8D919C9111979D012E5F3F4F820F9C
:10412000931F20912F03309130032817390769F42A
:10413000309729F4109232031092310302C0138297
:104140001282B0933003A0932F03DF91CF91089593
:1041500081E090E0F8940C94BA20FB01DC0104C0EB
:104160008D910190801921F441505040C8F7881B6F
:08417000990B0895F894FFCFAC
:1041780000030000016C046C0400003303200000FD
:1041880001100801010101010305010101080101F4
:104198000100E8030000000004056D049B045105BC
:1041A800CC04AA04BE0468656C6C6F00426C6F6333
:1041B8006B207772697465207665726966696361D8
:1041C80074696F6E206572726F722C2062616E6BFB
:1041D80020002C20616464726573732000210A45F5
:1041E800787065637465643A002030780030000A9E
:0C41F80052656365697665643A000A0050
:00000001FF
