:100000000C943F040C94C4060C949D060C94670455
:100010000C9467040C9467040C9467040C946704B4
:100020000C9467040C9467040C9467040C946704A4
:100030000C9467040C9467040C9467040C94670494
:100040000C94420F0C9467040C9411070C94EB066B
:100050000C9467040C9467040C9467040C94670474
:100060000C9467040C946704F405E7058406CA053C
:100070008406CF0584068406840684068406D90592
:10008000E20584061406A909A409AA096A096C09EB
:10009000850979096F09AD0967098E09AA09AA09B5
:1000A000A209FB00003E000B003600010002000325
:1000B000000000650054FFEF0000FA80000B128280
:1000C000000100020000000000000000000000002D
:1000D000000000280000FFFF4581FFFFFA720000CA
:1000E0000000000003E80000000100017FFFFFFEA8
:1000F0008001001B00000000000000000000000064
:100100000000004000004000000002CB47A2200099
:10011000000020000000000000004000000060001F
:10012000000041FF000000000B2A000016550000EF
:100130002182FD872650FD800000001F0000000581
:100140008000000000000001000000020000000329
:100150000000400000000000046F00026532000053
:100160005EC0400000000000000000000000000031
:100170000000FB8C6F5DFD5D08D9007C733B006C5B
:1001800012CC3200139D3200D0D63200080040005D
:1001900001F4FFE68079020000000000D0D60000E4
:1001A0002710FB00000040000000000000000000DD
:1001B000000000000001000000000000010001003C
:1001C00000000000FA36FFBC308E0005FBF0FFD9BE
:1001D0005BC8FFD09ABE000010A9FFF41EB200CE8B
:1001E000BBF7000000010000000400020002020052
:1001F000000CFFC280000001800000CF80004000A2
:1002000000000000000000000000000006000000E8
:1002100000140000000000000000000000000000CA
:1002200000000000000000000000000000000000CE
:1002300000000923A13500000000000000000000BC
:10024000000000000000033F68B6793528BCC67E78
:10025000D16C8000FFFF400000000000B26A000087
:100260000000000000000000000000003FF000005F
:10027000003000000000000000000000000000004E
:10028000000000000000000000000000000000006E
:1002900040000000254D002F706D000005AE000CE1
:1002A00002D00000000000650054FFEF00000000D5
:1002B0000000000001000044000100058BC10000A7
:1002C0000100000000000065000000540000FFEF86
:1002D000000000000000000000000000000000001E
:1002E000000000000000000000000000000000000E
:1002F00000000000000000000000000000000000FE
:1003000000000000000100000002000000000000EA
:1003100000000000000000000000000000000000DD
:1003200000000000000000000000000000000000CD
:100330000000001B000000000000000000000000A2
:1003400000000000000000000000000000000000AD
:10035000000000000000000000000000000000009D
:100360000000001B00000000000000000000000072
:10037000000000000000000000000000000000007D
:10038000000000000000000000000000000000006D
:10039000000000000000000000000000000000005D
:1003A0000000D8DCBAA2F1DEB2B8B4A88191F74A55
:1003B000907F916AF3F9DBA8F9B0BAA080F2CE8100
:1003C000F3C2F1C1F2C3F3CCA2B280F1C6D880BAB5
:1003D000A7DFDFDFF2A7C3CBC5B6F087A29424481E
:1003E000703C95406834589B78A2F183922D557DDE
:1003F000D8B1B4B8A1D09180F270F370F27C80A82B
:10040000F101B09887D943D886C988BAA1F20EB84D
:100410009780F1A9DFDFDFAADFDFDFF2AA4CCD6C26
:10042000A90CC92C97979797F1A989264666B0B46D
:10043000BA80ACDEF2CAF1B28C02A9B69800890E7D
:10044000161EB8A9B4992C547CB08AA89636567654
:10045000F1B9AFB4B083C0B8A89711B18F98B9AF54
:10046000F0240844106418F1A329557DAF83B59397
:10047000AFF0002850F1A3869F61A6DADEDFD9FA3B
:10048000A38696DB31A6D9F8DFBAA68FC2C5C7B25C
:100490008CC1B8A2DFDFDFA3DFDFDFD8D8F1B8A8D7
:1004A000B286B4980D355DB8AA98B0872D353DB2A7
:1004B000B6BAAF8C96198F9FA70E161EB49AB8AA1B
:1004C000872C547CB9A3DEDFDFA3B180F2C4CDC991
:1004D000F1B8A9B499830D355D89B9A32D557DB5C2
:1004E00093A30E161EA92C547CB8B4B0F19783A820
:1004F0001184A50998A383F0DA240844106418D85D
:10050000F1A529557DA58595021A2E3A565A4048DF
:10051000F9F3A3D9F8F0988324084410641897825B
:10052000A8F111F098A2240844106418DAF3DED878
:1005300083A59401D9A302F1A2C3C5C7D8F18492BF
:10054000A24DDA2AD84869D92AD86855DA32D85063
:1005500071D932D8705DDA3AD85879D93AD87893C7
:10056000A34DDA2AD84869D92AD86855DA32D85042
:1005700071D932D8705DDA3AD85879D93AD878A892
:100580008A9AF02850789EF38818F19F1D98A8D970
:1005900008D8C89F129EF315A8DA1210D8F1AFC878
:1005A000978734B5B994A421F3D922D8F22DF3D981
:1005B0002AD8F235F3D932D881A4606061D961D8E4
:1005C0006C6869D969D8747071D971D8B1A384196C
:1005D0003D5DA3831A3E5E931030811011B8B0AF19
:1005E0008F94F2DA3ED8B49AA88729DAF8D8879A95
:1005F00035DAF8D8879A3DDAF8D8B1B9A4988502E7
:100600002E56A581000C14A397B08AF12DD928D8B5
:100610004DD948D86DD968D8B1840DDA0ED8A32940
:1006200083DA2C0ED8A3844983DA2C4C0ED8B8B0C8
:10063000A88A9AF520AADADFD8A840AAD0DADED8AC
:10064000A860AADAD0DFD8F19786A8319B0699076F
:10065000AB9728889BF00C201440B8B0B4A88C9CB1
:10066000F0042851791D301438B282ABD0982C5048
:100670005078789BF11AB0F08A9CA82951798B297F
:1006800051798A2470598B2058718A4469388B3982
:1006900040688A6448318B304960A58820097158C8
:1006A0004468113964493019F1AC002C547CF08C49
:1006B000A804285078F1889726A85998AC8C02266F
:1006C0004666F0899CA82951792470594469386498
:1006D0004831A98809205970AB11384069A81931EF
:1006E00048608CA83C415C207C00F187981986A862
:1006F0006E767EA999882D557D9EB9A38A228A6E31
:100700008A568A5E9FB183062646660E2E4E6E9DE1
:10071000B8AD002C547CF2B18CB499B9A32D557DA1
:100720008191AC38AD3AB58391AC2DD928D84DD94B
:1007300048D86DD968D88C9DAE29D904AED851D986
:1007400004AED879D904D881F39DAD008DAE19815E
:10075000ADD901D8F2AEDA26D88E912983A7D9ADCA
:10076000ADADADF32AD8D8F1B0AC89913E5E76F349
:10077000AC2E2EF1B18C5A9CAC2C2828289CAC3085
:1007800018A8988128343C9724A728343C9C24F24C
:10079000B089AC912C4C6C8A9B2DD9D8D851D9D822
:1007A000D879D9D8D8F19E88A331DAD8D8912DD963
:1007B00028D84DD948D86DD968D8B18393353D80B4
:1007C00025DAD8D88569DAD8D8B49381A328343CFF
:1007D000F3AB8BF8A391B609B4D9ABDEFAB0879C22
:1007E000B9A3DDF1202830389AF12830389DF1A3E3
:1007F000A3A3A3F2A3B49080F2A3A3A3A3A3A3A350
:10080000A3A3A3B2A3A3A3A3A3A3B087B599F128DD
:10081000303898F1A3A3A3A397A3A3A3A3F39BA307
:1008200030DCB9A7F1262626FED8FF000000002400
:100830000027002A0000000000250028002B0004EB
:100840000404040404040402020202020203030377
:100850000303030102040810204080010204081071
:10086000200102040810200000000800020100001E
:100870000304070000000000000000006E161124B1
:100880001FBECFEFD8E0DEBFCDBF11E0A0E0B1E0EA
:10089000E2ECF4E302C005900D92AA38B107D9F753
:1008A00022E0AAE8B1E001C01D92A53CB207E1F741
:1008B00014E0CFE3D4E004C02197FE010E94341776
:1008C000CE33D107C9F70E948C0F0C945F1A0C9499
:1008D00000000895CF92DF92EF92FF920F931F9343
:1008E000CF93DF936C017A018B01C0E0D0E0CE158D
:1008F000DF0581F0D8016D918D01D601ED91FC915C
:100900000190F081E02DC6010995892B11F0219607
:10091000EECF7E01C701DF91CF911F910F91FF9024
:10092000EF90DF90CF900895089580E090E00895D3
:10093000FC01538D448D252F30E0842F90E0821BE5
:10094000930B541710F0CF96089501970895FC016A
:10095000918D828D981761F0828DDF01A80FB11DF6
:100960005D968C91928D9F5F9F73928F90E008951A
:100970008FEF9FEF0895FC01918D828D981731F0D4
:10098000828DE80FF11D858D90E008958FEF9FEF28
:100990000895FC01918D228D892F90E0805C9F4FFE
:1009A000821B91098F739927089581EC91E00E9431
:1009B000C90421E0892B09F420E0822F0895FC016D
:1009C000848DDF01A80FB11DA35ABF4F2C91848DD8
:1009D00090E001968F739927848FA689B7892C930D
:1009E000A089B1898C91837080648C93938D848D60
:1009F000981306C00288F389E02D80818F7D808363
:100A00000895EF92FF920F931F93CF93DF93EC0122
:100A100081E0888F9B8D8C8D981305C0E889F989BA
:100A2000808185FD26C0F62E0B8D10E00F5F1F4FD5
:100A30000F731127E02E8C8DE8120CC00FB607FC47
:100A4000FACFE889F989808185FFF5CFCE010E9430
:100A5000DF04F1CF8B8DFE01E80FF11DE35AFF4F4C
:100A6000F0829FB7F8940B8FEA89FB8980818062BE
:100A70000AC09FB7F894EE89FF896083E889F989F5
:100A800080818370806480839FBF81E090E0DF91EC
:100A9000CF911F910F91FF90EF900895CF93DF9327
:100AA000EC01888D8823C9F0EA89FB89808185FD66
:100AB00005C0A889B9898C9186FD0FC00FB607FCC7
:100AC000F5CF808185FFF2CFA889B9898C9185FF08
:100AD000EDCFCE010E94DF04E7CFDF91CF910895E3
:100AE00080E090E0892B29F00E94D50481110C94BC
:100AF000000008952AEF30E08091BC0087FD03C01C
:100B000021503109C8F781E0121613060CF080E07D
:100B100008950895E0918A01F0918B01828D938D63
:100B2000A48DB58D0196A11DB11D828F938FA48FC9
:100B3000B58F81819281019719F481E080938C01B6
:100B400008950E944D1A2F923F924F925F926F929A
:100B50007F928F929F92AF92BF92CF92DF92EF924D
:100B6000FF920F931F93CF93DF93CDB7DEB72797F5
:100B70000FB6F894DEBF0FBECDBF9A838983DA012A
:100B8000FB013197EF30F10508F0BEC0EC5CFF4F80
:100B90000C9434178C91E981FA818783B5C09C91BC
:100BA000E981FA8186819111ADC08E7FE981FA8158
:100BB000AAC0E981FA818581982F977C8C918873EE
:100BC000892B10C0E981FA81858182600BC09C91DC
:100BD000E981FA818581992311F0886003C0877FBC
:100BE000E981FA81858390C06C91E981FA81608303
:100BF00080E090E027960FB6F894DEBF0FBECDBF21
:100C0000DF91CF911F910F91FF90EF90DF90CF90E8
:100C1000BF90AF909F908F907F906F905F904F901C
:100C20003F902F900C94AF1689819A819F838E8379
:100C3000DC90FC0182A093A0EB5BFF4F2080318011
:100C4000FC01868181708D838D2D90E0A0E0B0E065
:100C50009C01AD012150310941095109ACEEBFEFB2
:100C60000E94EA1624E030E040E050E00E94BD1609
:100C700080E590E0A0E0B0E0BC01CD01621B730B09
:100C8000840B950B0E940A182AE037ED43E25CE3DF
:100C90000E94BF182B013C012AE939E949E95EE3CA
:100CA0000E94BF1869837A838B839C8320E030E0A5
:100CB00044EB52E4C301B2010E94BF185401CD2C91
:100CC0007B018C0129813A814B815C8163E4C10104
:100CD0000E948A0C20E030E040EA51E4C301B201F6
:100CE0000E94BF187B018C0129813A814B815C8174
:100CF0006BE3C1010E948A0CFD81FF2329F0EE8184
:100D0000FF8186818160868327960FB6F894DEBFC7
:100D10000FBECDBFDF91CF911F910F91FF90EF904C
:100D2000DF90CF90BF90AF909F908F907F906F900B
:100D30005F904F903F902F9008951F920F920FB6A3
:100D40000F9211242F933F934F935F936F937F9351
:100D50008F939F93AF93BF93EF93FF93E091020123
:100D6000F09103010995FF91EF91BF91AF919F9190
:100D70008F917F916F915F914F913F912F910F9044
:100D80000FBE0F901F9018951F920F920FB60F92E3
:100D900011242F933F934F935F936F937F938F9380
:100DA0009F93AF93BF93EF93FF93E0910001F09176
:100DB00001010995FF91EF91BF91AF919F918F91A3
:100DC0007F916F915F914F913F912F910F900FBE47
:100DD0000F901F9018951F920F920FB60F9211242B
:100DE0002F933F934F935F936F937F938F939F9333
:100DF000AF93BF93EF93FF9381EC91E00E94DF04E8
:100E0000FF91EF91BF91AF919F918F917F916F91E2
:100E10005F914F913F912F910F900FBE0F901F90B8
:100E200018951F920F920FB60F9211242F938F9344
:100E30009F93EF93FF93E091D101F091D2018081D4
:100E4000E091D701F091D80182FD12C0908180918C
:100E5000DA018F5F8F732091DB01821751F0E091EF
:100E6000DA01F0E0EF53FE4F958F8093DA0101C075
:100E70008081FF91EF919F918F912F910F900FBEE5
:100E80000F901F90189584E98093BC000E947A050A
:100E900091E089270895AF92BF92CF92DF92EF92AF
:100EA000FF920F931F93CF93DF93D82FF62E042F2B
:100EB000D52EC22F13E044EBE42E8E7FC82E54E8CB
:100EC000B52EE092BC000E947A058823B9F080918B
:100ED000B900887F883011F0803191F4C092BB0056
:100EE000B092BC000E947A05882361F08091B9001D
:100EF000887F803249F4115021F708C080E178C022
:100F000081E176C082E174C0883111F083E170C064
:100F1000F092BB0084E88093BC000E947A0588238D
:100F200041F18091B900887F883229F513E024EBE4
:100F3000F22ED16034E8E32EF092BC000E947A05D4
:100F40008823D9F08091B900887F883011F08031F2
:100F5000B1F4D093BB00E092BC000E947A058823D4
:100F600081F09091B900987F983479F4115021F76D
:100F70000AC084E13DC085E13BC086E139C087E11C
:100F800037C088E135C089E133C09034E1F7E02E05
:100F9000FD2CD0E000E010E06E01E1E0CE1AD108B7
:100FA00084ECB82E94E8A92E0C171D07E1F00C155F
:100FB0001D0519F4A092BC0002C0B092BC000E94B2
:100FC0007A058823A1F08091B900982F907F903501
:100FD00011F0887F0DC08091BB00F70181937F01E4
:100FE0000F5F1F4FE1CF0E94430780E001C08AE1FD
:100FF000DF91CF911F910F91FF90EF90DF90CF90F5
:10100000BF90AF9008958093BB0084E88093BC00AC
:101010000E947A05882339F08091B900887F883250
:1010200021F480E0089581E0089582E008950F930F
:101030001F93CF93DF93D82FDD0FC3E014EB04E8A9
:101040001093BC000E947A058823B9F08091B90002
:10105000887F883011F0803191F4D093BB000093E9
:10106000BC000E947A05882361F08091B900887FD6
:10107000803259F4C15021F706C081E009C082E0F6
:1010800007C083E005C084E003C08831E1F780E059
:10109000DF91CF911F910F910895CF93DF93D62FBA
:1010A000C42F0E9417088D2F0E9403088C2F0E94C6
:1010B00003080E94430781E0DF91CF9108959F923A
:1010C000AF92BF92CF92DF92EF92FF920F931F9356
:1010D000CF93DF93D82F962EC42F59010E94360F3D
:1010E0006B017C012C2FA501692D8D2F880F0E948B
:1010F0004B07811102C0DC2F01C0DFEF0115110584
:10110000C9F00E94360FDC01CB018C199D09AE0994
:10111000BF0920E030E080179107A207B30750F025
:101120004C2F50E08D2F0D2E000C990B8417950736
:101130000CF4DFEF8D2FDF91CF911F910F91FF9076
:10114000EF90DF90CF90BF90AF909F900895CF9297
:10115000DF92EF92FF920F931F93CF93DF931F9233
:10116000CDB7DEB7F82EE62ED42EC22E08EE13E051
:101170009E012F5F3F4F41E00E945F08898141E05F
:1011800050E001C0440FDA94EAF7CC2011F0482B6C
:1011900002C04095482349836E2D8F2D0E944D0833
:1011A0000F90DF91CF911F910F91FF90EF90DF9003
:1011B000CF900895BF92CF92DF92EF92FF920F935C
:1011C0001F93CF93DF931F92CDB7DEB7F82EE62E95
:1011D000C42EB22ED02E08EE13E09E012F5F3F4F9B
:1011E00041E00E945F08882339F12C2D30E02B1953
:1011F00031092F5F3F4F81E090E002C0880F991FB7
:10120000BA94E2F70197022E01C0880F0A94EAF718
:101210004D2D50E0BA0102C0660F771F2A95E2F704
:10122000482F4095998149238623482B49836E2D69
:101230008F2D0E944D0801C080E00F90DF91CF916B
:101240001F910F91FF90EF90DF90CF90BF90089586
:10125000BF92CF92DF92EF92FF920F931F93CF93A3
:10126000DF93B62E7A016901FA01E15FFE4FC0817A
:10127000D0E004E010E063E281EC91E00E9401051F
:1012800001501109C1F76E2D81EC91E00E9401051A
:101290006B2D81EC91E00E940105AE01B60181EC5D
:1012A00091E0DF91CF911F910F91FF90EF90DF9030
:1012B000CF90BF900C946A04DC01FB013197EE30B3
:1012C000F10508F047C0ED5BFF4F0C94341784E341
:1012D00091E008950796089585E091E0089581E0F2
:1012E00090E011962D913C9112972230310551F4E6
:1012F00012C081E090E011962D913C91129721301F
:10130000310549F080E090E006C016968C91282FB8
:10131000217030E0C9018C5F9E4F0895FC0125E0EB
:1013200031E04BE050E06EE070E082A193A10E94BA
:10133000280960ED77E080E090E00E94500C84E0A6
:1013400091E008954A96089516968C91887090E0E1
:10135000E2CF089580E090E0089586E091E008955E
:10136000CF93DF931F92CDB7DEB78983CB019E0168
:101370002F5F3F4F4FE050E06CE070E00E94280983
:101380000F90DF91CF910895009769F0FC010190D3
:101390000020E9F73197AF01481B590BBC0181ECE4
:1013A00091E00C946A0480E090E008950C94C409E4
:1013B0008F929F92AF92BF920F931F93CF93DF9321
:1013C000CDB7DEB7A1970FB6F894DEBF0FBECDBF85
:1013D00019A2423008F44AE08E010F5D1F4F842E9F
:1013E000912CA12CB12CA50194010E94EF16E62F9F
:1013F000B901CA0101501109EA3014F4E05D01C0DD
:10140000E95CD801EC93232B242B252B61F7C80131
:101410000E94C409A1960FB6F894DEBF0FBECDBFDF
:10142000DF91CF911F910F91BF90AF909F908F90C0
:1014300008952F923F924F925F926F927F928F9278
:101440009F92AF92BF92CF92DF92EF92FF920F9353
:101450001F93CF93DF9300D000D01F92CDB7DEB79C
:101460009A8389833B01342E522E202E4F716DE6D4
:1014700080915E020E944D08452D6EE680915E02CD
:101480000E944D0880E190E00E942C196C0100231D
:1014900031F080E190E00E942C197C0102C0E12C27
:1014A000F12C1D821C822C813D812615370508F008
:1014B000F4C0C90140966816790618F4462C421A01
:1014C00002C080E1482E842D90E020E031E0251913
:1014D00031092817390714F4452C4194222089F04A
:1014E000D70180E090E0841590F4EC81FD81E80F55
:1014F000F91F29813A81E20FF31FE491ED930196E0
:10150000F2CFE980FA808C819D81E80EF91E8091EE
:101510005E020E9417088FE60E94030857014701E8
:10152000EB82882D8E19841530F4F40181914F01DE
:101530000E940308F6CF0E944307842C912CC1140B
:10154000D10409F48EC0432D4F716DE680915E0287
:101550000E944D08452D6EE680915E020E944D0866
:1015600008EE13E09601442D6FE680915E020E9422
:101570005F08A401B601C7010E94521A892B09F421
:1015800070C08AE391E00E94D609632D70E080E08C
:1015900090E04AE00E94D80980E691E00E94D609D6
:1015A000652D70E080E090E04AE00E94D8098BE66B
:1015B00091E00E94D6098A2DFB818F1B8415C8F407
:1015C00087E791E00E94D6094501F50180818031CD
:1015D00020F48BE791E00E94D609FFEFAF1ABF0A13
:1015E000F401608170E080E090E040E10E94D80961
:1015F000E2CF8DE791E00E94D6092C813D812C0D30
:101600003D1D3A832983912C4914F1F087E791E03D
:101610000E94D609A980BA80F5018081803120F42A
:101620008BE791E00E94D60929813A812F5F3F4FD5
:101630003A832983F501608170E080E090E040E129
:101640000E94D8099394E0CF88E891E00E94D609DF
:10165000C6010E94C419222049F1C7010E94C41981
:1016600025C02C813D81280D391D3D832C83540CD0
:101670002615370508F017CF511001C03394432DBC
:101680004F716DE680915E020E944D08452D6EE619
:1016900080915E020E944D0806CFC6010E94C419C7
:1016A000222031F0C7010E94C41902C080E001C0AD
:1016B00081E00F900F900F900F900F90DF91CF91DE
:1016C0001F910F91FF90EF90DF90CF90BF90AF9060
:1016D0009F908F907F906F905F904F903F902F9052
:1016E00008951F93CF93DF93162FEA010E941708E6
:1016F000812F0E94030889810E94030888810E942B
:101700000308C82F0E94430781E0C11180E0DF91E8
:10171000CF911F9108958F929F92AF92BF92CF92D7
:10172000DF92EF92FF920F931F93CF93DF9300D03E
:10173000CDB7DEB7D82EC62E8A0179010E94360FAA
:101740004B015C0122E0AE014F5F5F4F6C2D8D2D90
:10175000880F0E944B0781110AC089819A819827BE
:1017600089279827F8019183808311E001C01FEF3A
:10177000E114F10499F00E94360FAB01BC01481945
:1017800059096A097B09C701A0E0B0E04817590769
:101790006A077B0718F0113009F01FEF812F0F90B7
:1017A0000F90DF91CF911F910F91FF90EF90DF90FD
:1017B000CF90BF90AF909F908F9008953FB7F894CF
:1017C0008091BD029091BE02A091BF02B091C00273
:1017D00026B5A89B05C02F3F19F00196A11DB11D8C
:1017E0003FBFBA2FA92F982F8827820F911DA11DC7
:1017F000B11DBC01CD0142E0660F771F881F991F04
:101800004A95D1F7089590E0FC01E959F74F2491EA
:10181000FC01ED5AF74F3491FC01E15CF74FE49184
:10182000EE2309F43CC0222339F1233091F038F43F
:101830002130A9F0223001F584B58F7D12C0273008
:1018400091F02830A1F02430B9F4809180008F7D90
:1018500003C0809180008F77809380000DC084B595
:101860008F7784BD09C08091B0008F7703C08091CD
:10187000B0008F7D8093B000F0E0EE0FFF1FEB5CB7
:10188000F74FA591B4919FB7F894611104C08C9162
:101890003095382302C0EC913E2B3C939FBF0895B6
:1018A0008F929F92AF92BF92CF92DF92EF92FF9270
:1018B0006B017C010E94DE0B4B015C01C114D10461
:1018C000E104F104F1F00E94DE0BDC01CB01881988
:1018D0009909AA09BB09883E9340A105B10570F397
:1018E00021E0C21AD108E108F10888EE880E83E0F1
:1018F000981EA11CB11CC114D104E104F10419F714
:10190000DDCFFF90EF90DF90CF90BF90AF909F9092
:101910008F9008952F923F924F925F926F927F9295
:101920008F929F92AF92BF92CF92DF92EF92FF92EF
:101930000F931F93CF93DF93CDB7DEB7E5970FB625
:10194000F894DEBF0FBECDBF988F8F8B6D8F2EA307
:101950003FA348A759A7EAA6FBA60CA71DA7BBAAA9
:10196000AAAA6B3309F080C208EE13E09E012F5F34
:101970003F4F41E065E7DC018C910E945F088823BE
:1019800069F089818E7790E095958795EF89F88D3C
:101990008183883318F017E703E002C016E002E005
:1019A0009E01235F3F4F3E8B2D8BCE0101967C0124
:1019B0004901D12E28EE33E0AE014D5E5F4F6D2D13
:1019C000EF89F88D80810E948B0BAB88BC88B501B4
:1019D0000B2C000C880B990B0E940A18133191F004
:1019E000F1E0AF22BB24D401AD92BC9220E030E004
:1019F00040E051E40E94BF18F70160837183828345
:101A000093830CC020E030E040E850E40E94BF180F
:101A1000D7016D937D938D939C931397D00EB2E075
:101A20008B0E911CE4E0EE0EF11C2D893E89E2162E
:101A3000F30609F0BFCF3D8D3B3329F48DEC9CECD0
:101A4000ACE4BDE304C080E090E0A0E8BFE38EA773
:101A50009FA7A8ABB9AB1A8E198EAC2DB0E0BDAB69
:101A6000ACABECA9FDA9298D3A8D2E173F070CF0E0
:101A7000D2C11F8E1E8E212C312CCE0101969CA32B
:101A80008BA3DE011D96BAA3A9A318A3BD8DBDA388
:101A9000412C512C32011C8E1B8E28EE33E0AE01FE
:101AA0004D5E5F4F6DA1EF89F88D80810E948B0B99
:101AB0006B897C89072E000C880B990B0E940A18F1
:101AC0006B017C01FD8DFB3369F42B8D3C8D223045
:101AD000310541F420E030E040E856E40E94601710
:101AE0006B017C0146015701B7FAB094B7F8B09486
:101AF000C301B2010E9408182B013C0120E030E034
:101B0000A901C701B6010E94BA1818162CF0782D49
:101B1000692D9A2D8B2D04C07C2D6D2D9E2D8F2D22
:101B2000272F362F492F582FC301B2010E9461176A
:101B30000E94D9172B013C012EA13FA148A559A510
:101B4000C501B4010E94BF186B017C012FE632E190
:101B500043E85AE3C501B4010E94BF182AA53BA57A
:101B60004CA55DA50E94BF18ABA1BCA12D913D91D4
:101B70004D915C910E9461179B01AC01EBA1FCA10E
:101B80006193719381939193FCA3EBA3C701B60179
:101B9000133141F10E94611720E030E040E05EE344
:101BA0000E94BF186B017C0120E030E0A9010E9477
:101BB000BA1820E030E040E05FE387FD05C0C701D0
:101BC000B6010E94611704C0C701B6010E946017E8
:101BD0000E94D2176E7FA9A1BAA18D919C91682B0A
:101BE000792B20C00E94611720E030E040E85EE3DE
:101BF0000E94BF186B017C0120E030E0A9010E9427
:101C0000BA1820E030E040E05FE387FD05C0C7017F
:101C1000B6010E94611704C0C701B6010E94601797
:101C20000E94D2177C8B6B8BAE014D5E5F4F68A11B
:101C3000EF89F88D80810E94710B2B8D3C8D2F5F79
:101C40003F4F3C8F2B8F3DA13E5F3DA388A1800F6E
:101C500088A3A9A1BAA11296BAA3A9A3EB8DFC8D62
:101C6000339709F01ACFF3E62F16310449F429EE21
:101C7000421623E052066104710410F0212C312C2D
:101C8000C301B2010E9408182EA53FA548A959A971
:101C90000E94BF1820E030E040EA50E40E94CD17D7
:101CA00087FF05C08E8D9F8D01969F8F8E8F94E646
:101CB000491651046104710490F5ABE02A16310411
:101CC00074F1EE8DFF8D3A9754F16AA97BA9898D45
:101CD0000E94B00920E030E040E45FE36EA17FA104
:101CE00088A599A50E94BF186EA37FA388A799A76E
:101CF00020E030E040E45FE36AA57BA58CA59DA5CC
:101D00000E94BF186AA77BA78CA79DA79E012F5F83
:101D10003F4F7901CE010D963C01D12E0FC061E0FD
:101D200070E080E090E00E94500C9FEF291A390A81
:101D3000A4E62A16310409F0A0CEC7CF133151F121
:101D400020E030E040E05EE3F70160817181828154
:101D500093810E94BF184B015C0120E030E0A90193
:101D60000E94BA1820E030E040E05FE387FD05C044
:101D7000C501B4010E94611704C0C501B4010E94ED
:101D800060170E94D2176E7FD3018D919C91682BB2
:101D9000792B23C020E030E040E85EE3F70160816A
:101DA0007181828193810E94BF184B015C0120E008
:101DB00030E0A9010E94BA1820E030E040E05FE383
:101DC00087FD05C0C501B4010E94611704C0C501AB
:101DD000B4010E9460170E94D2177C8B6B8BAE01FE
:101DE0004D5E5F4F6D2DAF89B88D8C910E94710B48
:101DF000D00EB2E06B0E711CE4E0EE0EF11C2D89EA
:101E00003E89E216F30609F099CF898D9A8D0196E5
:101E10009A8F898F26CE21E042E06AE6AF89B88D9D
:101E20008C910E94A70821E043E06AE6EF89F88DD3
:101E300080810E94A708E5960FB6F894DEBF0FBE1A
:101E4000CDBFDF91CF911F910F91FF90EF90DF9069
:101E5000CF90BF90AF909F908F907F906F905F904A
:101E60004F903F902F90089513E199CD2FB7F8949C
:101E70006091B9027091BA028091BB029091BC024C
:101E80002FBF08951F920F920FB60F9211242F9318
:101E90003F938F939F93AF93BF938091B90290919B
:101EA000BA02A091BB02B091BC023091B80223E00B
:101EB000230F2D3720F40196A11DB11D05C026E882
:101EC000230F0296A11DB11D2093B8028093B90281
:101ED0009093BA02A093BB02B093BC028091BD0262
:101EE0009091BE02A091BF02B091C0020196A11DC7
:101EF000B11D8093BD029093BE02A093BF02B09328
:101F0000C002BF91AF919F918F913F912F910F9000
:101F10000FBE0F901F901895CF93DF93CDB7DEB70C
:101F2000E4970FB6F894DEBF0FBECDBF789484B5AA
:101F3000826084BD84B5816084BD85B5826085BDC5
:101F400085B5816085BD80916E00816080936E0053
:101F50001092810080918100826080938100809145
:101F600081008160809381008091800081608093F6
:101F700080008091B10084608093B1008091B000B6
:101F800081608093B00080917A00846080937A00B1
:101F900080917A00826080937A0080917A008160DB
:101FA00080937A0080917A00806880937A00109202
:101FB000C10061E08EE00E94030C61E08DE00E94B0
:101FC000030C64E670E080E090E00E94500C60E05A
:101FD0008DE00E94030C64E670E080E090E00E94D7
:101FE000500C61E08DE00E94030C64E670E080E03C
:101FF00090E00E94500C60E08DE00E94030C4FE8DE
:10200000E42E41E0F42E8CE599E09093B2018093A8
:10201000B10183EA95E09093B4018093B30189E81C
:1020200095E09093B6018093B50101E712E010931B
:10203000B8010093B70181EC91E09093B0018093D7
:10204000AF01E091D101F091D20182E08083E09173
:10205000CD01F091CE011082E091CF01F091D0013D
:1020600080E180831092D901E091D501F091D601F1
:1020700086E08083E091D301F091D401808180617A
:102080008083E091D301F091D401808188608083C6
:10209000E091D301F091D401808180688083E09148
:1020A000D301F091D40180818F7D808381E090E025
:1020B0009093BC018093BB011092C0011092BF01AC
:1020C0000E94360F9B01AC0160937B0230937C022F
:1020D00040937D0250937E0210927F021092800204
:1020E00010928102109282020E94360F9B01AC0175
:1020F000609383023093840240938502509386025A
:1021000010928702109288021092890210928A021D
:10211000F0929402E09293028EE592E09093B702DF
:102120008093B602F0928E01E0928D0110938B01A4
:1021300000938A0180E090E00E94A71680937102CC
:1021400010927302109272021092BC0088B18063E8
:1021500088B91092B9008CE08093B80084E0809335
:10216000BC00E5E5F8E02491E1E4F8E084918823FF
:10217000C9F090E0880F991FFC01E55DF74F45918C
:102180005491FC01EB5CF74FA591B4919FB7F89483
:10219000FA0180812095822380838C91E22FE823AD
:1021A000EC939FBF01E023E042E06BE680915E028A
:1021B0000E94DA0800E022E044E06BE180915E02D8
:1021C0000E94DA0822E044E06CE180915E020E9405
:1021D000DA0820E046E06BE680915E020E94A708E4
:1021E00064EF71E080E090E00E94500C21E047E055
:1021F0006BE680915E020E94A7086EE170E080E0CD
:1022000090E00E94500C20E046E06BE680915E0278
:102210000E94A70840E76DE680915E020E944D088B
:1022200046E06EE680915E020E944D0840E06DE659
:1022300080915E020E944D084FE765E280915E0248
:102240000E944D0820E045E06AE680915E020E940F
:10225000A70848E665E280915E020E944D0821E0F1
:1022600041E06AE680915E020E94A70864E170E0A6
:1022700080E090E00E94500C03E023E042E06BE637
:1022800080915E020E94DA0842E168E380915E027A
:102290000E944D0844E069E180915E020E944D0871
:1022A00001E023E045E06AE180915E020E94DA08E5
:1022B00003E023E042E06AE180915E020E94DA08D6
:1022C00022E044E06BE180915E020E94DA0801E0C6
:1022D00020E040E069E877E082EA90E00E94190A95
:1022E000882309F493C0198281E08A8300E026E103
:1022F00042E062E070E0CE0101960E94190A43E0DC
:1023000060E780915E020E944D0840E061E78091A5
:102310005E020E944D0820E040E060E080915E0295
:102320000E94A70842E06FE180915E020E944D0882
:102330004CE961E280915E020E944D0840E560E256
:1023400080915E020E944D0840E062E280915E0250
:102350000E944D0821E046E06AE680915E020E94FC
:10236000A70821E043E06AE680915E020E94A70888
:1023700020E047E06AE680915E020E94A7088AE2B8
:1023800090E09093700280936F0221E042E06AE651
:1023900080915E020E94A70808EE13E02FE532E06C
:1023A00041E06AE380915E020E945F0880916F02C3
:1023B0009091700290937A028093790221E047E035
:1023C00067E380915E020E94A70820E045E067E392
:1023D00080915E020E94A70821E047E06AE68091B2
:1023E0005E020E94A7088AE895E09093010180931D
:1023F000000180916900836080936900E89A81E020
:1024000090E0909373028093720204C01092730262
:102410001092720222242394312C80918C01882303
:1024200009F49EC010928C01E0908A01F0908B011B
:102430005701F5E4AF0EB11CD501CD90DC909601AB
:102440002F5F3F4F08EE13E042E062E7F601808124
:102450000E945F08D60111968D919C911297982742
:10246000892798274C970CF47BC061E08DE00E948F
:10247000030CF701868D978DA0A1B1A10196A11D36
:10248000B11D868F978FA0A3B1A34085442359F037
:10249000D501ED91FC919E012F5F3F4F64E7808154
:1024A0000E945F0801C019828D809E809824892433
:1024B0009824A984BA84BA24AB24BA24CD84DE84B7
:1024C000DC24CD24DC2469817A817627672776276E
:1024D000072E000C880B990B0E940A1820E030E0B0
:1024E00040E858E30E94BF18F70164A375A386A3D0
:1024F00097A3B401990C880B990B0E940A1820E04D
:1025000030E040E858E30E94BF18D70198966D93D9
:102510007D938D939C939B97B501BB0C880B990B76
:102520000E940A1820E030E040E858E30E94BF18FB
:10253000F70164A775A786A797A7B601DD0C880BDE
:10254000990B0E940A1820E030E040E858E30E940E
:10255000BF18D701D0966D937D938D939C93D3979D
:102560008091720290917302019709F0B5C2809137
:10257000770280FFB1C20E94360F4B015C019B01C4
:10258000A50160E070E080E090E0A0908302B09050
:102590008402C0908502D0908602E0908702F0907D
:1025A00088020091890210918A020E943A17E52E52
:1025B000F62E072FF82FE92F6091780270E088EE51
:1025C00093E00E9420175B011B2D110F110B5E2D54
:1025D0006F2D702F8F2F9E2FC12ED12EE12EF12E19
:1025E000012F0E94431709F008F476C20E94360FAB
:1025F0004B015C016093830290928402A092850259
:10260000B09286021092870210928802109289027C
:1026100010928A028091760281FF56C04091A102F9
:102620005091A2026091A3027091A402705800918F
:102630009D0210919E0220919F023091A00230587D
:10264000C0909902D0909A02E0909B02F0909C0278
:10265000F7FAF094F7F8F094809095029090960233
:10266000A0909702B09098028092A5029092A60244
:10267000A092A702B092A802C092A902D092AA0288
:10268000E092AB02F092AC020093AD021093AE0266
:102690002093AF023093B0024093B1025093B20244
:1026A0006093B3027093B4028D7F8460809376024E
:1026B00024E031E04DE050E06DE070E08091930265
:1026C000909194020E9428091091760212FF68C12D
:1026D0008091A5029091A602A091A702B091A802B4
:1026E0008DA79EA7AFA7B8AB8091A9029091AA022F
:1026F000A091AB02B091AC0289AB9AABABABBCABD7
:10270000C090AD02D090AE02E090AF02F090B00267
:102710008090B1029090B202A090B302B090B40247
:102720008091950290919602A0919702B0919802A3
:102730008D8F9E8FAF8FB8A38091990290919A024E
:10274000A0919B02B0919C0289A39AA3ABA3BCA3C6
:1027500080919D0290919E02A0919F02B091A00253
:102760008DA39EA3AFA3B8A78091A1029091A202CE
:10277000A091A302B091A40289A79AA7ABA7BCA776
:102780002DA53EA54FA558A96D8D7E8D8F8D98A145
:102790000E94BF182B013C0129A93AA94BA95CA9A9
:1027A00069A17AA18BA19CA10E94BF189B01AC01D9
:1027B000C301B2010E9460172B013C01A7019601E1
:1027C0006DA17EA18FA198A50E94BF189B01AC01AD
:1027D000C301B2010E9460172B013C0129A53AA553
:1027E0004BA55CA5C501B4010E94BF189B01AC01BB
:1027F000C301B2010E946017609395027093960224
:10280000809397029093980229A93AA94BA95CA9B1
:102810006D8D7E8D8F8D98A10E94BF182B013C017C
:102820002DA53EA54FA558A969A17AA18BA19CA170
:102830000E94BF189B01AC01C301B2010E94611745
:102840002B013C012DA13EA14FA158A5C501B4010A
:102850000E94BF189B01AC01C301B2010E94611725
:102860002B013C01A701960169A57AA58BA59CA522
:102870000E94BF189B01AC01C301B2010E94601706
:102880006093990270939A0280939B0290939C02AA
:10289000A70196016D8D7E8D8F8D98A10E94BF1826
:1028A0002B013C0129A13AA14BA15CA1C501B401B6
:1028B0000E94BF189B01AC01C301B2010E946017C6
:1028C0002B013C012DA53EA54FA558A96DA17EA1C8
:1028D0008FA198A50E94BF189B01AC01C301B20152
:1028E0000E9461172B013C0129A93AA94BA95CA9B7
:1028F00069A57AA58BA59CA50E94BF189B01AC0178
:10290000C301B2010E94611760939D0270939E0201
:1029100080939F029093A0022D8D3E8D4F8D58A1E4
:10292000C501B4010E94BF184B015C01A7019601CB
:1029300069A17AA18BA19CA10E94BF189B01AC0147
:10294000C501B4010E9461176B017C0129A93AA954
:102950004BA95CA96DA17EA18FA198A50E94BF186B
:102960009B01AC01C701B6010E9460176B017C019D
:102970002DA53EA54FA558A969A57AA58BA59CA50F
:102980000E94BF189B01AC01C701B6010E946117EC
:102990006093A1027093A2028093A3029093A40279
:1029A00013FF11C08091990290919A02A0919B020D
:1029B000B0919C02B0588093990290939A02A09390
:1029C0009B02B0939C0214FF11C080919D029091D4
:1029D0009E02A0919F02B091A002B05880939D02E8
:1029E00090939E02A0939F02B093A00215FF11C086
:1029F0008091A1029091A202A091A302B091A402A1
:102A0000B0588093A1029093A202A093A302B09326
:102A1000A4028091770200918D0110918E0181FFB7
:102A200009C020918A0130918B012C5D3F4F42E01B
:102A300050E04DC020E030E040E856E4609195025F
:102A40007091960280919702909198020E94BF180F
:102A50000E94D2177A83698320E030E040E856E490
:102A60006091990270919A0280919B0290919C02D0
:102A70000E94BF180E94D2177C836B8320E030E055
:102A800040E856E460919D0270919E0280919F0201
:102A90009091A0020E94BF180E94D2177E836D837E
:102AA00020E030E040E856E46091A1027091A2027B
:102AB0008091A3029091A4020E94BF180E94D21795
:102AC00078876F839E012F5F3F4F43E050E06CE0BB
:102AD00070E0C8010E9428098091AF019091B00177
:102AE000DC01ED91FC910084F185E02D09956C01EC
:102AF000892B09F4F0C0E12CF12CEC14FD040CF04E
:102B0000EAC08091AF019091B001DC01ED91FC91A0
:102B10000284F385E02D09958F3F09F4DCC02091F4
:102B2000BB013091BC0123303105A1F138F42130D3
:102B3000310561F02230310599F0C9C024303105EA
:102B4000E1F12530310509F44BC0C1C0833209F0F1
:102B5000BEC0E2E0F0E0F093BC01E093BB010CC02A
:102B60002091BF013091C0012330310554F48332EC
:102B700009F0A5C02F5F3F4F3093C0012093BF01E4
:102B8000A6C02330310509F09AC03093BC012093D0
:102B9000BB0199C09FEF980F9F3008F090C0082E9E
:102BA000000C990B9093BE018093BD0184E090E0EE
:102BB0009093BC018093BB018AC095EF980F95302C
:102BC00008F07DC0082E000C990B9093BA018093F9
:102BD000B901A5E0B0E0B093BC01A093BB0177C000
:102BE0002091BF013091C0016091BD017091BE0183
:102BF000FB01E15FFE4F408150E041505109F90176
:102C0000E157FE4F2417350744F42F5F3F4F3093B1
:102C1000C0012093BF0180835AC080838091B90195
:102C20009091BA018C30910599F18D309105D1F0D8
:102C30000B9709F044C0E091B101F091B2014FE867
:102C400051E08091B7019091B80109954091BD0183
:102C50005091BE019C016EE070E08FE891E00E940F
:102C600028092DC02FE831E0AB016FE070E0C90109
:102C70000E9428096091BD017091BE01E091B501EB
:102C8000F091B6018091B7019091B801099517C0F4
:102C90002FE831E0AB016FE070E0C9010E94280924
:102CA0006091BD017091BE01E091B301F091B4015A
:102CB0004FE851E08091B7019091B80109953092A9
:102CC000BC012092BB011092C0011092BF01BFEF66
:102CD000EB1AFB0A12CF0E9470059FCBE1ECF1E0EA
:102CE0001382128288EE93E0A0E0B0E084839583A3
:102CF000A683B78386E291E09183808385EC90E0A0
:102D00009587848784EC90E09787868780EC90E0B5
:102D1000918B808B81EC90E0938B828B82EC90E0A6
:102D2000958B848B86EC90E0978B868B118E128E20
:102D3000138E148EE1E7F2E0108280E190E091873B
:102D400080871092B50288E680935E020895F99913
:102D5000FECF92BD81BDF89A992780B50895262FA0
:102D6000F999FECF1FBA92BD81BD20BD0FB6F89470
:102D7000FA9AF99A0FBE01960895052E97FB1EF454
:102D800000940E94D41657FD07D00E94EF1607FC4E
:102D900003D04EF40C94D41650954095309521955F
:102DA0003F4F4F4F5F4F0895909580957095619577
:102DB0007F4F8F4F9F4F08950E941117A59F900D31
:102DC000B49F900DA49F800D911D11240895B7FF0D
:102DD0000C94DC160E94DC16821B930B0895A1E272
:102DE0001A2EAA1BBB1BFD010DC0AA1FBB1FEE1F85
:102DF000FF1FA217B307E407F50720F0A21BB30BD0
:102E0000E40BF50B661F771F881F991F1A9469F74B
:102E100060957095809590959B01AC01BD01CF01A7
:102E20000895A29FB001B39FC001A39F700D811DA3
:102E30001124911DB29F700D811D1124911D0895C3
:102E400097FB072E16F4009407D077FD09D00E9457
:102E50004C1707FC05D03EF4909581959F4F08953F
:102E6000709561957F4F0895EE0FFF1F0590F491C7
:102E7000E02D09942A193B094C095D096E097F0967
:102E8000800B910B08952A153B054C055D056E05D9
:102E90007F05800791070895AA1BBB1B51E107C05E
:102EA000AA1FBB1FA617B70710F0A61BB70B881FDA
:102EB000991F5A95A9F780959095BC01CD01089569
:102EC0005058BB27AA270E9478170C9480180E949C
:102ED000721838F00E94791820F039F49F3F19F4E5
:102EE00026F40C946F180EF4E095E7FB0C94691827
:102EF000E92F0E94911858F3BA17620773078407E5
:102F0000950720F079F4A6F50C94B3180EF4E0952B
:102F10000B2EBA2FA02D0B01B90190010C01CA0193
:102F2000A0011124FF27591B99F0593F50F4503E3E
:102F300068F11A16F040A22F232F342F4427585F30
:102F4000F3CF469537952795A795F0405395C9F748
:102F50007EF41F16BA0B620B730B840BBAF0915000
:102F6000A1F0FF0FBB1F661F771F881FC2F70EC09F
:102F7000BA0F621F731F841F48F487957795679572
:102F8000B795F7959E3F08F0B0CF9395880F08F05E
:102F90009927EE0F9795879508950E94451808F494
:102FA00081E008950E94D9176894B1110C94B41867
:102FB00008950E94991888F09F5798F0B92F992783
:102FC000B751B0F0E1F0660F771F881F991F1AF014
:102FD000BA95C9F714C0B13091F00E94B318B1E0AE
:102FE00008950C94B318672F782F8827B85F39F0AD
:102FF000B93FCCF3869577956795B395D9F73EF4AD
:1030000090958095709561957F4F8F4F9F4F089554
:10301000E89409C097FB3EF4909580957095619572
:103020007F4F8F4F9F4F9923A9F0F92F96E9BB2728
:103030009395F695879577956795B795F111F8CFA4
:10304000FAF4BB0F11F460FF1BC06F5F7F4F8F4F0F
:103050009F4F16C0882311F096E911C0772321F005
:103060009EE8872F762F05C0662371F096E8862F9D
:1030700070E060E02AF09A95660F771F881FDAF7F4
:10308000880F9695879597F90895990F0008550F21
:10309000AA0BE0E8FEEF16161706E807F907C0F0DE
:1030A00012161306E407F50798F0621B730B840BE6
:1030B000950B39F40A2661F0232B242B252B21F4C0
:1030C00008950A2609F4A140A6958FEF811D811D60
:1030D000089597F99F6780E870E060E008959FEF9A
:1030E00080EC089500240A9416161706180609069F
:1030F000089500240A94121613061406050608956E
:10310000092E0394000C11F4882352F0BB0F40F4F5
:10311000BF2B11F460FF04C06F5F7F4F8F4F9F4F35
:10312000089557FD9058440F551F59F05F3F71F0B7
:103130004795880F97FB991F61F09F3F79F087951E
:103140000895121613061406551FF2CF4695F1DFA7
:1031500008C0161617061806991FF1CF8695710537
:10316000610508940895E894BB2766277727CB016B
:1031700097F908950E94451808F48FEF08950E946A
:10318000D2180C9480180E94721838F00E94791896
:1031900020F0952311F00C9469180C946F181124E9
:1031A0000C94B4180E94911870F3959FC1F3950F79
:1031B00050E0551F629FF001729FBB27F00DB11DBB
:1031C000639FAA27F00DB11DAA1F649F6627B00D4B
:1031D000A11D661F829F2227B00DA11D621F739F34
:1031E000B00DA11D621F839FA00D611D221F749F42
:1031F0003327A00D611D231F849F600D211D822F89
:10320000762F6A2F11249F5750409AF0F1F08823AF
:103210004AF0EE0FFF1FBB1F661F771F881F9150DC
:103220005040A9F79E3F510580F00C9469180C940A
:10323000B4185F3FE4F3983ED4F38695779567958D
:10324000B795F795E7959F5FC1F7FE2B880F911D06
:103250009695879597F908950F931F93CF93DF93D2
:103260008230910510F482E090E0E091C302F09189
:10327000C40220E030E0A0E0B0E0309719F14081D6
:1032800051810281138148175907C8F084179507A7
:1032900069F4109731F012960C93129713961C93C1
:1032A00027C00093C3021093C40222C02115310528
:1032B00019F04217530718F49A01BD01EF01DF011D
:1032C000F801DBCF21153105F9F0281B390B24302B
:1032D000310580F48A819B816115710521F0FB0124
:1032E0009383828304C09093C4028093C302FE013F
:1032F000329644C0FE01E20FF31F81939193225056
:103300003109398328833AC02091C1023091C20229
:10331000232B41F420910B0130910C013093C20218
:103320002093C1022091090130910A012115310534
:1033300041F42DB73EB740910D0150910E01241B71
:10334000350BE091C102F091C202E217F307A0F43D
:103350002E1B3F0B2817390778F0AC014E5F5F4FEB
:103360002417350748F04E0F5F1F5093C202409359
:10337000C1028193919302C0E0E0F0E0CF01DF91C0
:10338000CF911F910F910895CF93DF93009709F488
:1033900081C0FC01329713821282A091C302B091C6
:1033A000C402109781F420813181820F931F2091F4
:1033B000C1023091C2022817390751F5F093C202B9
:1033C000E093C10267C0ED0120E030E0CE17DF07D7
:1033D00040F44A815B819E0141155105F1F0EA01FB
:1033E000F5CFD383C28340815181840F951FC817C5
:1033F000D90759F488819981840F951F029691838A
:1034000080838A819B81938382832115310529F4EE
:10341000F093C402E093C3023DC0E901FB83EA8359
:1034200049915991C40FD51FEC17FD0761F48081B4
:103430009181840F951F0296E90199838883828187
:1034400093819B838A83E0E0F0E012968D919C91BA
:103450001397009719F0FD01DC01F7CF8D919C9136
:1034600011979D012E5F3F4F820F931F2091C10244
:103470003091C2022817390769F4309729F4109265
:10348000C4021092C30202C013821282B093C2021D
:10349000A093C102DF91CF91089581E090E0F8946C
:1034A0000C945F1AFB01DC0104C08D91019080191E
:1034B00021F441505040C8F7881B990B0895F894A7
:0234C000FFCF3C
:1034C2006904690400010002010000C50220000035
:1034D20001100801010101010305010101080100B8
:1034E200E8030000000001056A0498044E05C904BF
:1034F200A704BB0468656C6C6F00426C6F636B2041
:103502007772697465207665726966696361746948
:103512006F6E206572726F722C2062616E6B20007A
:103522002C20616464726573732000210A457870EF
:1035320065637465643A002030780030000A526591
:0A3542006365697665643A000A00CB
:00000001FF
