:100000000C945E060C9412080C94EB070C94860674
:100010000C9486060C9486060C9486060C94860630
:100020000C9486060C9486060C9486060C94860620
:100030000C9486060C9486060C9486060C94860610
:100040000C94110C0C9486060C945F080C943908DF
:100050000C9486060C9486060C9486060C948606F0
:100060000C9486060C948606C00AC20ADB0ACF0AE4
:10007000C50A010BBD0AE40AFE0AFE0AFC0A00F8E2
:10008000F62A3F68F57A0006FFFE000300000065CF
:100090000054FFEF0000FA80000B12820001030CF5
:1000A00030C30A74562D0D62DBC716F4BA023883CA
:1000B000F8833000F883258EF8833000F883FFFF43
:1000C000FFFF0CBDD811240004001A8279A100366C
:1000D000003C000000000010000038836FA2003ECA
:1000E00003304000000002CAE3093E800000200007
:1000F00000000000000040000000600000001FA49D
:10010000E8E4FFF5DCB9005B79CF1F3F7876008625
:100110007C5A00862347FAB986310074878A00002A
:10012000000000004305FFFFE9A800002182FAB8A3
:100130004D46FFFADF3DFFFFB2B3000000003FFF76
:10014000BA98005DAC08000A637800014621FFFF01
:100150000000000042B500060064006400061406BA
:10016000029F0F479132D90E9FC91DCF4C343BB629
:100170007AE80064000600C800000000FFFE1000DE
:100180000000000000000000000000000000000768
:100190000000FFF10000FA460000A2B800001000C5
:1001A000000004D6000004CC000004CC00000000D5
:1001B0000000000000000000000000000000000639
:1001C00000020005000700000000006400000000BD
:1001D00000000000000C000500640020000000008A
:1001E00000000000000000004000000003000000CC
:1001F0000032F8980000FF650000830F0000000641
:100200000000FFF10000FA460000A2B80000000064
:1002100000000000000000000000000000000000DE
:10022000003200000000000000000000100000008C
:1002300000010000000D0000B26A00020000000191
:10024000FB83007C0000FB15FC001FB4FF83000053
:10025000000100650007006403E800640028000056
:10026000FFFD0000000016A00000000000000000DC
:100270001000002F0000000001F400001000002812
:100280000000FFFF4581FFFFFA7200000000000040
:100290000000004400010005BAC6004778A2000033
:1002A0000000000000000000060000000014000034
:1002B00023BB002EA25B00000568000BCF490004A1
:1002C000FFFD000200000000000200000000001B13
:1002D00000000000000000000000000000000064BA
:1002E0000007000800060006FFFE000000000000F6
:1002F00000000000000000000000000000000000FE
:1003000000000000000000000000000000000000ED
:100310000000000000000000000000000000002EAF
:10032000A25B00000568000BCF490000000000F848
:10033000F62A3F68F57A0004FFFD00020000001B6A
:1003400000000000000000000000000E000EFFFF93
:10035000FFCF0004000000000032FFFFFF9C000000
:100360004305000000000000000100000064FFE5FC
:10037000000000000000000000000000000000007D
:10038000000100000000000100000000000000016A
:1003900080000001800000018000002426D30001BD
:1003A000000100000000000600100096003C000064
:1003B000000000000000000000001F9E655D0C0AA8
:1003C0004E68CDCF770950166759C619CE82000006
:1003D000000000000000000000000047711C000049
:1003E00000000000000017D7840003000000001187
:1003F000DC4703000000C7938F9D1E1B1C19FFFFE5
:10040000FFFF000000000EDFA4381F9E655D0000A6
:1004100000000047711C0203188500004000000026
:1004200000000000000300000000000000003FFF8B
:10043000FFFDFFFFF4C9FFFFBCF000010C0F00003F
:1004400000000000000000000000000000000000AC
:100450000000000000000000000000000000F5B7F0
:10046000BAB3677DDF7E72902E554CF6E6880000A9
:100470000000000000000000000000000000D8DCC8
:10048000B4B8B0D8B9ABF3F8FAB3B7BB8E9EAEF13F
:1004900032F51BF1B4B8B08097F1A9DFDFDFAADF36
:1004A000DFDFF2AA4CCD6CA90CC92C97F1A98926E3
:1004B0004666B28999A92D557DB0B08AA896365660
:1004C00076F1BAA3B4B280C0B8A89711B28398BA33
:1004D000A3F0240844106418B2B9B49883F1A32996
:1004E000557DBAB5B1A38393F0002850F5B2B6AAF2
:1004F000839328547CF1B9A3829361BAA2DADEDF38
:10050000DB819AB9AEF5606870F1DABAA2DFD9BAC8
:10051000A2FAB9A38292DB31BAA2D9BAA2F8DF85D6
:10052000A4D0C1BBAD83C2C5C7B8A2DFDFDFBAA00C
:10053000DFDFDFD8D8F1B8AAB38DB4980D355DB23E
:10054000B6BAAF8C96198F9FA70E161EB49AB8AA8A
:10055000872C547CBAA4B08AB691325676B2849471
:10056000A4C808CDD8B8B4B0F19982A82D557D980B
:10057000A80E161EA22C547C92A4F02C5078F18464
:10058000A898C4CDFCD80DDBA8FC2DF3D9BAA6F8E9
:10059000DABAA6DED8BAB2B68696A6D0F3C841DAE1
:1005A000A6C8F8D8B0B4B882A892F52C548898F1AF
:1005B00035D9F418D8F1A2D0F8F9A884D9C7DFF852
:1005C000F883C5DADF69DF83C1D8F40114F1A882AA
:1005D0004EA884F311D182F5D992289788F109F4B5
:1005E0001C1CD884A8F3C0F9D1D99782F129F40D45
:1005F000D8F3F9F9D1D982F4C203D8DEDF1AD8F1E1
:10060000A2FAF9A88498D9C7DFF8F8F883C7DADF27
:1006100069DFF883C3D8F40114F198A8822EA88466
:10062000F311D182F5D992509788F109F41CD8843E
:10063000A8F3C0F8F9D1D99782F149F40DD8F3F9AC
:10064000F9D1D982F4C403D8DEDFD8F1AD8898CCD3
:10065000A809F9D98292A8F57CF1883ACF944A6E1C
:1006600098DB6931DAADF2DEF9D88795A8F221D1AD
:10067000DAA5F9F417D9F1AE8ED0C0C3AE82C68424
:10068000C3A88595C8A588F2C0F1F4010EF18E9E2D
:10069000A8C63E56F554F18872F40115F1984585C7
:1006A0006EF58E9E0488F142985A8E9E068869F4F3
:1006B000011CF1981E1108D0F504F11E9702029852
:1006C0003625DBF9D985A5F3C1DA85A5F3DFD88511
:1006D00095A8F309DAA5FAD88292A8F578F1881AD4
:1006E000849F26889821DAF41DF3D8879F39D1AFEB
:1006F000D9DFDFFBF9F40CF3D8FAD0F8DAF9F9D046
:10070000DFD9F9D8F40BD8F3879F39D1AFD9DFDF20
:10071000F41DF3D8FAFCA869F9F9AFD0DADEFAD9FA
:10072000F88F9FA8F1CCF398DB45D9AFDFD0F8D88C
:10073000F18F9FA8CAF38809DAAF8FCBF8D8F2AD52
:10074000978D0CD9A5DFF9BAA6F3FAF412F2D89571
:100750000DD1D9BAA6F3FADAA5F2C1BAA6F3DFD859
:10076000F1BAB2B68696A6D0CAF349DAA6CBF8D8C3
:10077000B0B4B8D8AD84F2C0DFF18FCBC3A8B2B6A5
:100780008696C8C1CBC3F3B0B48898A821DB718D1D
:100790009D71859521D9ADF2FAD88597A828D9F40D
:1007A00008D8F28D29DAF405D9F285A4C2F2D8A8C6
:1007B0008D9401D1D9F411F2D88721D8F40AD8F256
:1007C0008498A8C801D1D9F411D8F3A4C8BBAFD07C
:1007D000F2DEF8F8F8F8F8F8F8F8D8F1B8F6B5B9A4
:1007E000B08A95A3DE3CA3D9F8D85CA3D9F8D87C0D
:1007F000A3D9F8D8F8F9D1A5D9DFDAFAD8B185307C
:10080000F7D9DED8F830ADDADED8F2B48C99A32D62
:10081000557DA083DFDFDFB591A0F629D9FBD8A0F5
:10082000FC29D9FAD8A0D051D9F8D8FC51D9F9D897
:1008300079D9FBD8A0D0FC79D9FAD8A1F9F9F9F97E
:10084000F9A0DADFDFDFD8A1F8F8F8F8F8ACDEF8C5
:10085000ADDE8393AC2C547CF1A8DFDFDFF69D2C5A
:10086000DAA0DFD9FADB2DF8D8A850DAA0D0DED98B
:10087000D0F8F8F8DB55F8D8A878DAA0D0DFD9D0CE
:10088000FAF8F8F8F8DB7DF8D89CA88CF530DB385E
:10089000D9D0DEDFA0D0DEDFD8A848DB58D9DFD042
:1008A000DEA0DFD0DED8A868DB70D9DFDFA0DFDF15
:1008B000D8F1A888902C547C98A8D05C38D1DAF272
:1008C000AE8CDFF9D8B087A8C1C1B188A8C6F9F944
:1008D000DA36D8A8F9DA36D8A8F9DA36D8A8F9DAA3
:1008E00036D8A8F9DA36D8F78D9DADF818DAF2AE19
:1008F000DFD8F7ADFA30D9A4DEF9D8F2AEDEFAF9D6
:1009000083A7D9C3C5C7F1889BA77AADF7DEDFA45B
:10091000F8849408A797F300AEF29819A488C6A3A8
:100920009488F632DFF28393DB09D9F2AADFD8D8B4
:10093000AEF8F9D1DAF3A4DEA7F1889B7AD8F38474
:1009400094AE19F9DAAAF1DFD8A881C0C3C5C7A34C
:100950009283F628ADDED9F8D8A350ADD9F8D8A344
:1009600078ADD9F8D8F8F9D1A1DADEC3C5C7D8A1D6
:100970008194F818F2B089ACC3C5C7F1D8B8B4B047
:100980009786A8319B069907AB9728889BF00C2087
:100990001440B0B4B8F0A88A9A285078B79BA82918
:1009A0005179247059446938644831F1BBAB8800EF
:1009B0002C547CF0B38BB8A804285078F1B088B4DC
:1009C0009726A85998BBABB38B02264666B0B8F001
:1009D0008A9CA82951798B2951798A2470598B20B6
:1009E00058718A4469388B3940688A6448318B3041
:1009F000496088F1AC002C547CF08CA80428507815
:100A0000F1889726A85998AC8C02264666F0899CF6
:100A1000A8295179247059446938644831A9880952
:100A2000205970AB11384069A8193148608CA83C36
:100A3000415C207C00F187981986A86E767EA99982
:100A4000882D557DD8B1B5B9A3DFDFDFAED0DFAAE1
:100A5000D0DEF2ABF8F9D9B087C4AAF1DFDFBBAFC3
:100A6000DFDFB9D8B1F1A3978E60DFB084F2C8F8A8
:100A7000F9D9DED89385F14AB183A308B5839A08E2
:100A800010B79F10D8F1B0BAAEB08AC2B2B68E9E7F
:100A9000F1FBD9F41DD8F9D90CF1D8F8F8AD61D92A
:100AA000AEFBD8F40CF1D8F8F8AD19D9AEFBDFD80D
:100AB000F416F1D8F8AD8D61D9F4F4ACF59C9C8DA9
:100AC000DF2BBAB6AEFAF8F40BD8F1AED0F8AD51D0
:100AD000DAAEFAF8F1D8B9B1B6A3839C08B9B183FC
:100AE0009AB5AAC0FD3083B79F10B58B93F202026E
:100AF000D1ABDADED8F1B080BAABC0C3B284C1C327
:100B0000D8B1B9F38BA391B609B4D9ABDEB0879C49
:100B1000B9A3DDF1B38B8B8B8B8BB087202830385A
:100B2000B28BB69BF2A3C0C8C2C4CCC6A3A3A3F128
:100B3000B087B59AD8F39BA3A3DCBAACDFB9A3FE08
:100B4000F2ABC4AAF1DFDFBBAFDFDFA3A3A3D8D82A
:100B5000D8BBB3B7F1AAF9DAFFD9809AAA28B48032
:100B600098A720B79787A86688F07951F1902C87CD
:100B70000CA781976293F071716085940129517976
:100B800090A5F1284C6C870C95188578A383902844
:100B90004C6C886CD8F3A28200F210A8921980A243
:100BA000F2D926D8F188A84DD948D896A83980D945
:100BB0003CD89580A839A68698D92CDA87A72CD856
:100BC000A8899519A980D938D8A88939A980DA3C8B
:100BD000D8A82EA83990D90CD8A8953198D90CD876
:100BE000A809D9FFD801DAFFD89539A9DA26FFD8A4
:100BF00090A80D8999A810809821DA2ED88999A8F3
:100C00003180DA2ED8A886963180DA2ED8A887319E
:100C100080DA2ED8A88292F34180F1D92ED8A8820A
:100C2000F31980F1D92ED882ACF3C0A28022F1A6AC
:100C30002EA72EA92298A829DAACDEFFD8A2F22A84
:100C4000F1A92E8292A8F23180A696F1D900AC8C3F
:100C50009C0C30ACDED0DEFFD88C9CACD010ACDE6F
:100C60008092A2F24C82A8F1CAF235F19688A6D9F8
:100C700000D8F1FF00000000250028002B0004042C
:100C80000404040404040202020202020303030334
:100C90000303010204081020408001020408102010
:100CA00001020408102000000008000201000003F7
:100CB000040700000000000000005A1111241FBEAC
:100CC000CFEFD8E0DEBFCDBF11E0A0E0B1E0E4E5BA
:100CD000F6E202C005900D92A838B107D9F722E0DC
:100CE000A8E8B1E001C01D92AA3CB207E1F716E006
:100CF000CEE5D6E004C02197FE010E94C911CD3592
:100D0000D107C9F70E945B0C0C9428130C940000C7
:100D10000895CF92DF92EF92FF920F931F93CF939C
:100D2000DF936C017A018B01C0E0D0E0CE15DF05C6
:100D300081F0D8016D918D01D601ED91FC9101906A
:100D4000F081E02DC6010995892B11F02196EECF97
:100D50007E01C701DF91CF911F910F91FF90EF901E
:100D6000DF90CF900895089580E090E00895FC0111
:100D7000538D448D252F30E0842F90E0821B930B00
:100D8000541710F0CF96089501970895FC01918DA6
:100D9000828D981761F0828DDF01A80FB11D5D96DD
:100DA0008C91928D9F5F9F73928F90E008958FEF4B
:100DB0009FEF0895FC01918D828D981731F0828DFF
:100DC000E80FF11D858D90E008958FEF9FEF089556
:100DD000FC01918D228D892F90E0805C9F4F821BBA
:100DE00091098F73992708958EEB91E00E94E80690
:100DF00021E0892B09F420E0822F0895FC01848DE5
:100E0000DF01A80FB11DA35ABF4F2C91848D90E034
:100E100001968F739927848FA689B7892C93A0890F
:100E2000B1898C91837080648C93938D848D981399
:100E300006C00288F389E02D80818F7D808308952C
:100E4000EF92FF920F931F93CF93DF93EC0181E01A
:100E5000888F9B8D8C8D981305C0E889F9898081D6
:100E600085FD26C0F62E0B8D10E00F5F1F4F0F7310
:100E70001127E02E8C8DE8120CC00FB607FCFACFBC
:100E8000E889F989808185FFF5CFCE010E94FE06B1
:100E9000F1CF8B8DFE01E80FF11DE35AFF4FF08279
:100EA0009FB7F8940B8FEA89FB89808180620AC022
:100EB0009FB7F894EE89FF896083E889F98980817A
:100EC0008370806480839FBF81E090E0DF91CF9149
:100ED0001F910F91FF90EF900895CF93DF93EC0156
:100EE000888D8823C9F0EA89FB89808185FD05C04A
:100EF000A889B9898C9186FD0FC00FB607FCF5CF84
:100F0000808185FFF2CFA889B9898C9185FFEDCFCB
:100F1000CE010E94FE06E7CFDF91CF91089580E0D9
:100F200090E0892B29F00E94F40681110C940000B6
:100F300008952AEF30E08091BC0087FD03C0215066
:100F40003109C8F781E0121613060CF080E008950D
:100F50000895FC01DA016430710579F020F4623003
:100F6000710541F008956A30710581F06B307105AB
:100F7000A1F008958C91878308959C91868199238F
:100F800011F0816001C08E7F868308958581982F3E
:100F9000977C8C918873892B02C0858182608583C0
:100FA0000895E0918801F0918901828D938DA48D3F
:100FB000B58D0196A11DB11D828F938FA48FB58F22
:100FC00081819281019721F4E45BFF4F81E080836E
:100FD00008950E9416131F920F920FB60F921124BC
:100FE0002F933F934F935F936F937F938F939F9331
:100FF000AF93BF93EF93FF93E0910201F091030150
:101000000995FF91EF91BF91AF919F918F917F9142
:101010006F915F914F913F912F910F900FBE0F9065
:101020001F9018951F920F920FB60F9211242F93B5
:101030003F934F935F936F937F938F939F93AF9360
:10104000BF93EF93FF93E0910001F09101010995A7
:10105000FF91EF91BF91AF919F918F917F916F9190
:101060005F914F913F912F910F900FBE0F901F9066
:1010700018951F920F920FB60F9211242F933F9342
:101080004F935F936F937F938F939F93AF93BF9390
:10109000EF93FF938EEB91E00E94FE06FF91EF919C
:1010A000BF91AF919F918F917F916F915F914F9180
:1010B0003F912F910F900FBE0F901F9018951F9288
:1010C0000F920FB60F9211242F938F939F93EF934C
:1010D000FF93E091CE01F091CF018081E091D401A6
:1010E000F091D50182FD12C090818091D7018F5F70
:1010F0008F732091D801821751F0E091D701F0E071
:10110000E254FE4F958F8093D70101C08081FF91FB
:10111000EF919F918F912F910F900FBE0F901F9085
:10112000189584E98093BC000E94990791E0892773
:1011300008958093BB0084E88093BC000E949907C7
:10114000882339F08091B900887F883221F480E0CB
:10115000089581E0089582E008950F931F93CF933F
:10116000DF93D82FDD0FC3E014EB04E81093BC002D
:101170000E9499078823B9F08091B900887F883050
:1011800011F0803191F4D093BB000093BC000E9419
:101190009907882361F08091B900887F803259F4E3
:1011A000C15021F706C081E009C082E007C083E09A
:1011B00005C084E003C08831E1F780E0DF91CF9182
:1011C0001F910F910895FF920F931F93CF93DF9379
:1011D000C62F142FF22E032F0E94AD088C2F0E94D1
:1011E0009908CF2DD02FCE01810F911D8C01C017F2
:1011F000D10721F089910E949908F9CF0E949108A6
:1012000081E0DF91CF911F910F91FF900895CF93CF
:10121000DF931F92CDB7DEB749839E012F5F3F4F0B
:1012200041E00E94E3080F90DF91CF9108953F9233
:101230004F925F926F927F928F929F92AF92BF92E6
:10124000CF92DF92EF92FF920F931F93CF93DF9392
:10125000C82FE62E542ED22FD32E0E94050C4B0100
:101260005C01CC0F53E0F52E64EBC62E74E8772EAC
:10127000C092BC000E949907882309F4A5C0809100
:10128000B900887F883019F0803109F09DC0C09383
:10129000BB007092BC000E949907882309F494C097
:1012A0008091B900887F803221F4FA94F110E0CF68
:1012B0008BC0883109F088C0E092BB0084E880933D
:1012C000BC000E949907882309F47EC08091B90070
:1012D000887F883209F078C023E0F22E34EBE32EC9
:1012E000C16044E8C42EE092BC000E9499078823A4
:1012F00009F46AC08091B900887F883019F0803184
:1013000009F062C0C093BB00C092BC000E94990764
:10131000882309F459C08091B900887F883421F46A
:10132000FA94F110E0CF50C0803409F04DC0ED2E9A
:10133000FD2CC52CD12CC0E0D0E0360181E0681A2C
:10134000710884EC482E94E8392ECC16DD06C9F0DD
:10135000C615D70519F43092BC0002C04092BC00FB
:101360000E949907882381F18091B900982F907F7E
:10137000903551F48091BB00F70181937F01219654
:10138000E4CF0E94910802C0887FF1F4C52D0115B9
:101390001105E1F00E94050CDC01CB0188199909C7
:1013A000AA09BB0920E030E080179107A207B30724
:1013B00068F0252D30E08C2F0C2E000C990B821735
:1013C000930724F4CFEF02C0CFEFE1CF8C2FDF9152
:1013D000CF911F910F91FF90EF90DF90CF90BF9032
:1013E000AF909F908F907F906F905F904F903F90C5
:1013F0000895CF92DF92EF92FF920F931F93CF93B6
:10140000DF931F92CDB7DEB7F82EE62ED42EC22E74
:1014100000910401109105019E012F5F3F4F41E0B3
:101420000E941709898141E050E001C0440FDA941D
:10143000EAF7CC2011F0482B02C04095482349839D
:101440006E2D8F2D0E9407090F90DF91CF911F9174
:101450000F91FF90EF90DF90CF900895BF92CF92C1
:10146000DF92EF92FF920F931F93CF93DF931F9220
:10147000CDB7DEB7F82EE62EC42EB22ED02E0091B8
:101480000401109105019E012F5F3F4F41E00E9432
:101490001709882339F12C2D30E02B1931092F5FE2
:1014A0003F4F81E090E002C0880F991FBA94E2F7A5
:1014B0000197022E01C0880F0A94EAF74D2D50E0E3
:1014C000BA0102C0660F771F2A95E2F7482F4095B0
:1014D000998149238623482B49836E2D8F2D0E94A5
:1014E000070901C080E00F90DF91CF911F910F910C
:1014F000FF90EF90DF90CF90BF900895BF92CF9272
:10150000DF92EF92FF920F931F93CF93DF93B62E4C
:101510007A016901FA01EF5EFE4FC081D0E004E07C
:1015200010E063E28EEB91E00E9420070150110968
:10153000C1F76E2D8EEB91E00E9420076B2D8EEB94
:1015400091E00E942007AE01B6018EEB91E0DF91A1
:10155000CF911F910F91FF90EF90DF90CF90BF90B0
:101560000C948906DC01FB013297EB30F10508F0A1
:1015700045C0EC5CFF4F0C94C91181E891E00895DF
:10158000079608958AE091E0089581E090E0119631
:101590002D913C9112972230310551F412C081E017
:1015A00090E011962D913C9112972130310549F030
:1015B00080E090E006C016968C91282F217030E0D4
:1015C000C901875F9E4F08952AE031E049E050E06D
:1015D0006EE070E092968D919C9193970E947E0AA6
:1015E00060ED77E080E090E00E94CB0BE0E0F0E07F
:1015F000099589E091E008954A96089580E090E089
:10160000089586E091E008953FB7F8948091C20272
:101610009091C302A091C402B091C50226B5A89BC7
:1016200005C02F3F19F00196A11DB11D3FBFBA2F74
:10163000A92F982F8827820F911DA11DB11DBC01D4
:10164000CD0142E0660F771F881F991F4A95D1F799
:101650000895009769F0FC0101900020E9F73197A7
:10166000AF01481B590BBC018EEB91E00C9489062D
:1016700080E090E008950C94290B8F929F92AF9296
:10168000BF920F931F93CF93DF93CDB7DEB7A19790
:101690000FB6F894DEBF0FBECDBF19A2423008F4DA
:1016A0004AE08E010F5D1F4F842E912CA12CB12C8E
:1016B000A50194010E949311E62FB901CA010150BE
:1016C0001109EA3014F4E05D01C0E95CD801EC9343
:1016D000232B242B252B61F7C8010E94290BA196EF
:1016E0000FB6F894DEBF0FBECDBFDF91CF911F9133
:1016F0000F91BF90AF909F908F90089590E0FC0164
:10170000EA55F34F2491FC01EE56F34F3491FC015E
:10171000E258F34FE491EE2309F43CC0222339F15F
:10172000233091F038F42130A9F0223001F584B54E
:101730008F7D12C0273091F02830A1F02430B9F409
:10174000809180008F7D03C0809180008F7780938F
:1017500080000DC084B58F7784BD09C08091B00032
:101760008F7703C08091B0008F7D8093B000F0E050
:10177000EE0FFF1FEC58F34FA591B4919FB7F8946B
:10178000611104C08C913095382302C0EC913E2B3E
:101790003C939FBF08958F929F92AF92BF92CF923A
:1017A000DF92EF92FF926B017C010E94040B4B01D0
:1017B0005C01C114D104E104F104F1F00E94040BB6
:1017C000DC01CB0188199909AA09BB09883E93401D
:1017D000A105B10570F321E0C21AD108E108F108B2
:1017E00088EE880E83E0981EA11CB11CC114D104A0
:1017F000E104F10419F7DDCFFF90EF90DF90CF9077
:10180000BF90AF909F908F9008952FB7F8946091FC
:10181000BE027091BF028091C0029091C1022FBFA1
:1018200008951F920F920FB60F9211242F933F939A
:101830008F939F93AF93BF938091BE029091BF020D
:10184000A091C002B091C1023091BD0223E0230FEC
:101850002D3720F40196A11DB11D05C026E8230FE8
:101860000296A11DB11D2093BD028093BE029093EC
:10187000BF02A093C002B093C1028091C2029091B6
:10188000C302A091C402B091C5020196A11DB11D71
:101890008093C2029093C302A093C402B093C50286
:1018A000BF91AF919F918F913F912F910F900FBE5C
:1018B0000F901F901895CF93DF93CDB7DEB7619748
:1018C0000FB6F894DEBF0FBECDBF789484B58260AA
:1018D00084BD84B5816084BD85B5826085BD85B5D4
:1018E000816085BD80916E00816080936E00109252
:1018F00081008091810082608093810080918100CD
:10190000816080938100809180008160809380005D
:101910008091B10084608093B1008091B0008160BB
:101920008093B00080917A00846080937A008091E7
:101930007A00826080937A0080917A00816080933F
:101940007A0080917A00806880937A001092C100BA
:1019500061E08EE00E947E0B61E08DE00E947E0BD4
:1019600064E670E080E090E00E94CB0B60E08DE0E8
:101970000E947E0B64E670E080E090E00E94CB0B5A
:1019800061E08DE00E947E0B64E670E080E090E014
:101990000E94CB0B60E08DE00E947E0B4CE8E42EB1
:1019A00041E0F42E82EB9AE09093AF018093AE0178
:1019B00089EA97E09093B1018093B00188EA97E0BB
:1019C0009093B3018093B2010EE612E01093B5013B
:1019D0000093B4018EEB91E09093AD018093AC0144
:1019E000E091CE01F091CF0182E08083E091CA01C5
:1019F000F091CB011082E091CC01F091CD0180E11A
:101A000080831092D601E091D201F091D30186E05B
:101A10008083E091D001F091D10180818061808349
:101A2000E091D001F091D101808188608083E091C4
:101A3000D001F091D101808180688083E091D00154
:101A4000F091D10180818F7D808381E090E090933F
:101A5000B9018093B8011092BD011092BC010E949F
:101A6000050C9B01AC01609378023093790240939E
:101A70007A0250937B0210927C0210927D021092A7
:101A80007E0210927F020E94050C9B01AC016093C4
:101A9000800230938102409382025093830210921D
:101AA0008402109285021092860210928702F092B0
:101AB0009102E09290028BE592E09093BC028093B9
:101AC000BB02F0928B01E0928A011093890100938E
:101AD00088011092700210926F0281ED97E090934E
:101AE0000101809300018091690083608093690007
:101AF000E89A1092BC0088B1806388B91092B9004E
:101B00008CE08093B80054E0F52EF092BC0084EF96
:101B100091E0909305018093040101E023E042E00D
:101B20006BE680915B020E942E0A00E022E044E016
:101B30006BE180915B020E942E0A22E044E06CE19E
:101B400080915B020E942E0A20E046E06BE68091C5
:101B50005B020E94F90964EF71E080E090E00E946E
:101B6000CB0B11E0198321E047E06BE680915B022B
:101B70000E94F90964E670E080E090E00E94CB0BDF
:101B800087E0898307E023E042E06AE680915B0218
:101B90000E942E0A64E670E080E090E00E94CB0B89
:101BA00019839E012F5F3F4F41E06BE680915B02FE
:101BB0000E94E30819829E012F5F3F4F41E068E3D6
:101BC00080915B020E94E30819829E012F5F3F4FC4
:101BD00041E063E280915B020E94E30819829E016A
:101BE0002F5F3F4F41E06CE180915B020E94E30870
:101BF00080E889839E012F5F3F4F41E067E380913A
:101C00005B020E94E30819839E012F5F3F4F41E072
:101C10006BE680915B020E94E308F9829E012F5FD0
:101C20003F4F41E069E180915B020E94E308198324
:101C30009E012F5F3F4F41E06AE180915B020E946D
:101C4000E30840E06DE680915B020E94070940E0F6
:101C50006EE680915B020E94070980E190E00E949D
:101C6000F5115C0180E190E00E94F511782EC92EFB
:101C7000212C312CE12CF12C412C55245394682E2D
:101C8000998BC7014096873F9B4020F036EFD32EBB
:101C9000DE1802C020E1D22E8D2D90E09201231992
:101CA00031092817390714F4D32CD194A72DBC2D52
:101CB00080E090E08D1548F4FC01EE0DFF1DE25828
:101CC000FF4FE491ED930196F5CF272D3C2D4D2D3F
:101CD0006FE680915B020E94E3088D2C912CA11489
:101CE000B10409F48AC0422D4F716DE680915B0208
:101CF0000E940709432D6EE680915B020E9407094E
:101D000004EF11E095014D2D6FE680915B020E947A
:101D10001709A401B501872D9C2D0E941B13892B47
:101D200009F46BC081E391E00E943B0B622D70E0EF
:101D300080E090E04AE00E943D0B87E591E00E9440
:101D40003B0B632D70E080E090E04AE00E943D0B89
:101D500082E691E00E943B0B062D1989802F86199F
:101D60008D15C0F48EE691E00E943B0B4801D8012E
:101D70008C91803120F482E791E00E943B0B0F5F51
:101D80001F4FF401608170E080E090E040E10E942C
:101D90003D0BE4CF84E791E00E943B0BEA0CFB1C77
:101DA000912CD914D1F08EE691E00E943B0B870173
:101DB000D7018C91803120F482E791E00E943B0BA7
:101DC000BFEFEB1AFB0AF801608170E080E090E061
:101DD00040E10E943D0B9394E4CF8FE791E00E9495
:101DE0003B0BC5010E948D12872D9C2D0E948D12E8
:101DF0001092700210926F0275C0E80CF91C3D0C35
:101E0000F6EFEF16FBE0FF0688F4311001C02394D3
:101E1000422D4F716DE680915B020E940709432DB0
:101E20006EE680915B020E9407092BCFC5010E94DC
:101E30008D12872D9C2D0E948D1280915B020E9435
:101E4000AD0880E70E94990884E00E94990880E02C
:101E50000E9499080E94910888E189839E012F5F62
:101E60003F4F41E06BE180915B020E94E30880EC10
:101E700089839E012F5F3F4F41E06AE680915B02BC
:101E80000E94E30882E089839E012F5F3F4F41E07B
:101E900068E380915B020E94E30821E042E06AE689
:101EA00080915B020E94F90920E047E06AE6809198
:101EB0005B020E94F9098CE190E090936D0280939F
:101EC0006C02909377028093760281E090E0909389
:101ED000700280936F0221E047E06AE680915B0226
:101EE0000E94F90988248394912C92E0292E312CA8
:101EF0008091BA02882309F475C01092BA02E0906A
:101F00008801F090890157012DE4A20EB11CD50182
:101F10006D907C90C0900401D090050193012F5FDB
:101F20003F4F860141E06AE3F30180810E94170977
:101F3000882339F055245394D30111968C91811143
:101F400001C0512CF5016080718093012F5F3F4FDC
:101F5000860142E062E7D3018C910E941709552067
:101F600009F440C0F301818192819827892798273D
:101F70004097C4F1F701868D978DA0A1B1A101967C
:101F8000A11DB11D868F978FA0A3B1A340854423C7
:101F900059F0D501ED91FC919E012F5F3F4F64E711
:101FA00080810E94170901C0198289819A8198272E
:101FB00089279827F70195A384A38D819E8198276F
:101FC0008927982797A386A389859A8598278927A3
:101FD000982791A780A78D859E8598278927982780
:101FE00093A782A780916F0290917002019709F0E8
:101FF00062C08091740280FF5EC00E94050C5B018C
:102000006C019B01A60160E070E080E090E0A09090
:102010008002B0908102C0908202D0908302E09052
:102020008402F090850200918602109187020E943E
:10203000CF11E52EF62E072FF82FE92F60917502AC
:1020400070E088EE93E00E94B5115B011B2D110F2B
:10205000110B5E2D6F2D702F8F2F9E2FC12ED12E25
:10206000E12EF12E012F0E94D81129F120F10E94BA
:10207000050C8B019C0160938002109381022093D8
:102080008202309383021092840210928502109291
:1020900086021092870220918801309189012C5D7F
:1020A0003F4F41E050E06CE070E080918A019091F8
:1020B0008B010E947E0A8091AC019091AD01DC0100
:1020C000ED91FC910084F185E02D09957C01892B2F
:1020D00009F4EDC000E010E00E151F050CF0E7C09C
:1020E0008091AC019091AD01DC01ED91FC910284F5
:1020F000F385E02D09958F3F09F4D9C02091B801EF
:102100003091B9012330310591F138F42130310596
:1021100061F02230310589F0C7C024303105D1F19A
:102120002530310509F449C0BFC0833209F0BCC075
:102130003092B9012092B8010CC02091BC013091BD
:10214000BD012330310554F4833209F0A5C02F5F5F
:102150003F4F3093BD012093BC01A6C02330310511
:1021600009F09AC03093B9012093B80199C09FEF4C
:10217000980F9C3008F090C0082E000C990B90939B
:10218000BB018093BA01E4E0F0E0F093B901E09381
:10219000B8018AC095EF980F953008F07DC0082EE1
:1021A000000C990B9093B7018093B60185E090E005
:1021B0009093B9018093B80177C02091BC01309110
:1021C000BD016091BA017091BB01FB01EF5EFE4F52
:1021D000408150E041505109F901E457FE4F241766
:1021E000350744F42F5F3F4F3093BD012093BC016E
:1021F00080835AC080838091B6019091B7018C3062
:10220000910599F18D309105D1F00B9709F044C0FB
:10221000E091AE01F091AF014CE851E08091B40142
:102220009091B50109954091BA015091BB019C0173
:102230006EE070E08CE891E00E947E0A2DC02CE8F0
:1022400031E0AB016FE070E0C9010E947E0A60914D
:10225000BA017091BB01E091B201F091B30180919C
:10226000B4019091B501099517C02CE831E0AB019C
:102270006FE070E0C9010E947E0A6091BA0170911E
:10228000BB01E091B001F091B1014CE851E08091C7
:10229000B4019091B50109959092B9018092B8016D
:1022A0001092BD011092BC010F5F1F4F15CF0E940D
:1022B0008F071ECEEEEBF1E01382128288EE93E0E0
:1022C000A0E0B0E084839583A683B78383E291E0A6
:1022D0009183808385EC90E09587848784EC90E0FF
:1022E0009787868780EC90E0918B808B81EC90E0E3
:1022F000938B828B82EC90E0958B848B86EC90E0C4
:10230000978B868B118E128E138E148EEEE6F2E072
:10231000108280E190E0918780871092BA0288E66F
:1023200080935B020895A1E21A2EAA1BBB1BFD013C
:102330000DC0AA1FBB1FEE1FFF1FA217B307E407A4
:10234000F50720F0A21BB30BE40BF50B661F771FFC
:10235000881F991F1A9469F76095709580959095DC
:102360009B01AC01BD01CF01089597FB072E16F428
:10237000009407D077FD09D00E94E11107FC05D039
:102380003EF4909581959F4F0895709561957F4F8C
:102390000895EE0FFF1F0590F491E02D09942A197E
:1023A0003B094C095D096E097F09800B910B08956B
:1023B0002A153B054C055D056E057F0580079107D5
:1023C0000895AA1BBB1B51E107C0AA1FBB1FA6177C
:1023D000B70710F0A61BB70B881F991F5A95A9F7CE
:1023E00080959095BC01CD0108950F931F93CF93D5
:1023F000DF938230910510F482E090E0E091C80212
:10240000F091C90220E030E0A0E0B0E0309719F18F
:10241000408151810281138148175907C8F0841700
:10242000950769F4109731F012960C931297139652
:102430001C9327C00093C8021093C90222C0211523
:10244000310519F04217530718F49A01BD01EF0145
:10245000DF01F801DBCF21153105F9F0281B390B1D
:102460002430310580F48A819B816115710521F04A
:10247000FB019383828304C09093C9028093C802B6
:10248000FE01329644C0FE01E20FF31F8193919347
:1024900022503109398328833AC02091C6023091F5
:1024A000C702232B41F420910D0130910E0130938E
:1024B000C7022093C60220910B0130910C01211517
:1024C000310541F42DB73EB740910F0150911001F5
:1024D000241B350BE091C602F091C702E217F30707
:1024E000A0F42E1B3F0B2817390778F0AC014E5F84
:1024F0005F4F2417350748F04E0F5F1F5093C702F8
:102500004093C6028193919302C0E0E0F0E0CF01D6
:10251000DF91CF911F910F910895CF93DF93009793
:1025200009F481C0FC01329713821282A091C80283
:10253000B091C902109781F420813181820F931FDD
:102540002091C6023091C7022817390751F5F09340
:10255000C702E093C60267C0ED0120E030E0CE176D
:10256000DF0740F44A815B819E0141155105F1F07E
:10257000EA01F5CFD383C28340815181840F951F37
:10258000C817D90759F488819981840F951F02963D
:10259000918380838A819B81938382832115310576
:1025A00029F4F093C902E093C8023DC0E901FB831E
:1025B000EA8349915991C40FD51FEC17FD0761F4C7
:1025C00080819181840F951F0296E9019983888308
:1025D000828193819B838A83E0E0F0E012968D9163
:1025E0009C911397009719F0FD01DC01F7CF8D91B5
:1025F0009C9111979D012E5F3F4F820F931F209159
:10260000C6023091C7022817390769F4309729F4B8
:102610001092C9021092C80202C013821282B093B3
:10262000C702A093C602DF91CF91089581E090E0A8
:10263000F8940C942813FB01DC0104C08D910190E7
:10264000801921F441505040C8F7881B990B089518
:04265000F894FFCF2C
:1026540088068806E80300000100010000CA022081
:102664000000080101010101030501010108000046
:1026740000000020078906B7066D07E806C606DADB
:1026840006426C6F636B207772697465207665729D
:10269400696669636174696F6E206572726F722C0A
:1026A4002062616E6B20002C206164647265737318
:1026B4002000210A45787065637465643A0020300F
:1026C400780030000A52656365697665643A000AE9
:0826D4000068656C6C6F0000EA
:00000001FF
